{
  "_format": "hh-sol-artifact-1",
  "contractName": "GrantToken",
  "sourceName": "contracts/GrantToken.sol",
  "abi": [
    {
      "inputs": [],
      "stateMutability": "nonpayable",
      "type": "constructor"
    },
    {
      "anonymous": false,
      "inputs": [
        {
          "indexed": true,
          "internalType": "address",
          "name": "owner",
          "type": "address"
        },
        {
          "indexed": true,
          "internalType": "address",
          "name": "spender",
          "type": "address"
        },
        {
          "indexed": false,
          "internalType": "uint256",
          "name": "value",
          "type": "uint256"
        }
      ],
      "name": "Approval",
      "type": "event"
    },
    {
      "anonymous": false,
      "inputs": [
        {
          "indexed": true,
          "internalType": "bytes32",
          "name": "role",
          "type": "bytes32"
        },
        {
          "indexed": true,
          "internalType": "bytes32",
          "name": "previousAdminRole",
          "type": "bytes32"
        },
        {
          "indexed": true,
          "internalType": "bytes32",
          "name": "newAdminRole",
          "type": "bytes32"
        }
      ],
      "name": "RoleAdminChanged",
      "type": "event"
    },
    {
      "anonymous": false,
      "inputs": [
        {
          "indexed": true,
          "internalType": "bytes32",
          "name": "role",
          "type": "bytes32"
        },
        {
          "indexed": true,
          "internalType": "address",
          "name": "account",
          "type": "address"
        },
        {
          "indexed": true,
          "internalType": "address",
          "name": "sender",
          "type": "address"
        }
      ],
      "name": "RoleGranted",
      "type": "event"
    },
    {
      "anonymous": false,
      "inputs": [
        {
          "indexed": true,
          "internalType": "bytes32",
          "name": "role",
          "type": "bytes32"
        },
        {
          "indexed": true,
          "internalType": "address",
          "name": "account",
          "type": "address"
        },
        {
          "indexed": true,
          "internalType": "address",
          "name": "sender",
          "type": "address"
        }
      ],
      "name": "RoleRevoked",
      "type": "event"
    },
    {
      "anonymous": false,
      "inputs": [
        {
          "indexed": true,
          "internalType": "address",
          "name": "from",
          "type": "address"
        },
        {
          "indexed": true,
          "internalType": "address",
          "name": "to",
          "type": "address"
        },
        {
          "indexed": false,
          "internalType": "uint256",
          "name": "value",
          "type": "uint256"
        }
      ],
      "name": "Transfer",
      "type": "event"
    },
    {
      "inputs": [],
      "name": "DEFAULT_ADMIN_ROLE",
      "outputs": [
        {
          "internalType": "bytes32",
          "name": "",
          "type": "bytes32"
        }
      ],
      "stateMutability": "view",
      "type": "function"
    },
    {
      "inputs": [],
      "name": "INITIAL_SUPPLY",
      "outputs": [
        {
          "internalType": "uint256",
          "name": "",
          "type": "uint256"
        }
      ],
      "stateMutability": "view",
      "type": "function"
    },
    {
      "inputs": [],
      "name": "MAX_SUPPLY",
      "outputs": [
        {
          "internalType": "uint256",
          "name": "",
          "type": "uint256"
        }
      ],
      "stateMutability": "view",
      "type": "function"
    },
    {
      "inputs": [],
      "name": "MINTER_ROLE",
      "outputs": [
        {
          "internalType": "bytes32",
          "name": "",
          "type": "bytes32"
        }
      ],
      "stateMutability": "view",
      "type": "function"
    },
    {
      "inputs": [
        {
          "internalType": "address",
          "name": "owner",
          "type": "address"
        },
        {
          "internalType": "address",
          "name": "spender",
          "type": "address"
        }
      ],
      "name": "allowance",
      "outputs": [
        {
          "internalType": "uint256",
          "name": "",
          "type": "uint256"
        }
      ],
      "stateMutability": "view",
      "type": "function"
    },
    {
      "inputs": [
        {
          "internalType": "address",
          "name": "spender",
          "type": "address"
        },
        {
          "internalType": "uint256",
          "name": "amount",
          "type": "uint256"
        }
      ],
      "name": "approve",
      "outputs": [
        {
          "internalType": "bool",
          "name": "",
          "type": "bool"
        }
      ],
      "stateMutability": "nonpayable",
      "type": "function"
    },
    {
      "inputs": [
        {
          "internalType": "address",
          "name": "account",
          "type": "address"
        }
      ],
      "name": "balanceOf",
      "outputs": [
        {
          "internalType": "uint256",
          "name": "",
          "type": "uint256"
        }
      ],
      "stateMutability": "view",
      "type": "function"
    },
    {
      "inputs": [
        {
          "internalType": "uint256",
          "name": "amount",
          "type": "uint256"
        }
      ],
      "name": "burn",
      "outputs": [],
      "stateMutability": "nonpayable",
      "type": "function"
    },
    {
      "inputs": [
        {
          "internalType": "address",
          "name": "account",
          "type": "address"
        },
        {
          "internalType": "uint256",
          "name": "amount",
          "type": "uint256"
        }
      ],
      "name": "burnFrom",
      "outputs": [],
      "stateMutability": "nonpayable",
      "type": "function"
    },
    {
      "inputs": [],
      "name": "decimals",
      "outputs": [
        {
          "internalType": "uint8",
          "name": "",
          "type": "uint8"
        }
      ],
      "stateMutability": "view",
      "type": "function"
    },
    {
      "inputs": [
        {
          "internalType": "address",
          "name": "spender",
          "type": "address"
        },
        {
          "internalType": "uint256",
          "name": "subtractedValue",
          "type": "uint256"
        }
      ],
      "name": "decreaseAllowance",
      "outputs": [
        {
          "internalType": "bool",
          "name": "",
          "type": "bool"
        }
      ],
      "stateMutability": "nonpayable",
      "type": "function"
    },
    {
      "inputs": [
        {
          "internalType": "bytes32",
          "name": "role",
          "type": "bytes32"
        }
      ],
      "name": "getRoleAdmin",
      "outputs": [
        {
          "internalType": "bytes32",
          "name": "",
          "type": "bytes32"
        }
      ],
      "stateMutability": "view",
      "type": "function"
    },
    {
      "inputs": [
        {
          "internalType": "bytes32",
          "name": "role",
          "type": "bytes32"
        },
        {
          "internalType": "address",
          "name": "account",
          "type": "address"
        }
      ],
      "name": "grantRole",
      "outputs": [],
      "stateMutability": "nonpayable",
      "type": "function"
    },
    {
      "inputs": [
        {
          "internalType": "bytes32",
          "name": "role",
          "type": "bytes32"
        },
        {
          "internalType": "address",
          "name": "account",
          "type": "address"
        }
      ],
      "name": "hasRole",
      "outputs": [
        {
          "internalType": "bool",
          "name": "",
          "type": "bool"
        }
      ],
      "stateMutability": "view",
      "type": "function"
    },
    {
      "inputs": [
        {
          "internalType": "address",
          "name": "spender",
          "type": "address"
        },
        {
          "internalType": "uint256",
          "name": "addedValue",
          "type": "uint256"
        }
      ],
      "name": "increaseAllowance",
      "outputs": [
        {
          "internalType": "bool",
          "name": "",
          "type": "bool"
        }
      ],
      "stateMutability": "nonpayable",
      "type": "function"
    },
    {
      "inputs": [
        {
          "internalType": "address",
          "name": "to",
          "type": "address"
        },
        {
          "internalType": "uint256",
          "name": "amount",
          "type": "uint256"
        }
      ],
      "name": "mint",
      "outputs": [],
      "stateMutability": "nonpayable",
      "type": "function"
    },
    {
      "inputs": [],
      "name": "name",
      "outputs": [
        {
          "internalType": "string",
          "name": "",
          "type": "string"
        }
      ],
      "stateMutability": "view",
      "type": "function"
    },
    {
      "inputs": [
        {
          "internalType": "bytes32",
          "name": "role",
          "type": "bytes32"
        },
        {
          "internalType": "address",
          "name": "account",
          "type": "address"
        }
      ],
      "name": "renounceRole",
      "outputs": [],
      "stateMutability": "nonpayable",
      "type": "function"
    },
    {
      "inputs": [
        {
          "internalType": "bytes32",
          "name": "role",
          "type": "bytes32"
        },
        {
          "internalType": "address",
          "name": "account",
          "type": "address"
        }
      ],
      "name": "revokeRole",
      "outputs": [],
      "stateMutability": "nonpayable",
      "type": "function"
    },
    {
      "inputs": [
        {
          "internalType": "address",
          "name": "member",
          "type": "address"
        },
        {
          "internalType": "uint256",
          "name": "amount",
          "type": "uint256"
        }
      ],
      "name": "rewardMember",
      "outputs": [],
      "stateMutability": "nonpayable",
      "type": "function"
    },
    {
      "inputs": [
        {
          "internalType": "bytes4",
          "name": "interfaceId",
          "type": "bytes4"
        }
      ],
      "name": "supportsInterface",
      "outputs": [
        {
          "internalType": "bool",
          "name": "",
          "type": "bool"
        }
      ],
      "stateMutability": "view",
      "type": "function"
    },
    {
      "inputs": [],
      "name": "symbol",
      "outputs": [
        {
          "internalType": "string",
          "name": "",
          "type": "string"
        }
      ],
      "stateMutability": "view",
      "type": "function"
    },
    {
      "inputs": [],
      "name": "totalSupply",
      "outputs": [
        {
          "internalType": "uint256",
          "name": "",
          "type": "uint256"
        }
      ],
      "stateMutability": "view",
      "type": "function"
    },
    {
      "inputs": [
        {
          "internalType": "address",
          "name": "to",
          "type": "address"
        },
        {
          "internalType": "uint256",
          "name": "amount",
          "type": "uint256"
        }
      ],
      "name": "transfer",
      "outputs": [
        {
          "internalType": "bool",
          "name": "",
          "type": "bool"
        }
      ],
      "stateMutability": "nonpayable",
      "type": "function"
    },
    {
      "inputs": [
        {
          "internalType": "address",
          "name": "from",
          "type": "address"
        },
        {
          "internalType": "address",
          "name": "to",
          "type": "address"
        },
        {
          "internalType": "uint256",
          "name": "amount",
          "type": "uint256"
        }
      ],
      "name": "transferFrom",
      "outputs": [
        {
          "internalType": "bool",
          "name": "",
          "type": "bool"
        }
      ],
      "stateMutability": "nonpayable",
      "type": "function"
    }
  ],
  "bytecode": "0x608034620004b4576040906001600160401b0381830181811183821017620003b6578352600f82526020906e23b930b73a26b4b732102a37b5b2b760891b8284015283519284840184811083821117620003b65785526005908185526411d490539560da1b84860152805192808411620003b65760038054946001938487811c97168015620004a9575b8888101462000493578190601f978881116200043f575b508890888311600114620003d857600092620003cc575b505060001982841b1c191690841b1781555b8651918211620003b65760049687548481811c91168015620003ab575b8882101462000396579081878594931162000340575b508790878411600114620002d557600093620002c9575b505082841b92600019911b1c19161785555b600080528184528560002033600052845260ff866000205416156200028d575b7f9f2df0fed2c77648de5860a4cc508cd0818c85b8b8a1ab4ceeef8d981c8956a691826000528085528660002033600052855260ff876000205416156200024e575b50505033156200020f575060025469d3c21bcecceda100000092838201809211620001fa57506000917fddf252ad1be2c89b69c2b068fc378daa952ba7f163c4a11628f55a4df523b3ef9160025533835282815284832084815401905584519384523393a3516113e29081620004ba8239f35b601190634e487b7160e01b6000525260246000fd5b90606493519262461bcd60e51b845283015260248201527f45524332303a206d696e7420746f20746865207a65726f2061646472657373006044820152fd5b82600052845285600020336000528452856000209060ff19825416179055339033906000805160206200189c833981519152600080a438808062000187565b6000805281845285600020336000528452856000208160ff19825416179055333360006000805160206200189c8339815191528180a462000145565b01519150388062000113565b9190859450601f198416928a600052896000209360005b8b8282106200032957505085116200030e575b50505050811b01855562000125565b01519060f884600019921b161c1916905538808080620002ff565b8385015187558998909601959384019301620002ec565b90919250886000528760002087808601881c8201928a87106200038c575b918791879695949301891c01915b8281106200037c575050620000fc565b600081558695508791016200036c565b925081926200035e565b602289634e487b7160e01b6000525260246000fd5b90607f1690620000e6565b634e487b7160e01b600052604160045260246000fd5b015190503880620000b7565b90869350601f19831691856000528a6000209260005b8c8282106200042857505084116200040f575b505050811b018155620000c9565b015160001983861b60f8161c1916905538808062000401565b8385015186558a97909501949384019301620003ee565b909150836000528860002088808501891c8201928b861062000489575b91889186959493018a1c01915b82811062000479575050620000a0565b6000815585945088910162000469565b925081926200045c565b634e487b7160e01b600052602260045260246000fd5b96607f169662000089565b600080fdfe608060408181526004918236101561001657600080fd5b600092833560e01c91826301ffc9a71461088d5750816306fdde0314610798578163095ea7b31461076e57816318160ddd1461074f57816323b872dd14610712578163248a9ca3146106e75781632f2ff15d1461063a5781632ff2e9dc14610615578163313ce567146105f957816332cb6b0c146105d357816336568abe1461054157816339509351146104f157816340c10f191461046f57816342966c68146104d357816370a082311461049c578163746d961e1461046f57816379cc67901461043f57816391d14854146103f857816395d89b41146102f5578163a217fddf146102da578163a457c2d714610232578163a9059cbb14610201578163d5391393146101c6578163d547741f14610183575063dd62ed3e1461013857600080fd5b3461017f578060031936011261017f578060209261015461092f565b61015c61094a565b6001600160a01b0391821683526001865283832091168252845220549051908152f35b5080fd5b919050346101c257806003193601126101c2576101bf91356101ba60016101a861094a565b93838752600560205286200154610b76565b610cd4565b80f35b8280fd5b50503461017f578160031936011261017f57602090517f9f2df0fed2c77648de5860a4cc508cd0818c85b8b8a1ab4ceeef8d981c8956a68152f35b50503461017f578060031936011261017f5760209061022b61022161092f565b6024359033610d6d565b5160018152f35b905082346102d757826003193601126102d75761024d61092f565b918360243592338152600160205281812060018060a01b03861682526020522054908282106102865760208561022b8585038733610edb565b608490602086519162461bcd60e51b8352820152602560248201527f45524332303a2064656372656173656420616c6c6f77616e63652062656c6f77604482015264207a65726f60d81b6064820152fd5b80fd5b50503461017f578160031936011261017f5751908152602090f35b83833461017f578160031936011261017f57805191809380549160019083821c928285169485156103ee575b60209586861081146103db578589529081156103b7575060011461035f575b61035b8787610351828c0383610cb2565b5191829182610903565b0390f35b81529295507f8a35acfbc15ff81a39ae7d344fd709f28e8600b4aa8c65c6b64bfe7fe36bd19b5b8284106103a4575050508261035b9461035192820101948680610340565b8054868501880152928601928101610386565b60ff19168887015250505050151560051b83010192506103518261035b8680610340565b634e487b7160e01b845260228352602484fd5b93607f1693610321565b9050346101c257816003193601126101c2578160209360ff9261041961094a565b90358252600586528282206001600160a01b039091168252855220549151911615158152f35b50503461017f573660031901126102d7576101bf61045b61092f565b6024359061046a823383610fdd565b611075565b50503461017f573660031901126102d7576101bf61048b61092f565b610493610960565b602435906112b2565b50503461017f57602036600319011261017f5760209181906001600160a01b036104c461092f565b16815280845220549051908152f35b83903461017f57602036600319011261017f576101bf903533611075565b50503461017f578060031936011261017f5761022b60209261053a61051461092f565b338352600186528483206001600160a01b03821684528652918490205460243590610d4a565b9033610edb565b8391503461017f578260031936011261017f5761055c61094a565b90336001600160a01b0383160361057857906101bf9135610cd4565b608490602085519162461bcd60e51b8352820152602f60248201527f416363657373436f6e74726f6c3a2063616e206f6e6c792072656e6f756e636560448201526e103937b632b9903337b91039b2b63360891b6064820152fd5b50503461017f578160031936011261017f57602090516a084595161401484a0000008152f35b50503461017f578160031936011261017f576020905160128152f35b50503461017f578160031936011261017f576020905169d3c21bcecceda10000008152f35b9050346101c257816003193601126101c257359061065661094a565b90828452600560205261066e60018286200154610b76565b828452600560209081528185206001600160a01b039093168086529290528084205460ff161561069c578380f35b82845260056020528084208285526020528320600160ff1982541617905533917f2f8788117e7eff1d82e926ec794901d17c78024a50270940304540a733656f0d8480a43880808380f35b9050346101c25760203660031901126101c25781602093600192358152600585522001549051908152f35b50503461017f57606036600319011261017f5760209061022b61073361092f565b61073b61094a565b6044359161074a833383610fdd565b610d6d565b50503461017f578160031936011261017f576020906002549051908152f35b50503461017f578060031936011261017f5760209061022b61078e61092f565b6024359033610edb565b919050346101c257826003193601126101c257805191836003549060019082821c928281168015610883575b6020958686108214610870575084885290811561084e57506001146107f5575b61035b8686610351828b0383610cb2565b929550600383527fc2575a0e9e593c00f959f8c92f12db2869c3395a3b0502d05e2516446f71f85b5b82841061083b575050508261035b946103519282010194386107e4565b805486850188015292860192810161081e565b60ff191687860152505050151560051b83010192506103518261035b386107e4565b634e487b7160e01b845260229052602483fd5b93607f16936107c4565b8491346101c25760203660031901126101c2573563ffffffff60e01b81168091036101c25760209250637965db0b60e01b81149081156108cf575b5015158152f35b6301ffc9a760e01b149050836108c8565b60005b8381106108f35750506000910152565b81810151838201526020016108e3565b6040916020825261092381518092816020860152602086860191016108e0565b601f01601f1916010190565b600435906001600160a01b038216820361094557565b600080fd5b602435906001600160a01b038216820361094557565b3360009081527f15a28d26fa1bf736cf7edc9922607171ccb09c3c73b808e7772a3013e068a52260209081526040808320549092907f9f2df0fed2c77648de5860a4cc508cd0818c85b8b8a1ab4ceeef8d981c8956a69060ff16156109c55750505050565b6109ce336111a3565b8451916109da83610c80565b60428352848301936060368637835115610b625760308553835190600191821015610b625790607860218601536041915b818311610af457505050610ab257610a60938593610a9893610a89604894610aae9951988576020b1b1b2b9b9a1b7b73a3937b61d1030b1b1b7bab73a1604d1b8b9788015282519283916037890191016108e0565b8401917001034b99036b4b9b9b4b733903937b6329607d1b6037840152518093868401906108e0565b01036028810185520183610cb2565b5162461bcd60e51b815291829160048301610903565b0390fd5b60648486519062461bcd60e51b825280600483015260248201527f537472696e67733a20686578206c656e67746820696e73756666696369656e746044820152fd5b909192600f81166010811015610b4e576f181899199a1a9b1b9c1cb0b131b232b360811b901a610b24858861117c565b5360041c928015610b3a57600019019190610a0b565b634e487b7160e01b82526011600452602482fd5b634e487b7160e01b83526032600452602483fd5b634e487b7160e01b81526032600452602490fd5b600081815260209060058252604092838220338352835260ff848320541615610b9f5750505050565b610ba8336111a3565b845191610bb483610c80565b60428352848301936060368637835115610b625760308553835190600191821015610b625790607860218601536041915b818311610c3a57505050610ab257610a60938593610a9893610a89604894610aae9951988576020b1b1b2b9b9a1b7b73a3937b61d1030b1b1b7bab73a1604d1b8b9788015282519283916037890191016108e0565b909192600f81166010811015610b4e576f181899199a1a9b1b9c1cb0b131b232b360811b901a610c6a858861117c565b5360041c928015610b3a57600019019190610be5565b6080810190811067ffffffffffffffff821117610c9c57604052565b634e487b7160e01b600052604160045260246000fd5b90601f8019910116810190811067ffffffffffffffff821117610c9c57604052565b906000918083526005602052604083209160018060a01b03169182845260205260ff604084205416610d0557505050565b8083526005602052604083208284526020526040832060ff1981541690557ff6391f5c32d9c69d2a47ea670b442974b53935d1edc7fd64eb21e047a839171b339380a4565b91908201809211610d5757565b634e487b7160e01b600052601160045260246000fd5b6001600160a01b03908116918215610e885716918215610e3757600082815280602052604081205491808310610de357604082827fddf252ad1be2c89b69c2b068fc378daa952ba7f163c4a11628f55a4df523b3ef958760209652828652038282205586815220818154019055604051908152a3565b60405162461bcd60e51b815260206004820152602660248201527f45524332303a207472616e7366657220616d6f756e7420657863656564732062604482015265616c616e636560d01b6064820152608490fd5b60405162461bcd60e51b815260206004820152602360248201527f45524332303a207472616e7366657220746f20746865207a65726f206164647260448201526265737360e81b6064820152608490fd5b60405162461bcd60e51b815260206004820152602560248201527f45524332303a207472616e736665722066726f6d20746865207a65726f206164604482015264647265737360d81b6064820152608490fd5b6001600160a01b03908116918215610f8c5716918215610f3c5760207f8c5be1e5ebec7d5bd14f71427d1e84f3dd0314c0f7b2291e5b200ac8c7c3b925918360005260018252604060002085600052825280604060002055604051908152a3565b60405162461bcd60e51b815260206004820152602260248201527f45524332303a20617070726f766520746f20746865207a65726f206164647265604482015261737360f01b6064820152608490fd5b60405162461bcd60e51b8152602060048201526024808201527f45524332303a20617070726f76652066726f6d20746865207a65726f206164646044820152637265737360e01b6064820152608490fd5b9060018060a01b0380831660005260016020526040600020908216600052602052604060002054926000198403611015575b50505050565b80841061103057611027930391610edb565b3880808061100f565b60405162461bcd60e51b815260206004820152601d60248201527f45524332303a20696e73756666696369656e7420616c6c6f77616e63650000006044820152606490fd5b6001600160a01b0316801561112d576000918183528260205260408320548181106110dd57817fddf252ad1be2c89b69c2b068fc378daa952ba7f163c4a11628f55a4df523b3ef926020928587528684520360408620558060025403600255604051908152a3565b60405162461bcd60e51b815260206004820152602260248201527f45524332303a206275726e20616d6f756e7420657863656564732062616c616e604482015261636560f01b6064820152608490fd5b60405162461bcd60e51b815260206004820152602160248201527f45524332303a206275726e2066726f6d20746865207a65726f206164647265736044820152607360f81b6064820152608490fd5b90815181101561118d570160200190565b634e487b7160e01b600052603260045260246000fd5b604051906060820182811067ffffffffffffffff821117610c9c57604052602a825260208201604036823782511561118d5760309053815160019081101561118d57607860218401536029905b8082116112445750506112005790565b606460405162461bcd60e51b815260206004820152602060248201527f537472696e67733a20686578206c656e67746820696e73756666696369656e746044820152fd5b9091600f8116601081101561129d576f181899199a1a9b1b9c1cb0b131b232b360811b901a611273848661117c565b5360041c9180156112885760001901906111f0565b60246000634e487b7160e01b81526011600452fd5b60246000634e487b7160e01b81526032600452fd5b600254906a084595161401484a0000006112cc8484610d4a565b11611372576001600160a01b031691821561132d576020816113117fddf252ad1be2c89b69c2b068fc378daa952ba7f163c4a11628f55a4df523b3ef93600095610d4a565b60025584845283825260408420818154019055604051908152a3565b60405162461bcd60e51b815260206004820152601f60248201527f45524332303a206d696e7420746f20746865207a65726f2061646472657373006044820152606490fd5b60405162461bcd60e51b815260206004820152601260248201527145786365656473206d617820737570706c7960701b6044820152606490fdfea2646970667358221220d1b5447413757a428e5890e75352255de76c8664e48124916fadb5d0c384003e64736f6c634300081300332f8788117e7eff1d82e926ec794901d17c78024a50270940304540a733656f0d",
  "linkReferences": {},
  "deployedLinkReferences": {}
}