{"contracts/GrantMindDAO.sol":{"GrantMindDAO":{"abi":[{"inputs":[],"stateMutability":"nonpayable","type":"constructor"},{"anonymous":false,"inputs":[{"indexed":true,"internalType":"uint256","name":"proposalId","type":"uint256"},{"indexed":false,"internalType":"uint256","name":"aiScore","type":"uint256"},{"indexed":true,"internalType":"address","name":"oracle","type":"address"}],"name":"AIScoreSubmitted","type":"event"},{"anonymous":false,"inputs":[{"indexed":true,"internalType":"uint256","name":"proposalId","type":"uint256"},{"indexed":true,"internalType":"address","name":"recipient","type":"address"},{"indexed":false,"internalType":"uint256","name":"amount","type":"uint256"}],"name":"FundsReleased","type":"event"},{"anonymous":false,"inputs":[{"indexed":false,"internalType":"address","name":"account","type":"address"}],"name":"Paused","type":"event"},{"anonymous":false,"inputs":[{"indexed":true,"internalType":"uint256","name":"proposalId","type":"uint256"},{"indexed":true,"internalType":"address","name":"proposer","type":"address"},{"indexed":false,"internalType":"string","name":"title","type":"string"},{"indexed":false,"internalType":"uint256","name":"requestedAmount","type":"uint256"}],"name":"ProposalCreated","type":"event"},{"anonymous":false,"inputs":[{"indexed":true,"internalType":"uint256","name":"proposalId","type":"uint256"},{"indexed":false,"internalType":"enum GrantMindDAO.ProposalStatus","name":"status","type":"uint8"},{"indexed":false,"internalType":"uint256","name":"finalVotesFor","type":"uint256"},{"indexed":false,"internalType":"uint256","name":"finalVotesAgainst","type":"uint256"}],"name":"ProposalFinalized","type":"event"},{"anonymous":false,"inputs":[{"indexed":true,"internalType":"address","name":"member","type":"address"},{"indexed":false,"internalType":"uint256","name":"points","type":"uint256"}],"name":"ReputationAwarded","type":"event"},{"anonymous":false,"inputs":[{"indexed":true,"internalType":"bytes32","name":"role","type":"bytes32"},{"indexed":true,"internalType":"bytes32","name":"previousAdminRole","type":"bytes32"},{"indexed":true,"internalType":"bytes32","name":"newAdminRole","type":"bytes32"}],"name":"RoleAdminChanged","type":"event"},{"anonymous":false,"inputs":[{"indexed":true,"internalType":"bytes32","name":"role","type":"bytes32"},{"indexed":true,"internalType":"address","name":"account","type":"address"},{"indexed":true,"internalType":"address","name":"sender","type":"address"}],"name":"RoleGranted","type":"event"},{"anonymous":false,"inputs":[{"indexed":true,"internalType":"bytes32","name":"role","type":"bytes32"},{"indexed":true,"internalType":"address","name":"account","type":"address"},{"indexed":true,"internalType":"address","name":"sender","type":"address"}],"name":"RoleRevoked","type":"event"},{"anonymous":false,"inputs":[{"indexed":true,"internalType":"address","name":"from","type":"address"},{"indexed":false,"internalType":"uint256","name":"amount","type":"uint256"}],"name":"TreasuryDeposit","type":"event"},{"anonymous":false,"inputs":[{"indexed":false,"internalType":"address","name":"account","type":"address"}],"name":"Unpaused","type":"event"},{"anonymous":false,"inputs":[{"indexed":true,"internalType":"uint256","name":"proposalId","type":"uint256"},{"indexed":true,"internalType":"address","name":"voter","type":"address"},{"indexed":false,"internalType":"bool","name":"support","type":"bool"},{"indexed":false,"internalType":"uint256","name":"votesFor","type":"uint256"},{"indexed":false,"internalType":"uint256","name":"votesAgainst","type":"uint256"}],"name":"VoteCast","type":"event"},{"inputs":[],"name":"AI_ORACLE_ROLE","outputs":[{"internalType":"bytes32","name":"","type":"bytes32"}],"stateMutability":"view","type":"function"},{"inputs":[],"name":"DEFAULT_ADMIN_ROLE","outputs":[{"internalType":"bytes32","name":"","type":"bytes32"}],"stateMutability":"view","type":"function"},{"inputs":[],"name":"EVALUATOR_ROLE","outputs":[{"internalType":"bytes32","name":"","type":"bytes32"}],"stateMutability":"view","type":"function"},{"inputs":[],"name":"MEMBER_ROLE","outputs":[{"internalType":"bytes32","name":"","type":"bytes32"}],"stateMutability":"view","type":"function"},{"inputs":[{"internalType":"address","name":"_oracle","type":"address"}],"name":"addAIOracle","outputs":[],"stateMutability":"nonpayable","type":"function"},{"inputs":[{"internalType":"address","name":"_evaluator","type":"address"}],"name":"addEvaluator","outputs":[],"stateMutability":"nonpayable","type":"function"},{"inputs":[{"internalType":"address","name":"_member","type":"address"}],"name":"addMember","outputs":[],"stateMutability":"nonpayable","type":"function"},{"inputs":[],"name":"approvalThreshold","outputs":[{"internalType":"uint256","name":"","type":"uint256"}],"stateMutability":"view","type":"function"},{"inputs":[{"internalType":"string","name":"_title","type":"string"},{"internalType":"string","name":"_description","type":"string"},{"internalType":"string","name":"_ipfsHash","type":"string"},{"internalType":"uint256","name":"_requestedAmount","type":"uint256"}],"name":"createProposal","outputs":[{"internalType":"uint256","name":"","type":"uint256"}],"stateMutability":"nonpayable","type":"function"},{"inputs":[],"name":"depositToTreasury","outputs":[],"stateMutability":"payable","type":"function"},{"inputs":[{"internalType":"uint256","name":"_proposalId","type":"uint256"}],"name":"finalizeProposal","outputs":[],"stateMutability":"nonpayable","type":"function"},{"inputs":[],"name":"getMemberCount","outputs":[{"internalType":"uint256","name":"","type":"uint256"}],"stateMutability":"view","type":"function"},{"inputs":[{"internalType":"uint256","name":"_proposalId","type":"uint256"}],"name":"getProposal","outputs":[{"internalType":"uint256","name":"id","type":"uint256"},{"internalType":"address","name":"proposer","type":"address"},{"internalType":"string","name":"title","type":"string"},{"internalType":"string","name":"description","type":"string"},{"internalType":"string","name":"ipfsHash","type":"string"},{"internalType":"uint256","name":"requestedAmount","type":"uint256"},{"internalType":"uint256","name":"aiScore","type":"uint256"},{"internalType":"uint256","name":"votesFor","type":"uint256"},{"internalType":"uint256","name":"votesAgainst","type":"uint256"},{"internalType":"uint256","name":"createdAt","type":"uint256"},{"internalType":"uint256","name":"votingEnds","type":"uint256"},{"internalType":"enum GrantMindDAO.ProposalStatus","name":"status","type":"uint8"},{"internalType":"bool","name":"fundsReleased","type":"bool"}],"stateMutability":"view","type":"function"},{"inputs":[{"internalType":"bytes32","name":"role","type":"bytes32"}],"name":"getRoleAdmin","outputs":[{"internalType":"bytes32","name":"","type":"bytes32"}],"stateMutability":"view","type":"function"},{"inputs":[{"internalType":"bytes32","name":"role","type":"bytes32"},{"internalType":"uint256","name":"index","type":"uint256"}],"name":"getRoleMember","outputs":[{"internalType":"address","name":"","type":"address"}],"stateMutability":"view","type":"function"},{"inputs":[{"internalType":"bytes32","name":"role","type":"bytes32"}],"name":"getRoleMemberCount","outputs":[{"internalType":"uint256","name":"","type":"uint256"}],"stateMutability":"view","type":"function"},{"inputs":[{"internalType":"bytes32","name":"role","type":"bytes32"},{"internalType":"address","name":"account","type":"address"}],"name":"grantRole","outputs":[],"stateMutability":"nonpayable","type":"function"},{"inputs":[{"internalType":"bytes32","name":"role","type":"bytes32"},{"internalType":"address","name":"account","type":"address"}],"name":"hasRole","outputs":[{"internalType":"bool","name":"","type":"bool"}],"stateMutability":"view","type":"function"},{"inputs":[{"internalType":"uint256","name":"_proposalId","type":"uint256"},{"internalType":"address","name":"_voter","type":"address"}],"name":"hasVoted","outputs":[{"internalType":"bool","name":"","type":"bool"}],"stateMutability":"view","type":"function"},{"inputs":[{"internalType":"address","name":"","type":"address"}],"name":"memberReputation","outputs":[{"internalType":"uint256","name":"","type":"uint256"}],"stateMutability":"view","type":"function"},{"inputs":[{"internalType":"uint256","name":"","type":"uint256"}],"name":"members","outputs":[{"internalType":"address","name":"","type":"address"}],"stateMutability":"view","type":"function"},{"inputs":[],"name":"minAIScore","outputs":[{"internalType":"uint256","name":"","type":"uint256"}],"stateMutability":"view","type":"function"},{"inputs":[],"name":"pause","outputs":[],"stateMutability":"nonpayable","type":"function"},{"inputs":[],"name":"paused","outputs":[{"internalType":"bool","name":"","type":"bool"}],"stateMutability":"view","type":"function"},{"inputs":[],"name":"proposalCount","outputs":[{"internalType":"uint256","name":"","type":"uint256"}],"stateMutability":"view","type":"function"},{"inputs":[{"internalType":"uint256","name":"","type":"uint256"}],"name":"proposals","outputs":[{"internalType":"uint256","name":"id","type":"uint256"},{"internalType":"address","name":"proposer","type":"address"},{"internalType":"string","name":"title","type":"string"},{"internalType":"string","name":"description","type":"string"},{"internalType":"string","name":"ipfsHash","type":"string"},{"internalType":"uint256","name":"requestedAmount","type":"uint256"},{"internalType":"uint256","name":"aiScore","type":"uint256"},{"internalType":"uint256","name":"votesFor","type":"uint256"},{"internalType":"uint256","name":"votesAgainst","type":"uint256"},{"internalType":"uint256","name":"createdAt","type":"uint256"},{"internalType":"uint256","name":"votingEnds","type":"uint256"},{"internalType":"enum GrantMindDAO.ProposalStatus","name":"status","type":"uint8"},{"internalType":"bool","name":"fundsReleased","type":"bool"}],"stateMutability":"view","type":"function"},{"inputs":[],"name":"quorumPercentage","outputs":[{"internalType":"uint256","name":"","type":"uint256"}],"stateMutability":"view","type":"function"},{"inputs":[{"internalType":"uint256","name":"_proposalId","type":"uint256"}],"name":"releaseFunds","outputs":[],"stateMutability":"nonpayable","type":"function"},{"inputs":[{"internalType":"bytes32","name":"role","type":"bytes32"},{"internalType":"address","name":"account","type":"address"}],"name":"renounceRole","outputs":[],"stateMutability":"nonpayable","type":"function"},{"inputs":[{"internalType":"bytes32","name":"role","type":"bytes32"},{"internalType":"address","name":"account","type":"address"}],"name":"revokeRole","outputs":[],"stateMutability":"nonpayable","type":"function"},{"inputs":[{"internalType":"uint256","name":"_proposalId","type":"uint256"},{"internalType":"uint256","name":"_aiScore","type":"uint256"}],"name":"submitAIScore","outputs":[],"stateMutability":"nonpayable","type":"function"},{"inputs":[{"internalType":"bytes4","name":"interfaceId","type":"bytes4"}],"name":"supportsInterface","outputs":[{"internalType":"bool","name":"","type":"bool"}],"stateMutability":"view","type":"function"},{"inputs":[],"name":"treasuryBalance","outputs":[{"internalType":"uint256","name":"","type":"uint256"}],"stateMutability":"view","type":"function"},{"inputs":[],"name":"unpause","outputs":[],"stateMutability":"nonpayable","type":"function"},{"inputs":[{"internalType":"uint256","name":"_votingPeriod","type":"uint256"},{"internalType":"uint256","name":"_quorumPercentage","type":"uint256"},{"internalType":"uint256","name":"_approvalThreshold","type":"uint256"},{"internalType":"uint256","name":"_minAIScore","type":"uint256"}],"name":"updateVotingParams","outputs":[],"stateMutability":"nonpayable","type":"function"},{"inputs":[{"internalType":"uint256","name":"_proposalId","type":"uint256"},{"internalType":"bool","name":"_support","type":"bool"}],"name":"voteOnProposal","outputs":[],"stateMutability":"nonpayable","type":"function"},{"inputs":[],"name":"votingPeriod","outputs":[{"internalType":"uint256","name":"","type":"uint256"}],"stateMutability":"view","type":"function"},{"stateMutability":"payable","type":"receive"}],"evm":{"bytecode":{"linkReferences":{},"object":"60406080815234620001ba576200010b60018060025560ff19908160035416600355603c60065562093a806007556014600855603c600955600091828052602090838252858420338552825260ff86852054161562000185575b8380528282526200006d33878620620001bf565b507f829b824e2329e205435d941c9f13baf578548505283d29261236d8e6596d4636808552848352868520338652835260ff87862054161562000150575b8452828252620000be33878620620001bf565b507f4848aa3d2c0568bab3ca9720f91818ee0957e95426fa0627cc4809e2e5ed8be090818552848352868520338652835260ff8786205416156200011a575b5083525282339120620001bf565b505161273f90816200024d8239f35b818552848352868520338652835283878620918254161790553333826000805160206200298c8339815191528780a438620000fd565b808552848352868520338652835286852084838254161790553333826000805160206200298c8339815191528880a4620000ab565b838052838252858420338552825285842083828254161790553333856000805160206200298c8339815191528180a462000059565b600080fd5b919060018301600090828252806020526040822054156000146200024657845494680100000000000000008610156200023257600186018082558610156200021e57836040949596828552602085200155549382526020522055600190565b634e487b7160e01b83526032600452602483fd5b634e487b7160e01b83526041600452602483fd5b5092505056fe60806040526004361015610056575b361561001957600080fd5b6100253460055461231d565b6005556040513481527fe3407208b14fa025330ca187030f118a1c0cdb604aba93ba45c862e6095aee2760203392a2005b60003560e01c8063013cf08b14611ae357806301ffc9a714611a7357806302a251a314611a55578063152acc9b14611a375780631614665c146118025780631f93f3b2146117cf578063248a9ca3146117a05780632f2ff15d1461176357806330d0ea3114611728578063313dab201461170a57806336568abe146116785780633f4ba83a146115e4578063409d7a04146115aa578063438596321461155a5780634c15676b1461105b5780634d68282f14610e435780634fa76ec914610e255780635652077c14610bd05780635c975abb14610bad5780635daf08ca14610b84578063718b205814610b215780637d0eef6114610b035780638456cb5914610aa957806388c8deb114610a475780639010d07c14610a0057806391d14854146109b3578063997072f71461095f578063a10f469e14610936578063a217fddf1461091a578063c601f7af146108df578063c7f758a81461081f578063ca15c873146107f3578063ca6d56dc146106cb578063d547741f1461068c578063da35c6641461066e578063eb26e5f0146105825763fd0daa7e0361000e573461057d57604036600319011261057d573360009081527fc1c604b5add75b59252bca1e4e4ec4ab21f3921b1ddcf7a43abe69724bce555d602090815260409091205460249182359160043591907f482648e7878e9fa54c0a2f67ffd22d00ebc37cf7a03e060e428d2ab0cd6735cc9060ff16156103b05750811515806103a4575b61027d90612656565b81600052600a81526040600020600b8101805460ff8116600681101561038f57610353576064861161031957857f51d2496d17ed5e23a805a1927633f24157e7a4a5ef4b46b4dcd7a463907e5bb195969750600684015560065487101560001461030a5750600160ff19825416179055600a6102fb6007544261231d565b9101555b6040519384523393a3005b60ff19166003179055506102ff565b60405162461bcd60e51b81526004810185905260138189015272053636f7265206d75737420626520302d31303606c1b6044820152606490fd5b60405162461bcd60e51b815260048101859052601581890152744e6f7420696e2070656e64696e672073746174757360581b6044820152606490fd5b87634e487b7160e01b60005260216004526000fd5b50600454821115610274565b8492506103bc3361233b565b906040516103c981611bbc565b604281528381019160603684378151156105685760308353815160019081101561055357607860218401536041905b8082116104e55750506104a357604861049f93610474936104839360405195869376020b1b1b2b9b9a1b7b73a3937b61d1030b1b1b7bab73a1604d1b8a86015261044b815180928c603789019101611ca0565b8401917001034b99036b4b9b9b4b733903937b6329607d1b603784015251809386840190611ca0565b01036028810184520182611bd8565b60405193849362461bcd60e51b85526004850152830190611cc3565b0390fd5b606485856040519162461bcd60e51b83528160048401528201527f537472696e67733a20686578206c656e67746820696e73756666696369656e746044820152fd5b9091600f8116601081101561053e576f181899199a1a9b1b9c1cb0b131b232b360811b901a610514848661232a565b5360041c9180156105295760001901906103f8565b87634e487b7160e01b60005260116004526000fd5b88634e487b7160e01b60005260326004526000fd5b86634e487b7160e01b60005260326004526000fd5b85634e487b7160e01b60005260326004526000fd5b600080fd5b3461057d5760208060031936011261057d5761061d9060016105a2611d9b565b916105ab612055565b7f4848aa3d2c0568bab3ca9720f91818ee0957e95426fa0627cc4809e2e5ed8be080600052600082526105e48360406000200154612179565b8060005260008252604060002093838060a01b03169384600052825260ff604060002054161561061f575b60005252604060002061244a565b005b8060005260008252604060002084600052825260406000208360ff198254161790553384827f2f8788117e7eff1d82e926ec794901d17c78024a50270940304540a733656f0d600080a461060f565b3461057d57600036600319011261057d576020600454604051908152f35b3461057d57604036600319011261057d5761061d6004356106ab611d85565b908060005260006020526106c6600160406000200154612179565b612283565b3461057d5760208060031936011261057d576106e5611d9b565b906106ee612055565b60016000805160206126ea8339815191529182600052600081526107188260406000200154612179565b8260005260008152604060002092828060a01b038095169384600052825260ff60406000205416156107a4575b6000525261075781604060002061244a565b50600c54600160401b81101561078e578060016107779201600c55611e14565b909283549160031b92831b921b1916179055600080f35b634e487b7160e01b600052604160045260246000fd5b8060005260008252604060002084600052825260406000208360ff198254161790553384827f2f8788117e7eff1d82e926ec794901d17c78024a50270940304540a733656f0d600080a4610745565b3461057d57602036600319011261057d5760043560005260016020526020604060002054604051908152f35b3461057d57602036600319011261057d57600435801515806108d3575b61084590612656565b600052600a60205260406000208054600160a01b6001900360018301541660058301549160068401549060078501546008860154600987015490600a88015492600b8901549560028a0161089890611bfa565b986108a560038c01611bfa565b9a6004016108b290611bfa565b6040519b8c9b8c9b8b60081c60ff169b60ff169a6108cf9d611cf5565b0390f35b5060045481111561083c565b3461057d57600036600319011261057d5760206040517f482648e7878e9fa54c0a2f67ffd22d00ebc37cf7a03e060e428d2ab0cd6735cc8152f35b3461057d57600036600319011261057d57602060405160008152f35b3461057d57600036600319011261057d5760206040516000805160206126ea8339815191528152f35b3461057d57600036600319011261057d576000805160206126ea833981519152600052600160209081527f1102810968db67ff556ed28b1d46553d94096e4c17b737c9de80193e082e0ad754604051908152f35b3461057d57604036600319011261057d576109cc611d85565b600435600052600060205260406000209060018060a01b0316600052602052602060ff604060002054166040519015158152f35b3461057d57604036600319011261057d5760043560005260016020526020610a2e6024356040600020611e61565b905460405160039290921b1c6001600160a01b03168152f35b3461057d5760208060031936011261057d5761061d906001610a67611d9b565b91610a70612055565b7f482648e7878e9fa54c0a2f67ffd22d00ebc37cf7a03e060e428d2ab0cd6735cc80600052600082526105e48360406000200154612179565b3461057d57600036600319011261057d57610ac2612055565b610aca612612565b600160ff1960035416176003557f62e78cea01bee320cd4e420270b5ea74000d11b0c9f74754ebdbfc544b05a2586020604051338152a1005b3461057d57600036600319011261057d576020600954604051908152f35b600036600319011261057d573415610b3f576100253460055461231d565b60405162461bcd60e51b815260206004820152601860248201527f4d757374206465706f73697420736f6d6520616d6f756e7400000000000000006044820152606490fd5b3461057d57602036600319011261057d57600435600c5481101561057d57610a2e602091611e14565b3461057d57600036600319011261057d57602060ff600354166040519015158152f35b3461057d5760208060031936011261057d5760043590610bee612695565b81151580610e19575b610c0090612656565b81600052600a81526040600020600b81019081549160ff83166006811015610e0357600103610dc757600a8201544210610d8b57600782019260088454930192610c4b84548261231d565b906000805160206126ea833981519152600052600187526040600020549060648302831592848204606414841715610d7557600854610c899161230a565b11159260009215610d15575b5050926060959492827fd28242921a278f46c279fa9a75bad7d95339fe7a5ba2a2c079861eebbd69fa24989560ff9491610d0d575b5015610d005750600282198254161781555b54169254905491610cf06040518095611ce8565b8301526040820152a26001600255005b8219166003178155610cdc565b90508a610cca565b9297949150959492606487029680880460641490151715610d75577fd28242921a278f46c279fa9a75bad7d95339fe7a5ba2a2c079861eebbd69fa2497606097610d6460ff956009549061230a565b111592959850928194969750610c95565b634e487b7160e01b600052601160045260246000fd5b60405162461bcd60e51b8152600481018590526014602482015273566f74696e67207374696c6c206f6e676f696e6760601b6044820152606490fd5b60405162461bcd60e51b81526004810185905260146024820152734e6f7420696e206163746976652073746174757360601b6044820152606490fd5b634e487b7160e01b600052602160045260246000fd5b50600454821115610bf7565b3461057d57600036600319011261057d576020600854604051908152f35b3461057d5760208060031936011261057d57600435610e60612695565b8015158061104f575b610e7290612656565b80600052600a8252604060002090600b820180549260ff84166006811015610e035760020361101b5760ff8460081c16610fdd57600554916101046005830195610ec08754809610156125bf565b61ffff1916179055600554918203918211610d75576001916005550160018060a01b039081815416600052600b85526040600020805490600a8201809211610d7557556000808080858554168854905af13d15610fd8573d610f2181611db1565b90610f2f6040519283611bd8565b81526000873d92013e5b15610fa157917f6e3c6096795c8298a218b2cfb8bde42726ff7c9a3d27b4d3ba41ab7f74feb5fb7f99a3d10b89b07674fcd46bd1678cb120c3c0e2bdd33ab6c1ed9907208907a32194928694541695869354604051908152a3604051600a8152a26001600255005b60405162461bcd60e51b815260048101869052600f60248201526e151c985b9cd9995c8819985a5b1959608a1b6044820152606490fd5b610f39565b60405162461bcd60e51b8152600481018690526016602482015275119d5b991cc8185b1c9958591e481c995b19585cd95960521b6044820152606490fd5b60405162461bcd60e51b815260048101869052600c60248201526b139bdd08185c1c1c9bdd995960a21b6044820152606490fd5b50600454811115610e69565b3461057d57608036600319011261057d5760043567ffffffffffffffff811161057d5761108c903690600401611dcd565b60243567ffffffffffffffff811161057d576110ac903690600401611dcd565b9060443567ffffffffffffffff811161057d576110cd903690600401611dcd565b906110d6611e79565b6110de612612565b60643515611520576110f660055460643511156125bf565b8051156114ea57611108600454612603565b908160045581600052600a602052604060002091825560018201336bffffffffffffffffffffffff60a01b825416179055805167ffffffffffffffff811161078e576111576002840154611b82565b601f81116114a3575b50806020601f82116001146114365760009161142b575b508160011b916000199060031b1c19161760028301555b835167ffffffffffffffff811161078e576111ac6003840154611b82565b601f81116113e4575b50602094601f82116001146113785794819293949560009261136d575b50508160011b916000199060031b1c19161760038301555b8251916004810167ffffffffffffffff841161078e5761120a8154611b82565b94601f8611611325575b602095508590601f86116001146112bc57948091600b95966000926112b1575b50508160011b916000199060031b1c19161790555b60643560058201554260098201550160ff19815416905560045490817f98120a6aaa04295520ab4e01c6c1235dd316e822cc9ff31db7b3f197366d18bd61129b60405193604085526040850190611cc3565b92606435868201528033940390a3604051908152f35b015190508780611234565b90601f1986169183600052876000209260005b81811061130e5750916001939188600b989994106112f5575b505050811b019055611249565b015160001960f88460031b161c191690558780806112e8565b9293896001819287860151815501950193016112cf565b816000526020600020601f860160051c81019660208710611363575b601f0160051c01955b8681106113575750611214565b6000815560010161134a565b9096508690611341565b0151905085806111d2565b601f198216956003850160005260206000209160005b8881106113cc575083600195969798106113b3575b505050811b0160038301556111ea565b015160001960f88460031b161c191690558580806113a3565b9192602060018192868501518155019401920161138e565b600384016000526020600020601f830160051c810160208410611424575b601f830160051c820181106114185750506111b5565b60008155600101611402565b5080611402565b905082015186611177565b91506002840160005260206000206000925b601f198316841061148b576001935082601f19811610611472575b5050811b01600283015561118e565b84015160001960f88460031b161c191690558680611463565b84810151825560209384019360019092019101611448565b600284016000526020600020601f830160051c8101602084106114e3575b601f830160051c820181106114d7575050611160565b600081556001016114c1565b50806114c1565b60405162461bcd60e51b815260206004820152600e60248201526d151a5d1b19481c995c5d5a5c995960921b6044820152606490fd5b60405162461bcd60e51b81526020600482015260126024820152710416d6f756e74206d757374206265203e20360741b6044820152606490fd5b3461057d57604036600319011261057d57611573611d85565b600435600052600a602052600c6040600020019060018060a01b0316600052602052602060ff604060002054166040519015158152f35b3461057d57602036600319011261057d576001600160a01b036115cb611d9b565b16600052600b6020526020604060002054604051908152f35b3461057d57600036600319011261057d576115fd612055565b60035460ff81161561163c5760ff19166003557f5db9ee0a495bf2e6ff9c91a7834c1ba4fdd244a5e8aa4e537bd38aeae4b073aa6020604051338152a1005b60405162461bcd60e51b815260206004820152601460248201527314185d5cd8589b194e881b9bdd081c185d5cd95960621b6044820152606490fd5b3461057d57604036600319011261057d57611691611d85565b336001600160a01b038216036116ad5761061d90600435612283565b60405162461bcd60e51b815260206004820152602f60248201527f416363657373436f6e74726f6c3a2063616e206f6e6c792072656e6f756e636560448201526e103937b632b9903337b91039b2b63360891b6064820152608490fd5b3461057d57600036600319011261057d576020600554604051908152f35b3461057d57600036600319011261057d5760206040517f4848aa3d2c0568bab3ca9720f91818ee0957e95426fa0627cc4809e2e5ed8be08152f35b3461057d57604036600319011261057d5761061d6004356001611784611d85565b9180600052602090600082526105e48360406000200154612179565b3461057d57602036600319011261057d5760043560005260006020526020600160406000200154604051908152f35b3461057d57608036600319011261057d576117e8612055565b600435600755602435600855604435600955606435600655005b3461057d57604036600319011261057d5760248035801515906004359082810361057d5761182e611e79565b611836612612565b81151580611a2b575b61184890612656565b81600052602093600a855260406000209160ff600b840154166006811015611a16576001036119de57600a8301544210156119ab57600c83013360005280875260ff60406000205416611977573360005286526040600020600160ff1982541617905560001461196257600782016118c08154612603565b90555b33600052600b855260406000208054916001830180931161194e57505560086007820154910154906040519384528484015260408301527f77a255f45c79d26605c257d8dfc37f9a619f53963ddbed1e95aa0aab1c801cee60603393a37f99a3d10b89b07674fcd46bd1678cb120c3c0e2bdd33ab6c1ed9907208907a32160405191600183523392a2005b634e487b7160e01b60009081526011600452fd5b600882016119708154612603565b90556118c3565b60405162461bcd60e51b815260048101889052600d818501526c105b1c9958591e481d9bdd1959609a1b6044820152606490fd5b60405162461bcd60e51b815260048101879052600c818401526b159bdd1a5b99c8195b99195960a21b6044820152606490fd5b60405162461bcd60e51b81526004810187905260118184015270566f74696e67206e6f742061637469766560781b6044820152606490fd5b82634e487b7160e01b60005260216004526000fd5b5060045482111561183f565b3461057d57600036600319011261057d576020600654604051908152f35b3461057d57600036600319011261057d576020600754604051908152f35b3461057d57602036600319011261057d5760043563ffffffff60e01b811680910361057d57602090635a05180f60e01b8114908115611ab8575b506040519015158152f35b637965db0b60e01b811491508115611ad2575b5082611aad565b6301ffc9a760e01b14905082611acb565b3461057d57602036600319011261057d576004356000908152600a60205260409020805460018201549091906001600160a01b0316611b2460028301611bfa565b91611b3160038201611bfa565b93611b3e60048301611bfa565b91600581015460068201546007830154600884015491600985015493600a86015495600b0154976040519b8c9b8c9b8b60081c60ff169b60ff169a6108cf9d611cf5565b90600182811c92168015611bb2575b6020831014611b9c57565b634e487b7160e01b600052602260045260246000fd5b91607f1691611b91565b6080810190811067ffffffffffffffff82111761078e57604052565b90601f8019910116810190811067ffffffffffffffff82111761078e57604052565b9060405191826000825492611c0e84611b82565b908184526001948581169081600014611c7d5750600114611c3a575b5050611c3892500383611bd8565b565b9093915060005260209081600020936000915b818310611c65575050611c3893508201013880611c2a565b85548884018501529485019487945091830191611c4d565b915050611c3894506020925060ff191682840152151560051b8201013880611c2a565b60005b838110611cb35750506000910152565b8181015183820152602001611ca3565b90602091611cdc81518092818552858086019101611ca0565b601f01601f1916010190565b906006821015610e035752565b9b97938c969e9d9a96611d4391611d356101809e9a96611d5196611d7e9e9a96855260018060a01b031660208501526101a0806040860152840190611cc3565b916060818403910152611cc3565b8c810360808e015290611cc3565b9b60a08b015260c08a015260e0890152610100880152610120870152610140860152610160850190611ce8565b1515910152565b602435906001600160a01b038216820361057d57565b600435906001600160a01b038216820361057d57565b67ffffffffffffffff811161078e57601f01601f191660200190565b81601f8201121561057d57803590611de482611db1565b92611df26040519485611bd8565b8284526020838301011161057d57816000926020809301838601378301015290565b600c54811015611e4b57600c6000527fdf6966c971051c3d54ec59162606531493a51404a002842f56009d7e5cf4a8c70190600090565b634e487b7160e01b600052603260045260246000fd5b8054821015611e4b5760005260206000200190600090565b3360009081527f30710e496c9a8631e387d1ff5062c226d4ce9c9e008bff1f22ae157290ccbd62602090815260408083205490926000805160206126ea8339815191529160ff1615611ecb5750505050565b611ed43361233b565b91845190611ee182611bbc565b6042825284820192606036853782511561204157603084538251906001918210156120415790607860218501536041915b818311611fd357505050611f9157604861049f938693611f7593611f66985198899376020b1b1b2b9b9a1b7b73a3937b61d1030b1b1b7bab73a1604d1b8a86015261044b815180928c603789019101611ca0565b01036028810187520185611bd8565b5192839262461bcd60e51b845260048401526024830190611cc3565b60648486519062461bcd60e51b825280600483015260248201527f537472696e67733a20686578206c656e67746820696e73756666696369656e746044820152fd5b909192600f8116601081101561202d576f181899199a1a9b1b9c1cb0b131b232b360811b901a612003858761232a565b5360041c92801561201957600019019190611f12565b634e487b7160e01b82526011600452602482fd5b634e487b7160e01b83526032600452602483fd5b634e487b7160e01b81526032600452602490fd5b3360009081527fad3228b676f7d3cd4284a5443f17f1962b36e491b30a40b2405849e597ba5fb5602090815260408083205490929060ff161561209757505050565b6120a03361233b565b90808451906120ae82611bbc565b6042825284820192606036853782511561204157603084538251906001918210156120415790607860218501536041915b81831161213357505050611f9157604861049f938693611f7593611f66985198899376020b1b1b2b9b9a1b7b73a3937b61d1030b1b1b7bab73a1604d1b8a86015261044b815180928c603789019101611ca0565b909192600f8116601081101561202d576f181899199a1a9b1b9c1cb0b131b232b360811b901a612163858761232a565b5360041c928015612019576000190191906120df565b600090808252602090828252604092838120338252835260ff8482205416156121a25750505050565b6121ab3361233b565b918451906121b882611bbc565b6042825284820192606036853782511561204157603084538251906001918210156120415790607860218501536041915b81831161223d57505050611f9157604861049f938693611f7593611f66985198899376020b1b1b2b9b9a1b7b73a3937b61d1030b1b1b7bab73a1604d1b8a86015261044b815180928c603789019101611ca0565b909192600f8116601081101561202d576f181899199a1a9b1b9c1cb0b131b232b360811b901a61226d858761232a565b5360041c928015612019576000190191906121e9565b9060406122c092600090808252816020528282209360018060a01b03169384835260205260ff83832054166122c3575b81526001602052206124cf565b50565b8082528160205282822084835260205282822060ff1981541690553384827ff6391f5c32d9c69d2a47ea670b442974b53935d1edc7fd64eb21e047a839171b8580a46122b3565b81810292918115918404141715610d7557565b91908201809211610d7557565b908151811015611e4b570160200190565b604051906060820182811067ffffffffffffffff82111761078e57604052602a8252602082016040368237825115611e4b57603090538151600190811015611e4b57607860218401536029905b8082116123dc5750506123985790565b606460405162461bcd60e51b815260206004820152602060248201527f537472696e67733a20686578206c656e67746820696e73756666696369656e746044820152fd5b9091600f81166010811015612435576f181899199a1a9b1b9c1cb0b131b232b360811b901a61240b848661232a565b5360041c918015612420576000190190612388565b60246000634e487b7160e01b81526011600452fd5b60246000634e487b7160e01b81526032600452fd5b919060018301600090828252806020526040822054156000146124c957845494600160401b8610156124b557836124a561248e886001604098999a01855584611e61565b819391549060031b91821b91600019901b19161790565b9055549382526020522055600190565b634e487b7160e01b83526041600452602483fd5b50925050565b906001820190600092818452826020526040842054908115156000146125b857600019918083018181116125a4578254908482019182116125905780820361255b575b505050805480156125475782019161252a8383611e61565b909182549160031b1b191690555582526020526040812055600190565b634e487b7160e01b86526031600452602486fd5b61257b61256b61248e9386611e61565b90549060031b1c92839286611e61565b90558652846020526040862055388080612512565b634e487b7160e01b88526011600452602488fd5b634e487b7160e01b87526011600452602487fd5b5050505090565b156125c657565b60405162461bcd60e51b8152602060048201526015602482015274496e73756666696369656e7420747265617375727960581b6044820152606490fd5b6000198114610d755760010190565b60ff6003541661261e57565b60405162461bcd60e51b815260206004820152601060248201526f14185d5cd8589b194e881c185d5cd95960821b6044820152606490fd5b1561265d57565b60405162461bcd60e51b815260206004820152601060248201526f125b9d985b1a59081c1c9bdc1bdcd85b60821b6044820152606490fd5b60028054146126a45760028055565b60405162461bcd60e51b815260206004820152601f60248201527f5265656e7472616e637947756172643a207265656e7472616e742063616c6c006044820152606490fdfe829b824e2329e205435d941c9f13baf578548505283d29261236d8e6596d4636a2646970667358221220d2c3379996bcfc68d4f5ac3c91e5318747d9b0bb2d76e91976aa642f4171476a64736f6c634300081300332f8788117e7eff1d82e926ec794901d17c78024a50270940304540a733656f0d","opcodes":"PUSH1 0x40 PUSH1 0x80 DUP2 MSTORE CALLVALUE PUSH3 0x1BA JUMPI PUSH3 0x10B PUSH1 0x1 DUP1 PUSH1 0x2 SSTORE PUSH1 0xFF NOT SWAP1 DUP2 PUSH1 0x3 SLOAD AND PUSH1 0x3 SSTORE PUSH1 0x3C PUSH1 0x6 SSTORE PUSH3 0x93A80 PUSH1 0x7 SSTORE PUSH1 0x14 PUSH1 0x8 SSTORE PUSH1 0x3C PUSH1 0x9 SSTORE PUSH1 0x0 SWAP2 DUP3 DUP1 MSTORE PUSH1 0x20 SWAP1 DUP4 DUP3 MSTORE DUP6 DUP5 KECCAK256 CALLER DUP6 MSTORE DUP3 MSTORE PUSH1 0xFF DUP7 DUP6 KECCAK256 SLOAD AND ISZERO PUSH3 0x185 JUMPI JUMPDEST DUP4 DUP1 MSTORE DUP3 DUP3 MSTORE PUSH3 0x6D CALLER DUP8 DUP7 KECCAK256 PUSH3 0x1BF JUMP JUMPDEST POP PUSH32 0x829B824E2329E205435D941C9F13BAF578548505283D29261236D8E6596D4636 DUP1 DUP6 MSTORE DUP5 DUP4 MSTORE DUP7 DUP6 KECCAK256 CALLER DUP7 MSTORE DUP4 MSTORE PUSH1 0xFF DUP8 DUP7 KECCAK256 SLOAD AND ISZERO PUSH3 0x150 JUMPI JUMPDEST DUP5 MSTORE DUP3 DUP3 MSTORE PUSH3 0xBE CALLER DUP8 DUP7 KECCAK256 PUSH3 0x1BF JUMP JUMPDEST POP PUSH32 0x4848AA3D2C0568BAB3CA9720F91818EE0957E95426FA0627CC4809E2E5ED8BE0 SWAP1 DUP2 DUP6 MSTORE DUP5 DUP4 MSTORE DUP7 DUP6 KECCAK256 CALLER DUP7 MSTORE DUP4 MSTORE PUSH1 0xFF DUP8 DUP7 KECCAK256 SLOAD AND ISZERO PUSH3 0x11A JUMPI JUMPDEST POP DUP4 MSTORE MSTORE DUP3 CALLER SWAP2 KECCAK256 PUSH3 0x1BF JUMP JUMPDEST POP MLOAD PUSH2 0x273F SWAP1 DUP2 PUSH3 0x24D DUP3 CODECOPY RETURN JUMPDEST DUP2 DUP6 MSTORE DUP5 DUP4 MSTORE DUP7 DUP6 KECCAK256 CALLER DUP7 MSTORE DUP4 MSTORE DUP4 DUP8 DUP7 KECCAK256 SWAP2 DUP3 SLOAD AND OR SWAP1 SSTORE CALLER CALLER DUP3 PUSH1 0x0 DUP1 MLOAD PUSH1 0x20 PUSH3 0x298C DUP4 CODECOPY DUP2 MLOAD SWAP2 MSTORE DUP8 DUP1 LOG4 CODESIZE PUSH3 0xFD JUMP JUMPDEST DUP1 DUP6 MSTORE DUP5 DUP4 MSTORE DUP7 DUP6 KECCAK256 CALLER DUP7 MSTORE DUP4 MSTORE DUP7 DUP6 KECCAK256 DUP5 DUP4 DUP3 SLOAD AND OR SWAP1 SSTORE CALLER CALLER DUP3 PUSH1 0x0 DUP1 MLOAD PUSH1 0x20 PUSH3 0x298C DUP4 CODECOPY DUP2 MLOAD SWAP2 MSTORE DUP9 DUP1 LOG4 PUSH3 0xAB JUMP JUMPDEST DUP4 DUP1 MSTORE DUP4 DUP3 MSTORE DUP6 DUP5 KECCAK256 CALLER DUP6 MSTORE DUP3 MSTORE DUP6 DUP5 KECCAK256 DUP4 DUP3 DUP3 SLOAD AND OR SWAP1 SSTORE CALLER CALLER DUP6 PUSH1 0x0 DUP1 MLOAD PUSH1 0x20 PUSH3 0x298C DUP4 CODECOPY DUP2 MLOAD SWAP2 MSTORE DUP2 DUP1 LOG4 PUSH3 0x59 JUMP JUMPDEST PUSH1 0x0 DUP1 REVERT JUMPDEST SWAP2 SWAP1 PUSH1 0x1 DUP4 ADD PUSH1 0x0 SWAP1 DUP3 DUP3 MSTORE DUP1 PUSH1 0x20 MSTORE PUSH1 0x40 DUP3 KECCAK256 SLOAD ISZERO PUSH1 0x0 EQ PUSH3 0x246 JUMPI DUP5 SLOAD SWAP5 PUSH9 0x10000000000000000 DUP7 LT ISZERO PUSH3 0x232 JUMPI PUSH1 0x1 DUP7 ADD DUP1 DUP3 SSTORE DUP7 LT ISZERO PUSH3 0x21E JUMPI DUP4 PUSH1 0x40 SWAP5 SWAP6 SWAP7 DUP3 DUP6 MSTORE PUSH1 0x20 DUP6 KECCAK256 ADD SSTORE SLOAD SWAP4 DUP3 MSTORE PUSH1 0x20 MSTORE KECCAK256 SSTORE PUSH1 0x1 SWAP1 JUMP JUMPDEST PUSH4 0x4E487B71 PUSH1 0xE0 SHL DUP4 MSTORE PUSH1 0x32 PUSH1 0x4 MSTORE PUSH1 0x24 DUP4 REVERT JUMPDEST PUSH4 0x4E487B71 PUSH1 0xE0 SHL DUP4 MSTORE PUSH1 0x41 PUSH1 0x4 MSTORE PUSH1 0x24 DUP4 REVERT JUMPDEST POP SWAP3 POP POP JUMP INVALID PUSH1 0x80 PUSH1 0x40 MSTORE PUSH1 0x4 CALLDATASIZE LT ISZERO PUSH2 0x56 JUMPI JUMPDEST CALLDATASIZE ISZERO PUSH2 0x19 JUMPI PUSH1 0x0 DUP1 REVERT JUMPDEST PUSH2 0x25 CALLVALUE PUSH1 0x5 SLOAD PUSH2 0x231D JUMP JUMPDEST PUSH1 0x5 SSTORE PUSH1 0x40 MLOAD CALLVALUE DUP2 MSTORE PUSH32 0xE3407208B14FA025330CA187030F118A1C0CDB604ABA93BA45C862E6095AEE27 PUSH1 0x20 CALLER SWAP3 LOG2 STOP JUMPDEST PUSH1 0x0 CALLDATALOAD PUSH1 0xE0 SHR DUP1 PUSH4 0x13CF08B EQ PUSH2 0x1AE3 JUMPI DUP1 PUSH4 0x1FFC9A7 EQ PUSH2 0x1A73 JUMPI DUP1 PUSH4 0x2A251A3 EQ PUSH2 0x1A55 JUMPI DUP1 PUSH4 0x152ACC9B EQ PUSH2 0x1A37 JUMPI DUP1 PUSH4 0x1614665C EQ PUSH2 0x1802 JUMPI DUP1 PUSH4 0x1F93F3B2 EQ PUSH2 0x17CF JUMPI DUP1 PUSH4 0x248A9CA3 EQ PUSH2 0x17A0 JUMPI DUP1 PUSH4 0x2F2FF15D EQ PUSH2 0x1763 JUMPI DUP1 PUSH4 0x30D0EA31 EQ PUSH2 0x1728 JUMPI DUP1 PUSH4 0x313DAB20 EQ PUSH2 0x170A JUMPI DUP1 PUSH4 0x36568ABE EQ PUSH2 0x1678 JUMPI DUP1 PUSH4 0x3F4BA83A EQ PUSH2 0x15E4 JUMPI DUP1 PUSH4 0x409D7A04 EQ PUSH2 0x15AA JUMPI DUP1 PUSH4 0x43859632 EQ PUSH2 0x155A JUMPI DUP1 PUSH4 0x4C15676B EQ PUSH2 0x105B JUMPI DUP1 PUSH4 0x4D68282F EQ PUSH2 0xE43 JUMPI DUP1 PUSH4 0x4FA76EC9 EQ PUSH2 0xE25 JUMPI DUP1 PUSH4 0x5652077C EQ PUSH2 0xBD0 JUMPI DUP1 PUSH4 0x5C975ABB EQ PUSH2 0xBAD JUMPI DUP1 PUSH4 0x5DAF08CA EQ PUSH2 0xB84 JUMPI DUP1 PUSH4 0x718B2058 EQ PUSH2 0xB21 JUMPI DUP1 PUSH4 0x7D0EEF61 EQ PUSH2 0xB03 JUMPI DUP1 PUSH4 0x8456CB59 EQ PUSH2 0xAA9 JUMPI DUP1 PUSH4 0x88C8DEB1 EQ PUSH2 0xA47 JUMPI DUP1 PUSH4 0x9010D07C EQ PUSH2 0xA00 JUMPI DUP1 PUSH4 0x91D14854 EQ PUSH2 0x9B3 JUMPI DUP1 PUSH4 0x997072F7 EQ PUSH2 0x95F JUMPI DUP1 PUSH4 0xA10F469E EQ PUSH2 0x936 JUMPI DUP1 PUSH4 0xA217FDDF EQ PUSH2 0x91A JUMPI DUP1 PUSH4 0xC601F7AF EQ PUSH2 0x8DF JUMPI DUP1 PUSH4 0xC7F758A8 EQ PUSH2 0x81F JUMPI DUP1 PUSH4 0xCA15C873 EQ PUSH2 0x7F3 JUMPI DUP1 PUSH4 0xCA6D56DC EQ PUSH2 0x6CB JUMPI DUP1 PUSH4 0xD547741F EQ PUSH2 0x68C JUMPI DUP1 PUSH4 0xDA35C664 EQ PUSH2 0x66E JUMPI DUP1 PUSH4 0xEB26E5F0 EQ PUSH2 0x582 JUMPI PUSH4 0xFD0DAA7E SUB PUSH2 0xE JUMPI CALLVALUE PUSH2 0x57D JUMPI PUSH1 0x40 CALLDATASIZE PUSH1 0x3 NOT ADD SLT PUSH2 0x57D JUMPI CALLER PUSH1 0x0 SWAP1 DUP2 MSTORE PUSH32 0xC1C604B5ADD75B59252BCA1E4E4EC4AB21F3921B1DDCF7A43ABE69724BCE555D PUSH1 0x20 SWAP1 DUP2 MSTORE PUSH1 0x40 SWAP1 SWAP2 KECCAK256 SLOAD PUSH1 0x24 SWAP2 DUP3 CALLDATALOAD SWAP2 PUSH1 0x4 CALLDATALOAD SWAP2 SWAP1 PUSH32 0x482648E7878E9FA54C0A2F67FFD22D00EBC37CF7A03E060E428D2AB0CD6735CC SWAP1 PUSH1 0xFF AND ISZERO PUSH2 0x3B0 JUMPI POP DUP2 ISZERO ISZERO DUP1 PUSH2 0x3A4 JUMPI JUMPDEST PUSH2 0x27D SWAP1 PUSH2 0x2656 JUMP JUMPDEST DUP2 PUSH1 0x0 MSTORE PUSH1 0xA DUP2 MSTORE PUSH1 0x40 PUSH1 0x0 KECCAK256 PUSH1 0xB DUP2 ADD DUP1 SLOAD PUSH1 0xFF DUP2 AND PUSH1 0x6 DUP2 LT ISZERO PUSH2 0x38F JUMPI PUSH2 0x353 JUMPI PUSH1 0x64 DUP7 GT PUSH2 0x319 JUMPI DUP6 PUSH32 0x51D2496D17ED5E23A805A1927633F24157E7A4A5EF4B46B4DCD7A463907E5BB1 SWAP6 SWAP7 SWAP8 POP PUSH1 0x6 DUP5 ADD SSTORE PUSH1 0x6 SLOAD DUP8 LT ISZERO PUSH1 0x0 EQ PUSH2 0x30A JUMPI POP PUSH1 0x1 PUSH1 0xFF NOT DUP3 SLOAD AND OR SWAP1 SSTORE PUSH1 0xA PUSH2 0x2FB PUSH1 0x7 SLOAD TIMESTAMP PUSH2 0x231D JUMP JUMPDEST SWAP2 ADD SSTORE JUMPDEST PUSH1 0x40 MLOAD SWAP4 DUP5 MSTORE CALLER SWAP4 LOG3 STOP JUMPDEST PUSH1 0xFF NOT AND PUSH1 0x3 OR SWAP1 SSTORE POP PUSH2 0x2FF JUMP JUMPDEST PUSH1 0x40 MLOAD PUSH3 0x461BCD PUSH1 0xE5 SHL DUP2 MSTORE PUSH1 0x4 DUP2 ADD DUP6 SWAP1 MSTORE PUSH1 0x13 DUP2 DUP10 ADD MSTORE PUSH19 0x53636F7265206D75737420626520302D31303 PUSH1 0x6C SHL PUSH1 0x44 DUP3 ADD MSTORE PUSH1 0x64 SWAP1 REVERT JUMPDEST PUSH1 0x40 MLOAD PUSH3 0x461BCD PUSH1 0xE5 SHL DUP2 MSTORE PUSH1 0x4 DUP2 ADD DUP6 SWAP1 MSTORE PUSH1 0x15 DUP2 DUP10 ADD MSTORE PUSH21 0x4E6F7420696E2070656E64696E6720737461747573 PUSH1 0x58 SHL PUSH1 0x44 DUP3 ADD MSTORE PUSH1 0x64 SWAP1 REVERT JUMPDEST DUP8 PUSH4 0x4E487B71 PUSH1 0xE0 SHL PUSH1 0x0 MSTORE PUSH1 0x21 PUSH1 0x4 MSTORE PUSH1 0x0 REVERT JUMPDEST POP PUSH1 0x4 SLOAD DUP3 GT ISZERO PUSH2 0x274 JUMP JUMPDEST DUP5 SWAP3 POP PUSH2 0x3BC CALLER PUSH2 0x233B JUMP JUMPDEST SWAP1 PUSH1 0x40 MLOAD PUSH2 0x3C9 DUP2 PUSH2 0x1BBC JUMP JUMPDEST PUSH1 0x42 DUP2 MSTORE DUP4 DUP2 ADD SWAP2 PUSH1 0x60 CALLDATASIZE DUP5 CALLDATACOPY DUP2 MLOAD ISZERO PUSH2 0x568 JUMPI PUSH1 0x30 DUP4 MSTORE8 DUP2 MLOAD PUSH1 0x1 SWAP1 DUP2 LT ISZERO PUSH2 0x553 JUMPI PUSH1 0x78 PUSH1 0x21 DUP5 ADD MSTORE8 PUSH1 0x41 SWAP1 JUMPDEST DUP1 DUP3 GT PUSH2 0x4E5 JUMPI POP POP PUSH2 0x4A3 JUMPI PUSH1 0x48 PUSH2 0x49F SWAP4 PUSH2 0x474 SWAP4 PUSH2 0x483 SWAP4 PUSH1 0x40 MLOAD SWAP6 DUP7 SWAP4 PUSH23 0x20B1B1B2B9B9A1B7B73A3937B61D1030B1B1B7BAB73A1 PUSH1 0x4D SHL DUP11 DUP7 ADD MSTORE PUSH2 0x44B DUP2 MLOAD DUP1 SWAP3 DUP13 PUSH1 0x37 DUP10 ADD SWAP2 ADD PUSH2 0x1CA0 JUMP JUMPDEST DUP5 ADD SWAP2 PUSH17 0x1034B99036B4B9B9B4B733903937B6329 PUSH1 0x7D SHL PUSH1 0x37 DUP5 ADD MSTORE MLOAD DUP1 SWAP4 DUP7 DUP5 ADD SWAP1 PUSH2 0x1CA0 JUMP JUMPDEST ADD SUB PUSH1 0x28 DUP2 ADD DUP5 MSTORE ADD DUP3 PUSH2 0x1BD8 JUMP JUMPDEST PUSH1 0x40 MLOAD SWAP4 DUP5 SWAP4 PUSH3 0x461BCD PUSH1 0xE5 SHL DUP6 MSTORE PUSH1 0x4 DUP6 ADD MSTORE DUP4 ADD SWAP1 PUSH2 0x1CC3 JUMP JUMPDEST SUB SWAP1 REVERT JUMPDEST PUSH1 0x64 DUP6 DUP6 PUSH1 0x40 MLOAD SWAP2 PUSH3 0x461BCD PUSH1 0xE5 SHL DUP4 MSTORE DUP2 PUSH1 0x4 DUP5 ADD MSTORE DUP3 ADD MSTORE PUSH32 0x537472696E67733A20686578206C656E67746820696E73756666696369656E74 PUSH1 0x44 DUP3 ADD MSTORE REVERT JUMPDEST SWAP1 SWAP2 PUSH1 0xF DUP2 AND PUSH1 0x10 DUP2 LT ISZERO PUSH2 0x53E JUMPI PUSH16 0x181899199A1A9B1B9C1CB0B131B232B3 PUSH1 0x81 SHL SWAP1 BYTE PUSH2 0x514 DUP5 DUP7 PUSH2 0x232A JUMP JUMPDEST MSTORE8 PUSH1 0x4 SHR SWAP2 DUP1 ISZERO PUSH2 0x529 JUMPI PUSH1 0x0 NOT ADD SWAP1 PUSH2 0x3F8 JUMP JUMPDEST DUP8 PUSH4 0x4E487B71 PUSH1 0xE0 SHL PUSH1 0x0 MSTORE PUSH1 0x11 PUSH1 0x4 MSTORE PUSH1 0x0 REVERT JUMPDEST DUP9 PUSH4 0x4E487B71 PUSH1 0xE0 SHL PUSH1 0x0 MSTORE PUSH1 0x32 PUSH1 0x4 MSTORE PUSH1 0x0 REVERT JUMPDEST DUP7 PUSH4 0x4E487B71 PUSH1 0xE0 SHL PUSH1 0x0 MSTORE PUSH1 0x32 PUSH1 0x4 MSTORE PUSH1 0x0 REVERT JUMPDEST DUP6 PUSH4 0x4E487B71 PUSH1 0xE0 SHL PUSH1 0x0 MSTORE PUSH1 0x32 PUSH1 0x4 MSTORE PUSH1 0x0 REVERT JUMPDEST PUSH1 0x0 DUP1 REVERT JUMPDEST CALLVALUE PUSH2 0x57D JUMPI PUSH1 0x20 DUP1 PUSH1 0x3 NOT CALLDATASIZE ADD SLT PUSH2 0x57D JUMPI PUSH2 0x61D SWAP1 PUSH1 0x1 PUSH2 0x5A2 PUSH2 0x1D9B JUMP JUMPDEST SWAP2 PUSH2 0x5AB PUSH2 0x2055 JUMP JUMPDEST PUSH32 0x4848AA3D2C0568BAB3CA9720F91818EE0957E95426FA0627CC4809E2E5ED8BE0 DUP1 PUSH1 0x0 MSTORE PUSH1 0x0 DUP3 MSTORE PUSH2 0x5E4 DUP4 PUSH1 0x40 PUSH1 0x0 KECCAK256 ADD SLOAD PUSH2 0x2179 JUMP JUMPDEST DUP1 PUSH1 0x0 MSTORE PUSH1 0x0 DUP3 MSTORE PUSH1 0x40 PUSH1 0x0 KECCAK256 SWAP4 DUP4 DUP1 PUSH1 0xA0 SHL SUB AND SWAP4 DUP5 PUSH1 0x0 MSTORE DUP3 MSTORE PUSH1 0xFF PUSH1 0x40 PUSH1 0x0 KECCAK256 SLOAD AND ISZERO PUSH2 0x61F JUMPI JUMPDEST PUSH1 0x0 MSTORE MSTORE PUSH1 0x40 PUSH1 0x0 KECCAK256 PUSH2 0x244A JUMP JUMPDEST STOP JUMPDEST DUP1 PUSH1 0x0 MSTORE PUSH1 0x0 DUP3 MSTORE PUSH1 0x40 PUSH1 0x0 KECCAK256 DUP5 PUSH1 0x0 MSTORE DUP3 MSTORE PUSH1 0x40 PUSH1 0x0 KECCAK256 DUP4 PUSH1 0xFF NOT DUP3 SLOAD AND OR SWAP1 SSTORE CALLER DUP5 DUP3 PUSH32 0x2F8788117E7EFF1D82E926EC794901D17C78024A50270940304540A733656F0D PUSH1 0x0 DUP1 LOG4 PUSH2 0x60F JUMP JUMPDEST CALLVALUE PUSH2 0x57D JUMPI PUSH1 0x0 CALLDATASIZE PUSH1 0x3 NOT ADD SLT PUSH2 0x57D JUMPI PUSH1 0x20 PUSH1 0x4 SLOAD PUSH1 0x40 MLOAD SWAP1 DUP2 MSTORE RETURN JUMPDEST CALLVALUE PUSH2 0x57D JUMPI PUSH1 0x40 CALLDATASIZE PUSH1 0x3 NOT ADD SLT PUSH2 0x57D JUMPI PUSH2 0x61D PUSH1 0x4 CALLDATALOAD PUSH2 0x6AB PUSH2 0x1D85 JUMP JUMPDEST SWAP1 DUP1 PUSH1 0x0 MSTORE PUSH1 0x0 PUSH1 0x20 MSTORE PUSH2 0x6C6 PUSH1 0x1 PUSH1 0x40 PUSH1 0x0 KECCAK256 ADD SLOAD PUSH2 0x2179 JUMP JUMPDEST PUSH2 0x2283 JUMP JUMPDEST CALLVALUE PUSH2 0x57D JUMPI PUSH1 0x20 DUP1 PUSH1 0x3 NOT CALLDATASIZE ADD SLT PUSH2 0x57D JUMPI PUSH2 0x6E5 PUSH2 0x1D9B JUMP JUMPDEST SWAP1 PUSH2 0x6EE PUSH2 0x2055 JUMP JUMPDEST PUSH1 0x1 PUSH1 0x0 DUP1 MLOAD PUSH1 0x20 PUSH2 0x26EA DUP4 CODECOPY DUP2 MLOAD SWAP2 MSTORE SWAP2 DUP3 PUSH1 0x0 MSTORE PUSH1 0x0 DUP2 MSTORE PUSH2 0x718 DUP3 PUSH1 0x40 PUSH1 0x0 KECCAK256 ADD SLOAD PUSH2 0x2179 JUMP JUMPDEST DUP3 PUSH1 0x0 MSTORE PUSH1 0x0 DUP2 MSTORE PUSH1 0x40 PUSH1 0x0 KECCAK256 SWAP3 DUP3 DUP1 PUSH1 0xA0 SHL SUB DUP1 SWAP6 AND SWAP4 DUP5 PUSH1 0x0 MSTORE DUP3 MSTORE PUSH1 0xFF PUSH1 0x40 PUSH1 0x0 KECCAK256 SLOAD AND ISZERO PUSH2 0x7A4 JUMPI JUMPDEST PUSH1 0x0 MSTORE MSTORE PUSH2 0x757 DUP2 PUSH1 0x40 PUSH1 0x0 KECCAK256 PUSH2 0x244A JUMP JUMPDEST POP PUSH1 0xC SLOAD PUSH1 0x1 PUSH1 0x40 SHL DUP2 LT ISZERO PUSH2 0x78E JUMPI DUP1 PUSH1 0x1 PUSH2 0x777 SWAP3 ADD PUSH1 0xC SSTORE PUSH2 0x1E14 JUMP JUMPDEST SWAP1 SWAP3 DUP4 SLOAD SWAP2 PUSH1 0x3 SHL SWAP3 DUP4 SHL SWAP3 SHL NOT AND OR SWAP1 SSTORE PUSH1 0x0 DUP1 RETURN JUMPDEST PUSH4 0x4E487B71 PUSH1 0xE0 SHL PUSH1 0x0 MSTORE PUSH1 0x41 PUSH1 0x4 MSTORE PUSH1 0x24 PUSH1 0x0 REVERT JUMPDEST DUP1 PUSH1 0x0 MSTORE PUSH1 0x0 DUP3 MSTORE PUSH1 0x40 PUSH1 0x0 KECCAK256 DUP5 PUSH1 0x0 MSTORE DUP3 MSTORE PUSH1 0x40 PUSH1 0x0 KECCAK256 DUP4 PUSH1 0xFF NOT DUP3 SLOAD AND OR SWAP1 SSTORE CALLER DUP5 DUP3 PUSH32 0x2F8788117E7EFF1D82E926EC794901D17C78024A50270940304540A733656F0D PUSH1 0x0 DUP1 LOG4 PUSH2 0x745 JUMP JUMPDEST CALLVALUE PUSH2 0x57D JUMPI PUSH1 0x20 CALLDATASIZE PUSH1 0x3 NOT ADD SLT PUSH2 0x57D JUMPI PUSH1 0x4 CALLDATALOAD PUSH1 0x0 MSTORE PUSH1 0x1 PUSH1 0x20 MSTORE PUSH1 0x20 PUSH1 0x40 PUSH1 0x0 KECCAK256 SLOAD PUSH1 0x40 MLOAD SWAP1 DUP2 MSTORE RETURN JUMPDEST CALLVALUE PUSH2 0x57D JUMPI PUSH1 0x20 CALLDATASIZE PUSH1 0x3 NOT ADD SLT PUSH2 0x57D JUMPI PUSH1 0x4 CALLDATALOAD DUP1 ISZERO ISZERO DUP1 PUSH2 0x8D3 JUMPI JUMPDEST PUSH2 0x845 SWAP1 PUSH2 0x2656 JUMP JUMPDEST PUSH1 0x0 MSTORE PUSH1 0xA PUSH1 0x20 MSTORE PUSH1 0x40 PUSH1 0x0 KECCAK256 DUP1 SLOAD PUSH1 0x1 PUSH1 0xA0 SHL PUSH1 0x1 SWAP1 SUB PUSH1 0x1 DUP4 ADD SLOAD AND PUSH1 0x5 DUP4 ADD SLOAD SWAP2 PUSH1 0x6 DUP5 ADD SLOAD SWAP1 PUSH1 0x7 DUP6 ADD SLOAD PUSH1 0x8 DUP7 ADD SLOAD PUSH1 0x9 DUP8 ADD SLOAD SWAP1 PUSH1 0xA DUP9 ADD SLOAD SWAP3 PUSH1 0xB DUP10 ADD SLOAD SWAP6 PUSH1 0x2 DUP11 ADD PUSH2 0x898 SWAP1 PUSH2 0x1BFA JUMP JUMPDEST SWAP9 PUSH2 0x8A5 PUSH1 0x3 DUP13 ADD PUSH2 0x1BFA JUMP JUMPDEST SWAP11 PUSH1 0x4 ADD PUSH2 0x8B2 SWAP1 PUSH2 0x1BFA JUMP JUMPDEST PUSH1 0x40 MLOAD SWAP12 DUP13 SWAP12 DUP13 SWAP12 DUP12 PUSH1 0x8 SHR PUSH1 0xFF AND SWAP12 PUSH1 0xFF AND SWAP11 PUSH2 0x8CF SWAP14 PUSH2 0x1CF5 JUMP JUMPDEST SUB SWAP1 RETURN JUMPDEST POP PUSH1 0x4 SLOAD DUP2 GT ISZERO PUSH2 0x83C JUMP JUMPDEST CALLVALUE PUSH2 0x57D JUMPI PUSH1 0x0 CALLDATASIZE PUSH1 0x3 NOT ADD SLT PUSH2 0x57D JUMPI PUSH1 0x20 PUSH1 0x40 MLOAD PUSH32 0x482648E7878E9FA54C0A2F67FFD22D00EBC37CF7A03E060E428D2AB0CD6735CC DUP2 MSTORE RETURN JUMPDEST CALLVALUE PUSH2 0x57D JUMPI PUSH1 0x0 CALLDATASIZE PUSH1 0x3 NOT ADD SLT PUSH2 0x57D JUMPI PUSH1 0x20 PUSH1 0x40 MLOAD PUSH1 0x0 DUP2 MSTORE RETURN JUMPDEST CALLVALUE PUSH2 0x57D JUMPI PUSH1 0x0 CALLDATASIZE PUSH1 0x3 NOT ADD SLT PUSH2 0x57D JUMPI PUSH1 0x20 PUSH1 0x40 MLOAD PUSH1 0x0 DUP1 MLOAD PUSH1 0x20 PUSH2 0x26EA DUP4 CODECOPY DUP2 MLOAD SWAP2 MSTORE DUP2 MSTORE RETURN JUMPDEST CALLVALUE PUSH2 0x57D JUMPI PUSH1 0x0 CALLDATASIZE PUSH1 0x3 NOT ADD SLT PUSH2 0x57D JUMPI PUSH1 0x0 DUP1 MLOAD PUSH1 0x20 PUSH2 0x26EA DUP4 CODECOPY DUP2 MLOAD SWAP2 MSTORE PUSH1 0x0 MSTORE PUSH1 0x1 PUSH1 0x20 SWAP1 DUP2 MSTORE PUSH32 0x1102810968DB67FF556ED28B1D46553D94096E4C17B737C9DE80193E082E0AD7 SLOAD PUSH1 0x40 MLOAD SWAP1 DUP2 MSTORE RETURN JUMPDEST CALLVALUE PUSH2 0x57D JUMPI PUSH1 0x40 CALLDATASIZE PUSH1 0x3 NOT ADD SLT PUSH2 0x57D JUMPI PUSH2 0x9CC PUSH2 0x1D85 JUMP JUMPDEST PUSH1 0x4 CALLDATALOAD PUSH1 0x0 MSTORE PUSH1 0x0 PUSH1 0x20 MSTORE PUSH1 0x40 PUSH1 0x0 KECCAK256 SWAP1 PUSH1 0x1 DUP1 PUSH1 0xA0 SHL SUB AND PUSH1 0x0 MSTORE PUSH1 0x20 MSTORE PUSH1 0x20 PUSH1 0xFF PUSH1 0x40 PUSH1 0x0 KECCAK256 SLOAD AND PUSH1 0x40 MLOAD SWAP1 ISZERO ISZERO DUP2 MSTORE RETURN JUMPDEST CALLVALUE PUSH2 0x57D JUMPI PUSH1 0x40 CALLDATASIZE PUSH1 0x3 NOT ADD SLT PUSH2 0x57D JUMPI PUSH1 0x4 CALLDATALOAD PUSH1 0x0 MSTORE PUSH1 0x1 PUSH1 0x20 MSTORE PUSH1 0x20 PUSH2 0xA2E PUSH1 0x24 CALLDATALOAD PUSH1 0x40 PUSH1 0x0 KECCAK256 PUSH2 0x1E61 JUMP JUMPDEST SWAP1 SLOAD PUSH1 0x40 MLOAD PUSH1 0x3 SWAP3 SWAP1 SWAP3 SHL SHR PUSH1 0x1 PUSH1 0x1 PUSH1 0xA0 SHL SUB AND DUP2 MSTORE RETURN JUMPDEST CALLVALUE PUSH2 0x57D JUMPI PUSH1 0x20 DUP1 PUSH1 0x3 NOT CALLDATASIZE ADD SLT PUSH2 0x57D JUMPI PUSH2 0x61D SWAP1 PUSH1 0x1 PUSH2 0xA67 PUSH2 0x1D9B JUMP JUMPDEST SWAP2 PUSH2 0xA70 PUSH2 0x2055 JUMP JUMPDEST PUSH32 0x482648E7878E9FA54C0A2F67FFD22D00EBC37CF7A03E060E428D2AB0CD6735CC DUP1 PUSH1 0x0 MSTORE PUSH1 0x0 DUP3 MSTORE PUSH2 0x5E4 DUP4 PUSH1 0x40 PUSH1 0x0 KECCAK256 ADD SLOAD PUSH2 0x2179 JUMP JUMPDEST CALLVALUE PUSH2 0x57D JUMPI PUSH1 0x0 CALLDATASIZE PUSH1 0x3 NOT ADD SLT PUSH2 0x57D JUMPI PUSH2 0xAC2 PUSH2 0x2055 JUMP JUMPDEST PUSH2 0xACA PUSH2 0x2612 JUMP JUMPDEST PUSH1 0x1 PUSH1 0xFF NOT PUSH1 0x3 SLOAD AND OR PUSH1 0x3 SSTORE PUSH32 0x62E78CEA01BEE320CD4E420270B5EA74000D11B0C9F74754EBDBFC544B05A258 PUSH1 0x20 PUSH1 0x40 MLOAD CALLER DUP2 MSTORE LOG1 STOP JUMPDEST CALLVALUE PUSH2 0x57D JUMPI PUSH1 0x0 CALLDATASIZE PUSH1 0x3 NOT ADD SLT PUSH2 0x57D JUMPI PUSH1 0x20 PUSH1 0x9 SLOAD PUSH1 0x40 MLOAD SWAP1 DUP2 MSTORE RETURN JUMPDEST PUSH1 0x0 CALLDATASIZE PUSH1 0x3 NOT ADD SLT PUSH2 0x57D JUMPI CALLVALUE ISZERO PUSH2 0xB3F JUMPI PUSH2 0x25 CALLVALUE PUSH1 0x5 SLOAD PUSH2 0x231D JUMP JUMPDEST PUSH1 0x40 MLOAD PUSH3 0x461BCD PUSH1 0xE5 SHL DUP2 MSTORE PUSH1 0x20 PUSH1 0x4 DUP3 ADD MSTORE PUSH1 0x18 PUSH1 0x24 DUP3 ADD MSTORE PUSH32 0x4D757374206465706F73697420736F6D6520616D6F756E740000000000000000 PUSH1 0x44 DUP3 ADD MSTORE PUSH1 0x64 SWAP1 REVERT JUMPDEST CALLVALUE PUSH2 0x57D JUMPI PUSH1 0x20 CALLDATASIZE PUSH1 0x3 NOT ADD SLT PUSH2 0x57D JUMPI PUSH1 0x4 CALLDATALOAD PUSH1 0xC SLOAD DUP2 LT ISZERO PUSH2 0x57D JUMPI PUSH2 0xA2E PUSH1 0x20 SWAP2 PUSH2 0x1E14 JUMP JUMPDEST CALLVALUE PUSH2 0x57D JUMPI PUSH1 0x0 CALLDATASIZE PUSH1 0x3 NOT ADD SLT PUSH2 0x57D JUMPI PUSH1 0x20 PUSH1 0xFF PUSH1 0x3 SLOAD AND PUSH1 0x40 MLOAD SWAP1 ISZERO ISZERO DUP2 MSTORE RETURN JUMPDEST CALLVALUE PUSH2 0x57D JUMPI PUSH1 0x20 DUP1 PUSH1 0x3 NOT CALLDATASIZE ADD SLT PUSH2 0x57D JUMPI PUSH1 0x4 CALLDATALOAD SWAP1 PUSH2 0xBEE PUSH2 0x2695 JUMP JUMPDEST DUP2 ISZERO ISZERO DUP1 PUSH2 0xE19 JUMPI JUMPDEST PUSH2 0xC00 SWAP1 PUSH2 0x2656 JUMP JUMPDEST DUP2 PUSH1 0x0 MSTORE PUSH1 0xA DUP2 MSTORE PUSH1 0x40 PUSH1 0x0 KECCAK256 PUSH1 0xB DUP2 ADD SWAP1 DUP2 SLOAD SWAP2 PUSH1 0xFF DUP4 AND PUSH1 0x6 DUP2 LT ISZERO PUSH2 0xE03 JUMPI PUSH1 0x1 SUB PUSH2 0xDC7 JUMPI PUSH1 0xA DUP3 ADD SLOAD TIMESTAMP LT PUSH2 0xD8B JUMPI PUSH1 0x7 DUP3 ADD SWAP3 PUSH1 0x8 DUP5 SLOAD SWAP4 ADD SWAP3 PUSH2 0xC4B DUP5 SLOAD DUP3 PUSH2 0x231D JUMP JUMPDEST SWAP1 PUSH1 0x0 DUP1 MLOAD PUSH1 0x20 PUSH2 0x26EA DUP4 CODECOPY DUP2 MLOAD SWAP2 MSTORE PUSH1 0x0 MSTORE PUSH1 0x1 DUP8 MSTORE PUSH1 0x40 PUSH1 0x0 KECCAK256 SLOAD SWAP1 PUSH1 0x64 DUP4 MUL DUP4 ISZERO SWAP3 DUP5 DUP3 DIV PUSH1 0x64 EQ DUP5 OR ISZERO PUSH2 0xD75 JUMPI PUSH1 0x8 SLOAD PUSH2 0xC89 SWAP2 PUSH2 0x230A JUMP JUMPDEST GT ISZERO SWAP3 PUSH1 0x0 SWAP3 ISZERO PUSH2 0xD15 JUMPI JUMPDEST POP POP SWAP3 PUSH1 0x60 SWAP6 SWAP5 SWAP3 DUP3 PUSH32 0xD28242921A278F46C279FA9A75BAD7D95339FE7A5BA2A2C079861EEBBD69FA24 SWAP9 SWAP6 PUSH1 0xFF SWAP5 SWAP2 PUSH2 0xD0D JUMPI JUMPDEST POP ISZERO PUSH2 0xD00 JUMPI POP PUSH1 0x2 DUP3 NOT DUP3 SLOAD AND OR DUP2 SSTORE JUMPDEST SLOAD AND SWAP3 SLOAD SWAP1 SLOAD SWAP2 PUSH2 0xCF0 PUSH1 0x40 MLOAD DUP1 SWAP6 PUSH2 0x1CE8 JUMP JUMPDEST DUP4 ADD MSTORE PUSH1 0x40 DUP3 ADD MSTORE LOG2 PUSH1 0x1 PUSH1 0x2 SSTORE STOP JUMPDEST DUP3 NOT AND PUSH1 0x3 OR DUP2 SSTORE PUSH2 0xCDC JUMP JUMPDEST SWAP1 POP DUP11 PUSH2 0xCCA JUMP JUMPDEST SWAP3 SWAP8 SWAP5 SWAP2 POP SWAP6 SWAP5 SWAP3 PUSH1 0x64 DUP8 MUL SWAP7 DUP1 DUP9 DIV PUSH1 0x64 EQ SWAP1 ISZERO OR ISZERO PUSH2 0xD75 JUMPI PUSH32 0xD28242921A278F46C279FA9A75BAD7D95339FE7A5BA2A2C079861EEBBD69FA24 SWAP8 PUSH1 0x60 SWAP8 PUSH2 0xD64 PUSH1 0xFF SWAP6 PUSH1 0x9 SLOAD SWAP1 PUSH2 0x230A JUMP JUMPDEST GT ISZERO SWAP3 SWAP6 SWAP9 POP SWAP3 DUP2 SWAP5 SWAP7 SWAP8 POP PUSH2 0xC95 JUMP JUMPDEST PUSH4 0x4E487B71 PUSH1 0xE0 SHL PUSH1 0x0 MSTORE PUSH1 0x11 PUSH1 0x4 MSTORE PUSH1 0x24 PUSH1 0x0 REVERT JUMPDEST PUSH1 0x40 MLOAD PUSH3 0x461BCD PUSH1 0xE5 SHL DUP2 MSTORE PUSH1 0x4 DUP2 ADD DUP6 SWAP1 MSTORE PUSH1 0x14 PUSH1 0x24 DUP3 ADD MSTORE PUSH20 0x566F74696E67207374696C6C206F6E676F696E67 PUSH1 0x60 SHL PUSH1 0x44 DUP3 ADD MSTORE PUSH1 0x64 SWAP1 REVERT JUMPDEST PUSH1 0x40 MLOAD PUSH3 0x461BCD PUSH1 0xE5 SHL DUP2 MSTORE PUSH1 0x4 DUP2 ADD DUP6 SWAP1 MSTORE PUSH1 0x14 PUSH1 0x24 DUP3 ADD MSTORE PUSH20 0x4E6F7420696E2061637469766520737461747573 PUSH1 0x60 SHL PUSH1 0x44 DUP3 ADD MSTORE PUSH1 0x64 SWAP1 REVERT JUMPDEST PUSH4 0x4E487B71 PUSH1 0xE0 SHL PUSH1 0x0 MSTORE PUSH1 0x21 PUSH1 0x4 MSTORE PUSH1 0x24 PUSH1 0x0 REVERT JUMPDEST POP PUSH1 0x4 SLOAD DUP3 GT ISZERO PUSH2 0xBF7 JUMP JUMPDEST CALLVALUE PUSH2 0x57D JUMPI PUSH1 0x0 CALLDATASIZE PUSH1 0x3 NOT ADD SLT PUSH2 0x57D JUMPI PUSH1 0x20 PUSH1 0x8 SLOAD PUSH1 0x40 MLOAD SWAP1 DUP2 MSTORE RETURN JUMPDEST CALLVALUE PUSH2 0x57D JUMPI PUSH1 0x20 DUP1 PUSH1 0x3 NOT CALLDATASIZE ADD SLT PUSH2 0x57D JUMPI PUSH1 0x4 CALLDATALOAD PUSH2 0xE60 PUSH2 0x2695 JUMP JUMPDEST DUP1 ISZERO ISZERO DUP1 PUSH2 0x104F JUMPI JUMPDEST PUSH2 0xE72 SWAP1 PUSH2 0x2656 JUMP JUMPDEST DUP1 PUSH1 0x0 MSTORE PUSH1 0xA DUP3 MSTORE PUSH1 0x40 PUSH1 0x0 KECCAK256 SWAP1 PUSH1 0xB DUP3 ADD DUP1 SLOAD SWAP3 PUSH1 0xFF DUP5 AND PUSH1 0x6 DUP2 LT ISZERO PUSH2 0xE03 JUMPI PUSH1 0x2 SUB PUSH2 0x101B JUMPI PUSH1 0xFF DUP5 PUSH1 0x8 SHR AND PUSH2 0xFDD JUMPI PUSH1 0x5 SLOAD SWAP2 PUSH2 0x104 PUSH1 0x5 DUP4 ADD SWAP6 PUSH2 0xEC0 DUP8 SLOAD DUP1 SWAP7 LT ISZERO PUSH2 0x25BF JUMP JUMPDEST PUSH2 0xFFFF NOT AND OR SWAP1 SSTORE PUSH1 0x5 SLOAD SWAP2 DUP3 SUB SWAP2 DUP3 GT PUSH2 0xD75 JUMPI PUSH1 0x1 SWAP2 PUSH1 0x5 SSTORE ADD PUSH1 0x1 DUP1 PUSH1 0xA0 SHL SUB SWAP1 DUP2 DUP2 SLOAD AND PUSH1 0x0 MSTORE PUSH1 0xB DUP6 MSTORE PUSH1 0x40 PUSH1 0x0 KECCAK256 DUP1 SLOAD SWAP1 PUSH1 0xA DUP3 ADD DUP1 SWAP3 GT PUSH2 0xD75 JUMPI SSTORE PUSH1 0x0 DUP1 DUP1 DUP1 DUP6 DUP6 SLOAD AND DUP9 SLOAD SWAP1 GAS CALL RETURNDATASIZE ISZERO PUSH2 0xFD8 JUMPI RETURNDATASIZE PUSH2 0xF21 DUP2 PUSH2 0x1DB1 JUMP JUMPDEST SWAP1 PUSH2 0xF2F PUSH1 0x40 MLOAD SWAP3 DUP4 PUSH2 0x1BD8 JUMP JUMPDEST DUP2 MSTORE PUSH1 0x0 DUP8 RETURNDATASIZE SWAP3 ADD RETURNDATACOPY JUMPDEST ISZERO PUSH2 0xFA1 JUMPI SWAP2 PUSH32 0x6E3C6096795C8298A218B2CFB8BDE42726FF7C9A3D27B4D3BA41AB7F74FEB5FB PUSH32 0x99A3D10B89B07674FCD46BD1678CB120C3C0E2BDD33AB6C1ED9907208907A321 SWAP5 SWAP3 DUP7 SWAP5 SLOAD AND SWAP6 DUP7 SWAP4 SLOAD PUSH1 0x40 MLOAD SWAP1 DUP2 MSTORE LOG3 PUSH1 0x40 MLOAD PUSH1 0xA DUP2 MSTORE LOG2 PUSH1 0x1 PUSH1 0x2 SSTORE STOP JUMPDEST PUSH1 0x40 MLOAD PUSH3 0x461BCD PUSH1 0xE5 SHL DUP2 MSTORE PUSH1 0x4 DUP2 ADD DUP7 SWAP1 MSTORE PUSH1 0xF PUSH1 0x24 DUP3 ADD MSTORE PUSH15 0x151C985B9CD9995C8819985A5B1959 PUSH1 0x8A SHL PUSH1 0x44 DUP3 ADD MSTORE PUSH1 0x64 SWAP1 REVERT JUMPDEST PUSH2 0xF39 JUMP JUMPDEST PUSH1 0x40 MLOAD PUSH3 0x461BCD PUSH1 0xE5 SHL DUP2 MSTORE PUSH1 0x4 DUP2 ADD DUP7 SWAP1 MSTORE PUSH1 0x16 PUSH1 0x24 DUP3 ADD MSTORE PUSH22 0x119D5B991CC8185B1C9958591E481C995B19585CD959 PUSH1 0x52 SHL PUSH1 0x44 DUP3 ADD MSTORE PUSH1 0x64 SWAP1 REVERT JUMPDEST PUSH1 0x40 MLOAD PUSH3 0x461BCD PUSH1 0xE5 SHL DUP2 MSTORE PUSH1 0x4 DUP2 ADD DUP7 SWAP1 MSTORE PUSH1 0xC PUSH1 0x24 DUP3 ADD MSTORE PUSH12 0x139BDD08185C1C1C9BDD9959 PUSH1 0xA2 SHL PUSH1 0x44 DUP3 ADD MSTORE PUSH1 0x64 SWAP1 REVERT JUMPDEST POP PUSH1 0x4 SLOAD DUP2 GT ISZERO PUSH2 0xE69 JUMP JUMPDEST CALLVALUE PUSH2 0x57D JUMPI PUSH1 0x80 CALLDATASIZE PUSH1 0x3 NOT ADD SLT PUSH2 0x57D JUMPI PUSH1 0x4 CALLDATALOAD PUSH8 0xFFFFFFFFFFFFFFFF DUP2 GT PUSH2 0x57D JUMPI PUSH2 0x108C SWAP1 CALLDATASIZE SWAP1 PUSH1 0x4 ADD PUSH2 0x1DCD JUMP JUMPDEST PUSH1 0x24 CALLDATALOAD PUSH8 0xFFFFFFFFFFFFFFFF DUP2 GT PUSH2 0x57D JUMPI PUSH2 0x10AC SWAP1 CALLDATASIZE SWAP1 PUSH1 0x4 ADD PUSH2 0x1DCD JUMP JUMPDEST SWAP1 PUSH1 0x44 CALLDATALOAD PUSH8 0xFFFFFFFFFFFFFFFF DUP2 GT PUSH2 0x57D JUMPI PUSH2 0x10CD SWAP1 CALLDATASIZE SWAP1 PUSH1 0x4 ADD PUSH2 0x1DCD JUMP JUMPDEST SWAP1 PUSH2 0x10D6 PUSH2 0x1E79 JUMP JUMPDEST PUSH2 0x10DE PUSH2 0x2612 JUMP JUMPDEST PUSH1 0x64 CALLDATALOAD ISZERO PUSH2 0x1520 JUMPI PUSH2 0x10F6 PUSH1 0x5 SLOAD PUSH1 0x64 CALLDATALOAD GT ISZERO PUSH2 0x25BF JUMP JUMPDEST DUP1 MLOAD ISZERO PUSH2 0x14EA JUMPI PUSH2 0x1108 PUSH1 0x4 SLOAD PUSH2 0x2603 JUMP JUMPDEST SWAP1 DUP2 PUSH1 0x4 SSTORE DUP2 PUSH1 0x0 MSTORE PUSH1 0xA PUSH1 0x20 MSTORE PUSH1 0x40 PUSH1 0x0 KECCAK256 SWAP2 DUP3 SSTORE PUSH1 0x1 DUP3 ADD CALLER PUSH12 0xFFFFFFFFFFFFFFFFFFFFFFFF PUSH1 0xA0 SHL DUP3 SLOAD AND OR SWAP1 SSTORE DUP1 MLOAD PUSH8 0xFFFFFFFFFFFFFFFF DUP2 GT PUSH2 0x78E JUMPI PUSH2 0x1157 PUSH1 0x2 DUP5 ADD SLOAD PUSH2 0x1B82 JUMP JUMPDEST PUSH1 0x1F DUP2 GT PUSH2 0x14A3 JUMPI JUMPDEST POP DUP1 PUSH1 0x20 PUSH1 0x1F DUP3 GT PUSH1 0x1 EQ PUSH2 0x1436 JUMPI PUSH1 0x0 SWAP2 PUSH2 0x142B JUMPI JUMPDEST POP DUP2 PUSH1 0x1 SHL SWAP2 PUSH1 0x0 NOT SWAP1 PUSH1 0x3 SHL SHR NOT AND OR PUSH1 0x2 DUP4 ADD SSTORE JUMPDEST DUP4 MLOAD PUSH8 0xFFFFFFFFFFFFFFFF DUP2 GT PUSH2 0x78E JUMPI PUSH2 0x11AC PUSH1 0x3 DUP5 ADD SLOAD PUSH2 0x1B82 JUMP JUMPDEST PUSH1 0x1F DUP2 GT PUSH2 0x13E4 JUMPI JUMPDEST POP PUSH1 0x20 SWAP5 PUSH1 0x1F DUP3 GT PUSH1 0x1 EQ PUSH2 0x1378 JUMPI SWAP5 DUP2 SWAP3 SWAP4 SWAP5 SWAP6 PUSH1 0x0 SWAP3 PUSH2 0x136D JUMPI JUMPDEST POP POP DUP2 PUSH1 0x1 SHL SWAP2 PUSH1 0x0 NOT SWAP1 PUSH1 0x3 SHL SHR NOT AND OR PUSH1 0x3 DUP4 ADD SSTORE JUMPDEST DUP3 MLOAD SWAP2 PUSH1 0x4 DUP2 ADD PUSH8 0xFFFFFFFFFFFFFFFF DUP5 GT PUSH2 0x78E JUMPI PUSH2 0x120A DUP2 SLOAD PUSH2 0x1B82 JUMP JUMPDEST SWAP5 PUSH1 0x1F DUP7 GT PUSH2 0x1325 JUMPI JUMPDEST PUSH1 0x20 SWAP6 POP DUP6 SWAP1 PUSH1 0x1F DUP7 GT PUSH1 0x1 EQ PUSH2 0x12BC JUMPI SWAP5 DUP1 SWAP2 PUSH1 0xB SWAP6 SWAP7 PUSH1 0x0 SWAP3 PUSH2 0x12B1 JUMPI JUMPDEST POP POP DUP2 PUSH1 0x1 SHL SWAP2 PUSH1 0x0 NOT SWAP1 PUSH1 0x3 SHL SHR NOT AND OR SWAP1 SSTORE JUMPDEST PUSH1 0x64 CALLDATALOAD PUSH1 0x5 DUP3 ADD SSTORE TIMESTAMP PUSH1 0x9 DUP3 ADD SSTORE ADD PUSH1 0xFF NOT DUP2 SLOAD AND SWAP1 SSTORE PUSH1 0x4 SLOAD SWAP1 DUP2 PUSH32 0x98120A6AAA04295520AB4E01C6C1235DD316E822CC9FF31DB7B3F197366D18BD PUSH2 0x129B PUSH1 0x40 MLOAD SWAP4 PUSH1 0x40 DUP6 MSTORE PUSH1 0x40 DUP6 ADD SWAP1 PUSH2 0x1CC3 JUMP JUMPDEST SWAP3 PUSH1 0x64 CALLDATALOAD DUP7 DUP3 ADD MSTORE DUP1 CALLER SWAP5 SUB SWAP1 LOG3 PUSH1 0x40 MLOAD SWAP1 DUP2 MSTORE RETURN JUMPDEST ADD MLOAD SWAP1 POP DUP8 DUP1 PUSH2 0x1234 JUMP JUMPDEST SWAP1 PUSH1 0x1F NOT DUP7 AND SWAP2 DUP4 PUSH1 0x0 MSTORE DUP8 PUSH1 0x0 KECCAK256 SWAP3 PUSH1 0x0 JUMPDEST DUP2 DUP2 LT PUSH2 0x130E JUMPI POP SWAP2 PUSH1 0x1 SWAP4 SWAP2 DUP9 PUSH1 0xB SWAP9 SWAP10 SWAP5 LT PUSH2 0x12F5 JUMPI JUMPDEST POP POP POP DUP2 SHL ADD SWAP1 SSTORE PUSH2 0x1249 JUMP JUMPDEST ADD MLOAD PUSH1 0x0 NOT PUSH1 0xF8 DUP5 PUSH1 0x3 SHL AND SHR NOT AND SWAP1 SSTORE DUP8 DUP1 DUP1 PUSH2 0x12E8 JUMP JUMPDEST SWAP3 SWAP4 DUP10 PUSH1 0x1 DUP2 SWAP3 DUP8 DUP7 ADD MLOAD DUP2 SSTORE ADD SWAP6 ADD SWAP4 ADD PUSH2 0x12CF JUMP JUMPDEST DUP2 PUSH1 0x0 MSTORE PUSH1 0x20 PUSH1 0x0 KECCAK256 PUSH1 0x1F DUP7 ADD PUSH1 0x5 SHR DUP2 ADD SWAP7 PUSH1 0x20 DUP8 LT PUSH2 0x1363 JUMPI JUMPDEST PUSH1 0x1F ADD PUSH1 0x5 SHR ADD SWAP6 JUMPDEST DUP7 DUP2 LT PUSH2 0x1357 JUMPI POP PUSH2 0x1214 JUMP JUMPDEST PUSH1 0x0 DUP2 SSTORE PUSH1 0x1 ADD PUSH2 0x134A JUMP JUMPDEST SWAP1 SWAP7 POP DUP7 SWAP1 PUSH2 0x1341 JUMP JUMPDEST ADD MLOAD SWAP1 POP DUP6 DUP1 PUSH2 0x11D2 JUMP JUMPDEST PUSH1 0x1F NOT DUP3 AND SWAP6 PUSH1 0x3 DUP6 ADD PUSH1 0x0 MSTORE PUSH1 0x20 PUSH1 0x0 KECCAK256 SWAP2 PUSH1 0x0 JUMPDEST DUP9 DUP2 LT PUSH2 0x13CC JUMPI POP DUP4 PUSH1 0x1 SWAP6 SWAP7 SWAP8 SWAP9 LT PUSH2 0x13B3 JUMPI JUMPDEST POP POP POP DUP2 SHL ADD PUSH1 0x3 DUP4 ADD SSTORE PUSH2 0x11EA JUMP JUMPDEST ADD MLOAD PUSH1 0x0 NOT PUSH1 0xF8 DUP5 PUSH1 0x3 SHL AND SHR NOT AND SWAP1 SSTORE DUP6 DUP1 DUP1 PUSH2 0x13A3 JUMP JUMPDEST SWAP2 SWAP3 PUSH1 0x20 PUSH1 0x1 DUP2 SWAP3 DUP7 DUP6 ADD MLOAD DUP2 SSTORE ADD SWAP5 ADD SWAP3 ADD PUSH2 0x138E JUMP JUMPDEST PUSH1 0x3 DUP5 ADD PUSH1 0x0 MSTORE PUSH1 0x20 PUSH1 0x0 KECCAK256 PUSH1 0x1F DUP4 ADD PUSH1 0x5 SHR DUP2 ADD PUSH1 0x20 DUP5 LT PUSH2 0x1424 JUMPI JUMPDEST PUSH1 0x1F DUP4 ADD PUSH1 0x5 SHR DUP3 ADD DUP2 LT PUSH2 0x1418 JUMPI POP POP PUSH2 0x11B5 JUMP JUMPDEST PUSH1 0x0 DUP2 SSTORE PUSH1 0x1 ADD PUSH2 0x1402 JUMP JUMPDEST POP DUP1 PUSH2 0x1402 JUMP JUMPDEST SWAP1 POP DUP3 ADD MLOAD DUP7 PUSH2 0x1177 JUMP JUMPDEST SWAP2 POP PUSH1 0x2 DUP5 ADD PUSH1 0x0 MSTORE PUSH1 0x20 PUSH1 0x0 KECCAK256 PUSH1 0x0 SWAP3 JUMPDEST PUSH1 0x1F NOT DUP4 AND DUP5 LT PUSH2 0x148B JUMPI PUSH1 0x1 SWAP4 POP DUP3 PUSH1 0x1F NOT DUP2 AND LT PUSH2 0x1472 JUMPI JUMPDEST POP POP DUP2 SHL ADD PUSH1 0x2 DUP4 ADD SSTORE PUSH2 0x118E JUMP JUMPDEST DUP5 ADD MLOAD PUSH1 0x0 NOT PUSH1 0xF8 DUP5 PUSH1 0x3 SHL AND SHR NOT AND SWAP1 SSTORE DUP7 DUP1 PUSH2 0x1463 JUMP JUMPDEST DUP5 DUP2 ADD MLOAD DUP3 SSTORE PUSH1 0x20 SWAP4 DUP5 ADD SWAP4 PUSH1 0x1 SWAP1 SWAP3 ADD SWAP2 ADD PUSH2 0x1448 JUMP JUMPDEST PUSH1 0x2 DUP5 ADD PUSH1 0x0 MSTORE PUSH1 0x20 PUSH1 0x0 KECCAK256 PUSH1 0x1F DUP4 ADD PUSH1 0x5 SHR DUP2 ADD PUSH1 0x20 DUP5 LT PUSH2 0x14E3 JUMPI JUMPDEST PUSH1 0x1F DUP4 ADD PUSH1 0x5 SHR DUP3 ADD DUP2 LT PUSH2 0x14D7 JUMPI POP POP PUSH2 0x1160 JUMP JUMPDEST PUSH1 0x0 DUP2 SSTORE PUSH1 0x1 ADD PUSH2 0x14C1 JUMP JUMPDEST POP DUP1 PUSH2 0x14C1 JUMP JUMPDEST PUSH1 0x40 MLOAD PUSH3 0x461BCD PUSH1 0xE5 SHL DUP2 MSTORE PUSH1 0x20 PUSH1 0x4 DUP3 ADD MSTORE PUSH1 0xE PUSH1 0x24 DUP3 ADD MSTORE PUSH14 0x151A5D1B19481C995C5D5A5C9959 PUSH1 0x92 SHL PUSH1 0x44 DUP3 ADD MSTORE PUSH1 0x64 SWAP1 REVERT JUMPDEST PUSH1 0x40 MLOAD PUSH3 0x461BCD PUSH1 0xE5 SHL DUP2 MSTORE PUSH1 0x20 PUSH1 0x4 DUP3 ADD MSTORE PUSH1 0x12 PUSH1 0x24 DUP3 ADD MSTORE PUSH18 0x416D6F756E74206D757374206265203E203 PUSH1 0x74 SHL PUSH1 0x44 DUP3 ADD MSTORE PUSH1 0x64 SWAP1 REVERT JUMPDEST CALLVALUE PUSH2 0x57D JUMPI PUSH1 0x40 CALLDATASIZE PUSH1 0x3 NOT ADD SLT PUSH2 0x57D JUMPI PUSH2 0x1573 PUSH2 0x1D85 JUMP JUMPDEST PUSH1 0x4 CALLDATALOAD PUSH1 0x0 MSTORE PUSH1 0xA PUSH1 0x20 MSTORE PUSH1 0xC PUSH1 0x40 PUSH1 0x0 KECCAK256 ADD SWAP1 PUSH1 0x1 DUP1 PUSH1 0xA0 SHL SUB AND PUSH1 0x0 MSTORE PUSH1 0x20 MSTORE PUSH1 0x20 PUSH1 0xFF PUSH1 0x40 PUSH1 0x0 KECCAK256 SLOAD AND PUSH1 0x40 MLOAD SWAP1 ISZERO ISZERO DUP2 MSTORE RETURN JUMPDEST CALLVALUE PUSH2 0x57D JUMPI PUSH1 0x20 CALLDATASIZE PUSH1 0x3 NOT ADD SLT PUSH2 0x57D JUMPI PUSH1 0x1 PUSH1 0x1 PUSH1 0xA0 SHL SUB PUSH2 0x15CB PUSH2 0x1D9B JUMP JUMPDEST AND PUSH1 0x0 MSTORE PUSH1 0xB PUSH1 0x20 MSTORE PUSH1 0x20 PUSH1 0x40 PUSH1 0x0 KECCAK256 SLOAD PUSH1 0x40 MLOAD SWAP1 DUP2 MSTORE RETURN JUMPDEST CALLVALUE PUSH2 0x57D JUMPI PUSH1 0x0 CALLDATASIZE PUSH1 0x3 NOT ADD SLT PUSH2 0x57D JUMPI PUSH2 0x15FD PUSH2 0x2055 JUMP JUMPDEST PUSH1 0x3 SLOAD PUSH1 0xFF DUP2 AND ISZERO PUSH2 0x163C JUMPI PUSH1 0xFF NOT AND PUSH1 0x3 SSTORE PUSH32 0x5DB9EE0A495BF2E6FF9C91A7834C1BA4FDD244A5E8AA4E537BD38AEAE4B073AA PUSH1 0x20 PUSH1 0x40 MLOAD CALLER DUP2 MSTORE LOG1 STOP JUMPDEST PUSH1 0x40 MLOAD PUSH3 0x461BCD PUSH1 0xE5 SHL DUP2 MSTORE PUSH1 0x20 PUSH1 0x4 DUP3 ADD MSTORE PUSH1 0x14 PUSH1 0x24 DUP3 ADD MSTORE PUSH20 0x14185D5CD8589B194E881B9BDD081C185D5CD959 PUSH1 0x62 SHL PUSH1 0x44 DUP3 ADD MSTORE PUSH1 0x64 SWAP1 REVERT JUMPDEST CALLVALUE PUSH2 0x57D JUMPI PUSH1 0x40 CALLDATASIZE PUSH1 0x3 NOT ADD SLT PUSH2 0x57D JUMPI PUSH2 0x1691 PUSH2 0x1D85 JUMP JUMPDEST CALLER PUSH1 0x1 PUSH1 0x1 PUSH1 0xA0 SHL SUB DUP3 AND SUB PUSH2 0x16AD JUMPI PUSH2 0x61D SWAP1 PUSH1 0x4 CALLDATALOAD PUSH2 0x2283 JUMP JUMPDEST PUSH1 0x40 MLOAD PUSH3 0x461BCD PUSH1 0xE5 SHL DUP2 MSTORE PUSH1 0x20 PUSH1 0x4 DUP3 ADD MSTORE PUSH1 0x2F PUSH1 0x24 DUP3 ADD MSTORE PUSH32 0x416363657373436F6E74726F6C3A2063616E206F6E6C792072656E6F756E6365 PUSH1 0x44 DUP3 ADD MSTORE PUSH15 0x103937B632B9903337B91039B2B633 PUSH1 0x89 SHL PUSH1 0x64 DUP3 ADD MSTORE PUSH1 0x84 SWAP1 REVERT JUMPDEST CALLVALUE PUSH2 0x57D JUMPI PUSH1 0x0 CALLDATASIZE PUSH1 0x3 NOT ADD SLT PUSH2 0x57D JUMPI PUSH1 0x20 PUSH1 0x5 SLOAD PUSH1 0x40 MLOAD SWAP1 DUP2 MSTORE RETURN JUMPDEST CALLVALUE PUSH2 0x57D JUMPI PUSH1 0x0 CALLDATASIZE PUSH1 0x3 NOT ADD SLT PUSH2 0x57D JUMPI PUSH1 0x20 PUSH1 0x40 MLOAD PUSH32 0x4848AA3D2C0568BAB3CA9720F91818EE0957E95426FA0627CC4809E2E5ED8BE0 DUP2 MSTORE RETURN JUMPDEST CALLVALUE PUSH2 0x57D JUMPI PUSH1 0x40 CALLDATASIZE PUSH1 0x3 NOT ADD SLT PUSH2 0x57D JUMPI PUSH2 0x61D PUSH1 0x4 CALLDATALOAD PUSH1 0x1 PUSH2 0x1784 PUSH2 0x1D85 JUMP JUMPDEST SWAP2 DUP1 PUSH1 0x0 MSTORE PUSH1 0x20 SWAP1 PUSH1 0x0 DUP3 MSTORE PUSH2 0x5E4 DUP4 PUSH1 0x40 PUSH1 0x0 KECCAK256 ADD SLOAD PUSH2 0x2179 JUMP JUMPDEST CALLVALUE PUSH2 0x57D JUMPI PUSH1 0x20 CALLDATASIZE PUSH1 0x3 NOT ADD SLT PUSH2 0x57D JUMPI PUSH1 0x4 CALLDATALOAD PUSH1 0x0 MSTORE PUSH1 0x0 PUSH1 0x20 MSTORE PUSH1 0x20 PUSH1 0x1 PUSH1 0x40 PUSH1 0x0 KECCAK256 ADD SLOAD PUSH1 0x40 MLOAD SWAP1 DUP2 MSTORE RETURN JUMPDEST CALLVALUE PUSH2 0x57D JUMPI PUSH1 0x80 CALLDATASIZE PUSH1 0x3 NOT ADD SLT PUSH2 0x57D JUMPI PUSH2 0x17E8 PUSH2 0x2055 JUMP JUMPDEST PUSH1 0x4 CALLDATALOAD PUSH1 0x7 SSTORE PUSH1 0x24 CALLDATALOAD PUSH1 0x8 SSTORE PUSH1 0x44 CALLDATALOAD PUSH1 0x9 SSTORE PUSH1 0x64 CALLDATALOAD PUSH1 0x6 SSTORE STOP JUMPDEST CALLVALUE PUSH2 0x57D JUMPI PUSH1 0x40 CALLDATASIZE PUSH1 0x3 NOT ADD SLT PUSH2 0x57D JUMPI PUSH1 0x24 DUP1 CALLDATALOAD DUP1 ISZERO ISZERO SWAP1 PUSH1 0x4 CALLDATALOAD SWAP1 DUP3 DUP2 SUB PUSH2 0x57D JUMPI PUSH2 0x182E PUSH2 0x1E79 JUMP JUMPDEST PUSH2 0x1836 PUSH2 0x2612 JUMP JUMPDEST DUP2 ISZERO ISZERO DUP1 PUSH2 0x1A2B JUMPI JUMPDEST PUSH2 0x1848 SWAP1 PUSH2 0x2656 JUMP JUMPDEST DUP2 PUSH1 0x0 MSTORE PUSH1 0x20 SWAP4 PUSH1 0xA DUP6 MSTORE PUSH1 0x40 PUSH1 0x0 KECCAK256 SWAP2 PUSH1 0xFF PUSH1 0xB DUP5 ADD SLOAD AND PUSH1 0x6 DUP2 LT ISZERO PUSH2 0x1A16 JUMPI PUSH1 0x1 SUB PUSH2 0x19DE JUMPI PUSH1 0xA DUP4 ADD SLOAD TIMESTAMP LT ISZERO PUSH2 0x19AB JUMPI PUSH1 0xC DUP4 ADD CALLER PUSH1 0x0 MSTORE DUP1 DUP8 MSTORE PUSH1 0xFF PUSH1 0x40 PUSH1 0x0 KECCAK256 SLOAD AND PUSH2 0x1977 JUMPI CALLER PUSH1 0x0 MSTORE DUP7 MSTORE PUSH1 0x40 PUSH1 0x0 KECCAK256 PUSH1 0x1 PUSH1 0xFF NOT DUP3 SLOAD AND OR SWAP1 SSTORE PUSH1 0x0 EQ PUSH2 0x1962 JUMPI PUSH1 0x7 DUP3 ADD PUSH2 0x18C0 DUP2 SLOAD PUSH2 0x2603 JUMP JUMPDEST SWAP1 SSTORE JUMPDEST CALLER PUSH1 0x0 MSTORE PUSH1 0xB DUP6 MSTORE PUSH1 0x40 PUSH1 0x0 KECCAK256 DUP1 SLOAD SWAP2 PUSH1 0x1 DUP4 ADD DUP1 SWAP4 GT PUSH2 0x194E JUMPI POP SSTORE PUSH1 0x8 PUSH1 0x7 DUP3 ADD SLOAD SWAP2 ADD SLOAD SWAP1 PUSH1 0x40 MLOAD SWAP4 DUP5 MSTORE DUP5 DUP5 ADD MSTORE PUSH1 0x40 DUP4 ADD MSTORE PUSH32 0x77A255F45C79D26605C257D8DFC37F9A619F53963DDBED1E95AA0AAB1C801CEE PUSH1 0x60 CALLER SWAP4 LOG3 PUSH32 0x99A3D10B89B07674FCD46BD1678CB120C3C0E2BDD33AB6C1ED9907208907A321 PUSH1 0x40 MLOAD SWAP2 PUSH1 0x1 DUP4 MSTORE CALLER SWAP3 LOG2 STOP JUMPDEST PUSH4 0x4E487B71 PUSH1 0xE0 SHL PUSH1 0x0 SWAP1 DUP2 MSTORE PUSH1 0x11 PUSH1 0x4 MSTORE REVERT JUMPDEST PUSH1 0x8 DUP3 ADD PUSH2 0x1970 DUP2 SLOAD PUSH2 0x2603 JUMP JUMPDEST SWAP1 SSTORE PUSH2 0x18C3 JUMP JUMPDEST PUSH1 0x40 MLOAD PUSH3 0x461BCD PUSH1 0xE5 SHL DUP2 MSTORE PUSH1 0x4 DUP2 ADD DUP9 SWAP1 MSTORE PUSH1 0xD DUP2 DUP6 ADD MSTORE PUSH13 0x105B1C9958591E481D9BDD1959 PUSH1 0x9A SHL PUSH1 0x44 DUP3 ADD MSTORE PUSH1 0x64 SWAP1 REVERT JUMPDEST PUSH1 0x40 MLOAD PUSH3 0x461BCD PUSH1 0xE5 SHL DUP2 MSTORE PUSH1 0x4 DUP2 ADD DUP8 SWAP1 MSTORE PUSH1 0xC DUP2 DUP5 ADD MSTORE PUSH12 0x159BDD1A5B99C8195B991959 PUSH1 0xA2 SHL PUSH1 0x44 DUP3 ADD MSTORE PUSH1 0x64 SWAP1 REVERT JUMPDEST PUSH1 0x40 MLOAD PUSH3 0x461BCD PUSH1 0xE5 SHL DUP2 MSTORE PUSH1 0x4 DUP2 ADD DUP8 SWAP1 MSTORE PUSH1 0x11 DUP2 DUP5 ADD MSTORE PUSH17 0x566F74696E67206E6F7420616374697665 PUSH1 0x78 SHL PUSH1 0x44 DUP3 ADD MSTORE PUSH1 0x64 SWAP1 REVERT JUMPDEST DUP3 PUSH4 0x4E487B71 PUSH1 0xE0 SHL PUSH1 0x0 MSTORE PUSH1 0x21 PUSH1 0x4 MSTORE PUSH1 0x0 REVERT JUMPDEST POP PUSH1 0x4 SLOAD DUP3 GT ISZERO PUSH2 0x183F JUMP JUMPDEST CALLVALUE PUSH2 0x57D JUMPI PUSH1 0x0 CALLDATASIZE PUSH1 0x3 NOT ADD SLT PUSH2 0x57D JUMPI PUSH1 0x20 PUSH1 0x6 SLOAD PUSH1 0x40 MLOAD SWAP1 DUP2 MSTORE RETURN JUMPDEST CALLVALUE PUSH2 0x57D JUMPI PUSH1 0x0 CALLDATASIZE PUSH1 0x3 NOT ADD SLT PUSH2 0x57D JUMPI PUSH1 0x20 PUSH1 0x7 SLOAD PUSH1 0x40 MLOAD SWAP1 DUP2 MSTORE RETURN JUMPDEST CALLVALUE PUSH2 0x57D JUMPI PUSH1 0x20 CALLDATASIZE PUSH1 0x3 NOT ADD SLT PUSH2 0x57D JUMPI PUSH1 0x4 CALLDATALOAD PUSH4 0xFFFFFFFF PUSH1 0xE0 SHL DUP2 AND DUP1 SWAP2 SUB PUSH2 0x57D JUMPI PUSH1 0x20 SWAP1 PUSH4 0x5A05180F PUSH1 0xE0 SHL DUP2 EQ SWAP1 DUP2 ISZERO PUSH2 0x1AB8 JUMPI JUMPDEST POP PUSH1 0x40 MLOAD SWAP1 ISZERO ISZERO DUP2 MSTORE RETURN JUMPDEST PUSH4 0x7965DB0B PUSH1 0xE0 SHL DUP2 EQ SWAP2 POP DUP2 ISZERO PUSH2 0x1AD2 JUMPI JUMPDEST POP DUP3 PUSH2 0x1AAD JUMP JUMPDEST PUSH4 0x1FFC9A7 PUSH1 0xE0 SHL EQ SWAP1 POP DUP3 PUSH2 0x1ACB JUMP JUMPDEST CALLVALUE PUSH2 0x57D JUMPI PUSH1 0x20 CALLDATASIZE PUSH1 0x3 NOT ADD SLT PUSH2 0x57D JUMPI PUSH1 0x4 CALLDATALOAD PUSH1 0x0 SWAP1 DUP2 MSTORE PUSH1 0xA PUSH1 0x20 MSTORE PUSH1 0x40 SWAP1 KECCAK256 DUP1 SLOAD PUSH1 0x1 DUP3 ADD SLOAD SWAP1 SWAP2 SWAP1 PUSH1 0x1 PUSH1 0x1 PUSH1 0xA0 SHL SUB AND PUSH2 0x1B24 PUSH1 0x2 DUP4 ADD PUSH2 0x1BFA JUMP JUMPDEST SWAP2 PUSH2 0x1B31 PUSH1 0x3 DUP3 ADD PUSH2 0x1BFA JUMP JUMPDEST SWAP4 PUSH2 0x1B3E PUSH1 0x4 DUP4 ADD PUSH2 0x1BFA JUMP JUMPDEST SWAP2 PUSH1 0x5 DUP2 ADD SLOAD PUSH1 0x6 DUP3 ADD SLOAD PUSH1 0x7 DUP4 ADD SLOAD PUSH1 0x8 DUP5 ADD SLOAD SWAP2 PUSH1 0x9 DUP6 ADD SLOAD SWAP4 PUSH1 0xA DUP7 ADD SLOAD SWAP6 PUSH1 0xB ADD SLOAD SWAP8 PUSH1 0x40 MLOAD SWAP12 DUP13 SWAP12 DUP13 SWAP12 DUP12 PUSH1 0x8 SHR PUSH1 0xFF AND SWAP12 PUSH1 0xFF AND SWAP11 PUSH2 0x8CF SWAP14 PUSH2 0x1CF5 JUMP JUMPDEST SWAP1 PUSH1 0x1 DUP3 DUP2 SHR SWAP3 AND DUP1 ISZERO PUSH2 0x1BB2 JUMPI JUMPDEST PUSH1 0x20 DUP4 LT EQ PUSH2 0x1B9C JUMPI JUMP JUMPDEST PUSH4 0x4E487B71 PUSH1 0xE0 SHL PUSH1 0x0 MSTORE PUSH1 0x22 PUSH1 0x4 MSTORE PUSH1 0x24 PUSH1 0x0 REVERT JUMPDEST SWAP2 PUSH1 0x7F AND SWAP2 PUSH2 0x1B91 JUMP JUMPDEST PUSH1 0x80 DUP2 ADD SWAP1 DUP2 LT PUSH8 0xFFFFFFFFFFFFFFFF DUP3 GT OR PUSH2 0x78E JUMPI PUSH1 0x40 MSTORE JUMP JUMPDEST SWAP1 PUSH1 0x1F DUP1 NOT SWAP2 ADD AND DUP2 ADD SWAP1 DUP2 LT PUSH8 0xFFFFFFFFFFFFFFFF DUP3 GT OR PUSH2 0x78E JUMPI PUSH1 0x40 MSTORE JUMP JUMPDEST SWAP1 PUSH1 0x40 MLOAD SWAP2 DUP3 PUSH1 0x0 DUP3 SLOAD SWAP3 PUSH2 0x1C0E DUP5 PUSH2 0x1B82 JUMP JUMPDEST SWAP1 DUP2 DUP5 MSTORE PUSH1 0x1 SWAP5 DUP6 DUP2 AND SWAP1 DUP2 PUSH1 0x0 EQ PUSH2 0x1C7D JUMPI POP PUSH1 0x1 EQ PUSH2 0x1C3A JUMPI JUMPDEST POP POP PUSH2 0x1C38 SWAP3 POP SUB DUP4 PUSH2 0x1BD8 JUMP JUMPDEST JUMP JUMPDEST SWAP1 SWAP4 SWAP2 POP PUSH1 0x0 MSTORE PUSH1 0x20 SWAP1 DUP2 PUSH1 0x0 KECCAK256 SWAP4 PUSH1 0x0 SWAP2 JUMPDEST DUP2 DUP4 LT PUSH2 0x1C65 JUMPI POP POP PUSH2 0x1C38 SWAP4 POP DUP3 ADD ADD CODESIZE DUP1 PUSH2 0x1C2A JUMP JUMPDEST DUP6 SLOAD DUP9 DUP5 ADD DUP6 ADD MSTORE SWAP5 DUP6 ADD SWAP5 DUP8 SWAP5 POP SWAP2 DUP4 ADD SWAP2 PUSH2 0x1C4D JUMP JUMPDEST SWAP2 POP POP PUSH2 0x1C38 SWAP5 POP PUSH1 0x20 SWAP3 POP PUSH1 0xFF NOT AND DUP3 DUP5 ADD MSTORE ISZERO ISZERO PUSH1 0x5 SHL DUP3 ADD ADD CODESIZE DUP1 PUSH2 0x1C2A JUMP JUMPDEST PUSH1 0x0 JUMPDEST DUP4 DUP2 LT PUSH2 0x1CB3 JUMPI POP POP PUSH1 0x0 SWAP2 ADD MSTORE JUMP JUMPDEST DUP2 DUP2 ADD MLOAD DUP4 DUP3 ADD MSTORE PUSH1 0x20 ADD PUSH2 0x1CA3 JUMP JUMPDEST SWAP1 PUSH1 0x20 SWAP2 PUSH2 0x1CDC DUP2 MLOAD DUP1 SWAP3 DUP2 DUP6 MSTORE DUP6 DUP1 DUP7 ADD SWAP2 ADD PUSH2 0x1CA0 JUMP JUMPDEST PUSH1 0x1F ADD PUSH1 0x1F NOT AND ADD ADD SWAP1 JUMP JUMPDEST SWAP1 PUSH1 0x6 DUP3 LT ISZERO PUSH2 0xE03 JUMPI MSTORE JUMP JUMPDEST SWAP12 SWAP8 SWAP4 DUP13 SWAP7 SWAP15 SWAP14 SWAP11 SWAP7 PUSH2 0x1D43 SWAP2 PUSH2 0x1D35 PUSH2 0x180 SWAP15 SWAP11 SWAP7 PUSH2 0x1D51 SWAP7 PUSH2 0x1D7E SWAP15 SWAP11 SWAP7 DUP6 MSTORE PUSH1 0x1 DUP1 PUSH1 0xA0 SHL SUB AND PUSH1 0x20 DUP6 ADD MSTORE PUSH2 0x1A0 DUP1 PUSH1 0x40 DUP7 ADD MSTORE DUP5 ADD SWAP1 PUSH2 0x1CC3 JUMP JUMPDEST SWAP2 PUSH1 0x60 DUP2 DUP5 SUB SWAP2 ADD MSTORE PUSH2 0x1CC3 JUMP JUMPDEST DUP13 DUP2 SUB PUSH1 0x80 DUP15 ADD MSTORE SWAP1 PUSH2 0x1CC3 JUMP JUMPDEST SWAP12 PUSH1 0xA0 DUP12 ADD MSTORE PUSH1 0xC0 DUP11 ADD MSTORE PUSH1 0xE0 DUP10 ADD MSTORE PUSH2 0x100 DUP9 ADD MSTORE PUSH2 0x120 DUP8 ADD MSTORE PUSH2 0x140 DUP7 ADD MSTORE PUSH2 0x160 DUP6 ADD SWAP1 PUSH2 0x1CE8 JUMP JUMPDEST ISZERO ISZERO SWAP2 ADD MSTORE JUMP JUMPDEST PUSH1 0x24 CALLDATALOAD SWAP1 PUSH1 0x1 PUSH1 0x1 PUSH1 0xA0 SHL SUB DUP3 AND DUP3 SUB PUSH2 0x57D JUMPI JUMP JUMPDEST PUSH1 0x4 CALLDATALOAD SWAP1 PUSH1 0x1 PUSH1 0x1 PUSH1 0xA0 SHL SUB DUP3 AND DUP3 SUB PUSH2 0x57D JUMPI JUMP JUMPDEST PUSH8 0xFFFFFFFFFFFFFFFF DUP2 GT PUSH2 0x78E JUMPI PUSH1 0x1F ADD PUSH1 0x1F NOT AND PUSH1 0x20 ADD SWAP1 JUMP JUMPDEST DUP2 PUSH1 0x1F DUP3 ADD SLT ISZERO PUSH2 0x57D JUMPI DUP1 CALLDATALOAD SWAP1 PUSH2 0x1DE4 DUP3 PUSH2 0x1DB1 JUMP JUMPDEST SWAP3 PUSH2 0x1DF2 PUSH1 0x40 MLOAD SWAP5 DUP6 PUSH2 0x1BD8 JUMP JUMPDEST DUP3 DUP5 MSTORE PUSH1 0x20 DUP4 DUP4 ADD ADD GT PUSH2 0x57D JUMPI DUP2 PUSH1 0x0 SWAP3 PUSH1 0x20 DUP1 SWAP4 ADD DUP4 DUP7 ADD CALLDATACOPY DUP4 ADD ADD MSTORE SWAP1 JUMP JUMPDEST PUSH1 0xC SLOAD DUP2 LT ISZERO PUSH2 0x1E4B JUMPI PUSH1 0xC PUSH1 0x0 MSTORE PUSH32 0xDF6966C971051C3D54EC59162606531493A51404A002842F56009D7E5CF4A8C7 ADD SWAP1 PUSH1 0x0 SWAP1 JUMP JUMPDEST PUSH4 0x4E487B71 PUSH1 0xE0 SHL PUSH1 0x0 MSTORE PUSH1 0x32 PUSH1 0x4 MSTORE PUSH1 0x24 PUSH1 0x0 REVERT JUMPDEST DUP1 SLOAD DUP3 LT ISZERO PUSH2 0x1E4B JUMPI PUSH1 0x0 MSTORE PUSH1 0x20 PUSH1 0x0 KECCAK256 ADD SWAP1 PUSH1 0x0 SWAP1 JUMP JUMPDEST CALLER PUSH1 0x0 SWAP1 DUP2 MSTORE PUSH32 0x30710E496C9A8631E387D1FF5062C226D4CE9C9E008BFF1F22AE157290CCBD62 PUSH1 0x20 SWAP1 DUP2 MSTORE PUSH1 0x40 DUP1 DUP4 KECCAK256 SLOAD SWAP1 SWAP3 PUSH1 0x0 DUP1 MLOAD PUSH1 0x20 PUSH2 0x26EA DUP4 CODECOPY DUP2 MLOAD SWAP2 MSTORE SWAP2 PUSH1 0xFF AND ISZERO PUSH2 0x1ECB JUMPI POP POP POP POP JUMP JUMPDEST PUSH2 0x1ED4 CALLER PUSH2 0x233B JUMP JUMPDEST SWAP2 DUP5 MLOAD SWAP1 PUSH2 0x1EE1 DUP3 PUSH2 0x1BBC JUMP JUMPDEST PUSH1 0x42 DUP3 MSTORE DUP5 DUP3 ADD SWAP3 PUSH1 0x60 CALLDATASIZE DUP6 CALLDATACOPY DUP3 MLOAD ISZERO PUSH2 0x2041 JUMPI PUSH1 0x30 DUP5 MSTORE8 DUP3 MLOAD SWAP1 PUSH1 0x1 SWAP2 DUP3 LT ISZERO PUSH2 0x2041 JUMPI SWAP1 PUSH1 0x78 PUSH1 0x21 DUP6 ADD MSTORE8 PUSH1 0x41 SWAP2 JUMPDEST DUP2 DUP4 GT PUSH2 0x1FD3 JUMPI POP POP POP PUSH2 0x1F91 JUMPI PUSH1 0x48 PUSH2 0x49F SWAP4 DUP7 SWAP4 PUSH2 0x1F75 SWAP4 PUSH2 0x1F66 SWAP9 MLOAD SWAP9 DUP10 SWAP4 PUSH23 0x20B1B1B2B9B9A1B7B73A3937B61D1030B1B1B7BAB73A1 PUSH1 0x4D SHL DUP11 DUP7 ADD MSTORE PUSH2 0x44B DUP2 MLOAD DUP1 SWAP3 DUP13 PUSH1 0x37 DUP10 ADD SWAP2 ADD PUSH2 0x1CA0 JUMP JUMPDEST ADD SUB PUSH1 0x28 DUP2 ADD DUP8 MSTORE ADD DUP6 PUSH2 0x1BD8 JUMP JUMPDEST MLOAD SWAP3 DUP4 SWAP3 PUSH3 0x461BCD PUSH1 0xE5 SHL DUP5 MSTORE PUSH1 0x4 DUP5 ADD MSTORE PUSH1 0x24 DUP4 ADD SWAP1 PUSH2 0x1CC3 JUMP JUMPDEST PUSH1 0x64 DUP5 DUP7 MLOAD SWAP1 PUSH3 0x461BCD PUSH1 0xE5 SHL DUP3 MSTORE DUP1 PUSH1 0x4 DUP4 ADD MSTORE PUSH1 0x24 DUP3 ADD MSTORE PUSH32 0x537472696E67733A20686578206C656E67746820696E73756666696369656E74 PUSH1 0x44 DUP3 ADD MSTORE REVERT JUMPDEST SWAP1 SWAP2 SWAP3 PUSH1 0xF DUP2 AND PUSH1 0x10 DUP2 LT ISZERO PUSH2 0x202D JUMPI PUSH16 0x181899199A1A9B1B9C1CB0B131B232B3 PUSH1 0x81 SHL SWAP1 BYTE PUSH2 0x2003 DUP6 DUP8 PUSH2 0x232A JUMP JUMPDEST MSTORE8 PUSH1 0x4 SHR SWAP3 DUP1 ISZERO PUSH2 0x2019 JUMPI PUSH1 0x0 NOT ADD SWAP2 SWAP1 PUSH2 0x1F12 JUMP JUMPDEST PUSH4 0x4E487B71 PUSH1 0xE0 SHL DUP3 MSTORE PUSH1 0x11 PUSH1 0x4 MSTORE PUSH1 0x24 DUP3 REVERT JUMPDEST PUSH4 0x4E487B71 PUSH1 0xE0 SHL DUP4 MSTORE PUSH1 0x32 PUSH1 0x4 MSTORE PUSH1 0x24 DUP4 REVERT JUMPDEST PUSH4 0x4E487B71 PUSH1 0xE0 SHL DUP2 MSTORE PUSH1 0x32 PUSH1 0x4 MSTORE PUSH1 0x24 SWAP1 REVERT JUMPDEST CALLER PUSH1 0x0 SWAP1 DUP2 MSTORE PUSH32 0xAD3228B676F7D3CD4284A5443F17F1962B36E491B30A40B2405849E597BA5FB5 PUSH1 0x20 SWAP1 DUP2 MSTORE PUSH1 0x40 DUP1 DUP4 KECCAK256 SLOAD SWAP1 SWAP3 SWAP1 PUSH1 0xFF AND ISZERO PUSH2 0x2097 JUMPI POP POP POP JUMP JUMPDEST PUSH2 0x20A0 CALLER PUSH2 0x233B JUMP JUMPDEST SWAP1 DUP1 DUP5 MLOAD SWAP1 PUSH2 0x20AE DUP3 PUSH2 0x1BBC JUMP JUMPDEST PUSH1 0x42 DUP3 MSTORE DUP5 DUP3 ADD SWAP3 PUSH1 0x60 CALLDATASIZE DUP6 CALLDATACOPY DUP3 MLOAD ISZERO PUSH2 0x2041 JUMPI PUSH1 0x30 DUP5 MSTORE8 DUP3 MLOAD SWAP1 PUSH1 0x1 SWAP2 DUP3 LT ISZERO PUSH2 0x2041 JUMPI SWAP1 PUSH1 0x78 PUSH1 0x21 DUP6 ADD MSTORE8 PUSH1 0x41 SWAP2 JUMPDEST DUP2 DUP4 GT PUSH2 0x2133 JUMPI POP POP POP PUSH2 0x1F91 JUMPI PUSH1 0x48 PUSH2 0x49F SWAP4 DUP7 SWAP4 PUSH2 0x1F75 SWAP4 PUSH2 0x1F66 SWAP9 MLOAD SWAP9 DUP10 SWAP4 PUSH23 0x20B1B1B2B9B9A1B7B73A3937B61D1030B1B1B7BAB73A1 PUSH1 0x4D SHL DUP11 DUP7 ADD MSTORE PUSH2 0x44B DUP2 MLOAD DUP1 SWAP3 DUP13 PUSH1 0x37 DUP10 ADD SWAP2 ADD PUSH2 0x1CA0 JUMP JUMPDEST SWAP1 SWAP2 SWAP3 PUSH1 0xF DUP2 AND PUSH1 0x10 DUP2 LT ISZERO PUSH2 0x202D JUMPI PUSH16 0x181899199A1A9B1B9C1CB0B131B232B3 PUSH1 0x81 SHL SWAP1 BYTE PUSH2 0x2163 DUP6 DUP8 PUSH2 0x232A JUMP JUMPDEST MSTORE8 PUSH1 0x4 SHR SWAP3 DUP1 ISZERO PUSH2 0x2019 JUMPI PUSH1 0x0 NOT ADD SWAP2 SWAP1 PUSH2 0x20DF JUMP JUMPDEST PUSH1 0x0 SWAP1 DUP1 DUP3 MSTORE PUSH1 0x20 SWAP1 DUP3 DUP3 MSTORE PUSH1 0x40 SWAP3 DUP4 DUP2 KECCAK256 CALLER DUP3 MSTORE DUP4 MSTORE PUSH1 0xFF DUP5 DUP3 KECCAK256 SLOAD AND ISZERO PUSH2 0x21A2 JUMPI POP POP POP POP JUMP JUMPDEST PUSH2 0x21AB CALLER PUSH2 0x233B JUMP JUMPDEST SWAP2 DUP5 MLOAD SWAP1 PUSH2 0x21B8 DUP3 PUSH2 0x1BBC JUMP JUMPDEST PUSH1 0x42 DUP3 MSTORE DUP5 DUP3 ADD SWAP3 PUSH1 0x60 CALLDATASIZE DUP6 CALLDATACOPY DUP3 MLOAD ISZERO PUSH2 0x2041 JUMPI PUSH1 0x30 DUP5 MSTORE8 DUP3 MLOAD SWAP1 PUSH1 0x1 SWAP2 DUP3 LT ISZERO PUSH2 0x2041 JUMPI SWAP1 PUSH1 0x78 PUSH1 0x21 DUP6 ADD MSTORE8 PUSH1 0x41 SWAP2 JUMPDEST DUP2 DUP4 GT PUSH2 0x223D JUMPI POP POP POP PUSH2 0x1F91 JUMPI PUSH1 0x48 PUSH2 0x49F SWAP4 DUP7 SWAP4 PUSH2 0x1F75 SWAP4 PUSH2 0x1F66 SWAP9 MLOAD SWAP9 DUP10 SWAP4 PUSH23 0x20B1B1B2B9B9A1B7B73A3937B61D1030B1B1B7BAB73A1 PUSH1 0x4D SHL DUP11 DUP7 ADD MSTORE PUSH2 0x44B DUP2 MLOAD DUP1 SWAP3 DUP13 PUSH1 0x37 DUP10 ADD SWAP2 ADD PUSH2 0x1CA0 JUMP JUMPDEST SWAP1 SWAP2 SWAP3 PUSH1 0xF DUP2 AND PUSH1 0x10 DUP2 LT ISZERO PUSH2 0x202D JUMPI PUSH16 0x181899199A1A9B1B9C1CB0B131B232B3 PUSH1 0x81 SHL SWAP1 BYTE PUSH2 0x226D DUP6 DUP8 PUSH2 0x232A JUMP JUMPDEST MSTORE8 PUSH1 0x4 SHR SWAP3 DUP1 ISZERO PUSH2 0x2019 JUMPI PUSH1 0x0 NOT ADD SWAP2 SWAP1 PUSH2 0x21E9 JUMP JUMPDEST SWAP1 PUSH1 0x40 PUSH2 0x22C0 SWAP3 PUSH1 0x0 SWAP1 DUP1 DUP3 MSTORE DUP2 PUSH1 0x20 MSTORE DUP3 DUP3 KECCAK256 SWAP4 PUSH1 0x1 DUP1 PUSH1 0xA0 SHL SUB AND SWAP4 DUP5 DUP4 MSTORE PUSH1 0x20 MSTORE PUSH1 0xFF DUP4 DUP4 KECCAK256 SLOAD AND PUSH2 0x22C3 JUMPI JUMPDEST DUP2 MSTORE PUSH1 0x1 PUSH1 0x20 MSTORE KECCAK256 PUSH2 0x24CF JUMP JUMPDEST POP JUMP JUMPDEST DUP1 DUP3 MSTORE DUP2 PUSH1 0x20 MSTORE DUP3 DUP3 KECCAK256 DUP5 DUP4 MSTORE PUSH1 0x20 MSTORE DUP3 DUP3 KECCAK256 PUSH1 0xFF NOT DUP2 SLOAD AND SWAP1 SSTORE CALLER DUP5 DUP3 PUSH32 0xF6391F5C32D9C69D2A47EA670B442974B53935D1EDC7FD64EB21E047A839171B DUP6 DUP1 LOG4 PUSH2 0x22B3 JUMP JUMPDEST DUP2 DUP2 MUL SWAP3 SWAP2 DUP2 ISZERO SWAP2 DUP5 DIV EQ OR ISZERO PUSH2 0xD75 JUMPI JUMP JUMPDEST SWAP2 SWAP1 DUP3 ADD DUP1 SWAP3 GT PUSH2 0xD75 JUMPI JUMP JUMPDEST SWAP1 DUP2 MLOAD DUP2 LT ISZERO PUSH2 0x1E4B JUMPI ADD PUSH1 0x20 ADD SWAP1 JUMP JUMPDEST PUSH1 0x40 MLOAD SWAP1 PUSH1 0x60 DUP3 ADD DUP3 DUP2 LT PUSH8 0xFFFFFFFFFFFFFFFF DUP3 GT OR PUSH2 0x78E JUMPI PUSH1 0x40 MSTORE PUSH1 0x2A DUP3 MSTORE PUSH1 0x20 DUP3 ADD PUSH1 0x40 CALLDATASIZE DUP3 CALLDATACOPY DUP3 MLOAD ISZERO PUSH2 0x1E4B JUMPI PUSH1 0x30 SWAP1 MSTORE8 DUP2 MLOAD PUSH1 0x1 SWAP1 DUP2 LT ISZERO PUSH2 0x1E4B JUMPI PUSH1 0x78 PUSH1 0x21 DUP5 ADD MSTORE8 PUSH1 0x29 SWAP1 JUMPDEST DUP1 DUP3 GT PUSH2 0x23DC JUMPI POP POP PUSH2 0x2398 JUMPI SWAP1 JUMP JUMPDEST PUSH1 0x64 PUSH1 0x40 MLOAD PUSH3 0x461BCD PUSH1 0xE5 SHL DUP2 MSTORE PUSH1 0x20 PUSH1 0x4 DUP3 ADD MSTORE PUSH1 0x20 PUSH1 0x24 DUP3 ADD MSTORE PUSH32 0x537472696E67733A20686578206C656E67746820696E73756666696369656E74 PUSH1 0x44 DUP3 ADD MSTORE REVERT JUMPDEST SWAP1 SWAP2 PUSH1 0xF DUP2 AND PUSH1 0x10 DUP2 LT ISZERO PUSH2 0x2435 JUMPI PUSH16 0x181899199A1A9B1B9C1CB0B131B232B3 PUSH1 0x81 SHL SWAP1 BYTE PUSH2 0x240B DUP5 DUP7 PUSH2 0x232A JUMP JUMPDEST MSTORE8 PUSH1 0x4 SHR SWAP2 DUP1 ISZERO PUSH2 0x2420 JUMPI PUSH1 0x0 NOT ADD SWAP1 PUSH2 0x2388 JUMP JUMPDEST PUSH1 0x24 PUSH1 0x0 PUSH4 0x4E487B71 PUSH1 0xE0 SHL DUP2 MSTORE PUSH1 0x11 PUSH1 0x4 MSTORE REVERT JUMPDEST PUSH1 0x24 PUSH1 0x0 PUSH4 0x4E487B71 PUSH1 0xE0 SHL DUP2 MSTORE PUSH1 0x32 PUSH1 0x4 MSTORE REVERT JUMPDEST SWAP2 SWAP1 PUSH1 0x1 DUP4 ADD PUSH1 0x0 SWAP1 DUP3 DUP3 MSTORE DUP1 PUSH1 0x20 MSTORE PUSH1 0x40 DUP3 KECCAK256 SLOAD ISZERO PUSH1 0x0 EQ PUSH2 0x24C9 JUMPI DUP5 SLOAD SWAP5 PUSH1 0x1 PUSH1 0x40 SHL DUP7 LT ISZERO PUSH2 0x24B5 JUMPI DUP4 PUSH2 0x24A5 PUSH2 0x248E DUP9 PUSH1 0x1 PUSH1 0x40 SWAP9 SWAP10 SWAP11 ADD DUP6 SSTORE DUP5 PUSH2 0x1E61 JUMP JUMPDEST DUP2 SWAP4 SWAP2 SLOAD SWAP1 PUSH1 0x3 SHL SWAP2 DUP3 SHL SWAP2 PUSH1 0x0 NOT SWAP1 SHL NOT AND OR SWAP1 JUMP JUMPDEST SWAP1 SSTORE SLOAD SWAP4 DUP3 MSTORE PUSH1 0x20 MSTORE KECCAK256 SSTORE PUSH1 0x1 SWAP1 JUMP JUMPDEST PUSH4 0x4E487B71 PUSH1 0xE0 SHL DUP4 MSTORE PUSH1 0x41 PUSH1 0x4 MSTORE PUSH1 0x24 DUP4 REVERT JUMPDEST POP SWAP3 POP POP JUMP JUMPDEST SWAP1 PUSH1 0x1 DUP3 ADD SWAP1 PUSH1 0x0 SWAP3 DUP2 DUP5 MSTORE DUP3 PUSH1 0x20 MSTORE PUSH1 0x40 DUP5 KECCAK256 SLOAD SWAP1 DUP2 ISZERO ISZERO PUSH1 0x0 EQ PUSH2 0x25B8 JUMPI PUSH1 0x0 NOT SWAP2 DUP1 DUP4 ADD DUP2 DUP2 GT PUSH2 0x25A4 JUMPI DUP3 SLOAD SWAP1 DUP5 DUP3 ADD SWAP2 DUP3 GT PUSH2 0x2590 JUMPI DUP1 DUP3 SUB PUSH2 0x255B JUMPI JUMPDEST POP POP POP DUP1 SLOAD DUP1 ISZERO PUSH2 0x2547 JUMPI DUP3 ADD SWAP2 PUSH2 0x252A DUP4 DUP4 PUSH2 0x1E61 JUMP JUMPDEST SWAP1 SWAP2 DUP3 SLOAD SWAP2 PUSH1 0x3 SHL SHL NOT AND SWAP1 SSTORE SSTORE DUP3 MSTORE PUSH1 0x20 MSTORE PUSH1 0x40 DUP2 KECCAK256 SSTORE PUSH1 0x1 SWAP1 JUMP JUMPDEST PUSH4 0x4E487B71 PUSH1 0xE0 SHL DUP7 MSTORE PUSH1 0x31 PUSH1 0x4 MSTORE PUSH1 0x24 DUP7 REVERT JUMPDEST PUSH2 0x257B PUSH2 0x256B PUSH2 0x248E SWAP4 DUP7 PUSH2 0x1E61 JUMP JUMPDEST SWAP1 SLOAD SWAP1 PUSH1 0x3 SHL SHR SWAP3 DUP4 SWAP3 DUP7 PUSH2 0x1E61 JUMP JUMPDEST SWAP1 SSTORE DUP7 MSTORE DUP5 PUSH1 0x20 MSTORE PUSH1 0x40 DUP7 KECCAK256 SSTORE CODESIZE DUP1 DUP1 PUSH2 0x2512 JUMP JUMPDEST PUSH4 0x4E487B71 PUSH1 0xE0 SHL DUP9 MSTORE PUSH1 0x11 PUSH1 0x4 MSTORE PUSH1 0x24 DUP9 REVERT JUMPDEST PUSH4 0x4E487B71 PUSH1 0xE0 SHL DUP8 MSTORE PUSH1 0x11 PUSH1 0x4 MSTORE PUSH1 0x24 DUP8 REVERT JUMPDEST POP POP POP POP SWAP1 JUMP JUMPDEST ISZERO PUSH2 0x25C6 JUMPI JUMP JUMPDEST PUSH1 0x40 MLOAD PUSH3 0x461BCD PUSH1 0xE5 SHL DUP2 MSTORE PUSH1 0x20 PUSH1 0x4 DUP3 ADD MSTORE PUSH1 0x15 PUSH1 0x24 DUP3 ADD MSTORE PUSH21 0x496E73756666696369656E74207472656173757279 PUSH1 0x58 SHL PUSH1 0x44 DUP3 ADD MSTORE PUSH1 0x64 SWAP1 REVERT JUMPDEST PUSH1 0x0 NOT DUP2 EQ PUSH2 0xD75 JUMPI PUSH1 0x1 ADD SWAP1 JUMP JUMPDEST PUSH1 0xFF PUSH1 0x3 SLOAD AND PUSH2 0x261E JUMPI JUMP JUMPDEST PUSH1 0x40 MLOAD PUSH3 0x461BCD PUSH1 0xE5 SHL DUP2 MSTORE PUSH1 0x20 PUSH1 0x4 DUP3 ADD MSTORE PUSH1 0x10 PUSH1 0x24 DUP3 ADD MSTORE PUSH16 0x14185D5CD8589B194E881C185D5CD959 PUSH1 0x82 SHL PUSH1 0x44 DUP3 ADD MSTORE PUSH1 0x64 SWAP1 REVERT JUMPDEST ISZERO PUSH2 0x265D JUMPI JUMP JUMPDEST PUSH1 0x40 MLOAD PUSH3 0x461BCD PUSH1 0xE5 SHL DUP2 MSTORE PUSH1 0x20 PUSH1 0x4 DUP3 ADD MSTORE PUSH1 0x10 PUSH1 0x24 DUP3 ADD MSTORE PUSH16 0x125B9D985B1A59081C1C9BDC1BDCD85B PUSH1 0x82 SHL PUSH1 0x44 DUP3 ADD MSTORE PUSH1 0x64 SWAP1 REVERT JUMPDEST PUSH1 0x2 DUP1 SLOAD EQ PUSH2 0x26A4 JUMPI PUSH1 0x2 DUP1 SSTORE JUMP JUMPDEST PUSH1 0x40 MLOAD PUSH3 0x461BCD PUSH1 0xE5 SHL DUP2 MSTORE PUSH1 0x20 PUSH1 0x4 DUP3 ADD MSTORE PUSH1 0x1F PUSH1 0x24 DUP3 ADD MSTORE PUSH32 0x5265656E7472616E637947756172643A207265656E7472616E742063616C6C00 PUSH1 0x44 DUP3 ADD MSTORE PUSH1 0x64 SWAP1 REVERT INVALID DUP3 SWAP12 DUP3 0x4E 0x23 0x29 0xE2 SDIV NUMBER 0x5D SWAP5 SHR SWAP16 SGT 0xBA CREATE2 PUSH25 0x548505283D29261236D8E6596D4636A2646970667358221220 0xD2 0xC3 CALLDATACOPY SWAP10 SWAP7 0xBC 0xFC PUSH9 0xD4F5AC3C91E5318747 0xD9 0xB0 0xBB 0x2D PUSH23 0xE91976AA642F4171476A64736F6C634300081300332F87 DUP9 GT PUSH31 0x7EFF1D82E926EC794901D17C78024A50270940304540A733656F0D00000000 "},"methodIdentifiers":{"AI_ORACLE_ROLE()":"c601f7af","DEFAULT_ADMIN_ROLE()":"a217fddf","EVALUATOR_ROLE()":"30d0ea31","MEMBER_ROLE()":"a10f469e","addAIOracle(address)":"88c8deb1","addEvaluator(address)":"eb26e5f0","addMember(address)":"ca6d56dc","approvalThreshold()":"7d0eef61","createProposal(string,string,string,uint256)":"4c15676b","depositToTreasury()":"718b2058","finalizeProposal(uint256)":"5652077c","getMemberCount()":"997072f7","getProposal(uint256)":"c7f758a8","getRoleAdmin(bytes32)":"248a9ca3","getRoleMember(bytes32,uint256)":"9010d07c","getRoleMemberCount(bytes32)":"ca15c873","grantRole(bytes32,address)":"2f2ff15d","hasRole(bytes32,address)":"91d14854","hasVoted(uint256,address)":"43859632","memberReputation(address)":"409d7a04","members(uint256)":"5daf08ca","minAIScore()":"152acc9b","pause()":"8456cb59","paused()":"5c975abb","proposalCount()":"da35c664","proposals(uint256)":"013cf08b","quorumPercentage()":"4fa76ec9","releaseFunds(uint256)":"4d68282f","renounceRole(bytes32,address)":"36568abe","revokeRole(bytes32,address)":"d547741f","submitAIScore(uint256,uint256)":"fd0daa7e","supportsInterface(bytes4)":"01ffc9a7","treasuryBalance()":"313dab20","unpause()":"3f4ba83a","updateVotingParams(uint256,uint256,uint256,uint256)":"1f93f3b2","voteOnProposal(uint256,bool)":"1614665c","votingPeriod()":"02a251a3"}}}}}