{
  "_format": "hh-sol-artifact-1",
  "contractName": "GrantMindDAO",
  "sourceName": "contracts/GrantMindDAO.sol",
  "abi": [
    {
      "inputs": [],
      "stateMutability": "nonpayable",
      "type": "constructor"
    },
    {
      "anonymous": false,
      "inputs": [
        {
          "indexed": true,
          "internalType": "uint256",
          "name": "proposalId",
          "type": "uint256"
        },
        {
          "indexed": false,
          "internalType": "uint256",
          "name": "aiScore",
          "type": "uint256"
        },
        {
          "indexed": true,
          "internalType": "address",
          "name": "oracle",
          "type": "address"
        }
      ],
      "name": "AIScoreSubmitted",
      "type": "event"
    },
    {
      "anonymous": false,
      "inputs": [
        {
          "indexed": true,
          "internalType": "uint256",
          "name": "proposalId",
          "type": "uint256"
        },
        {
          "indexed": true,
          "internalType": "address",
          "name": "recipient",
          "type": "address"
        },
        {
          "indexed": false,
          "internalType": "uint256",
          "name": "amount",
          "type": "uint256"
        }
      ],
      "name": "FundsReleased",
      "type": "event"
    },
    {
      "anonymous": false,
      "inputs": [
        {
          "indexed": false,
          "internalType": "address",
          "name": "account",
          "type": "address"
        }
      ],
      "name": "Paused",
      "type": "event"
    },
    {
      "anonymous": false,
      "inputs": [
        {
          "indexed": true,
          "internalType": "uint256",
          "name": "proposalId",
          "type": "uint256"
        },
        {
          "indexed": true,
          "internalType": "address",
          "name": "proposer",
          "type": "address"
        },
        {
          "indexed": false,
          "internalType": "string",
          "name": "title",
          "type": "string"
        },
        {
          "indexed": false,
          "internalType": "uint256",
          "name": "requestedAmount",
          "type": "uint256"
        }
      ],
      "name": "ProposalCreated",
      "type": "event"
    },
    {
      "anonymous": false,
      "inputs": [
        {
          "indexed": true,
          "internalType": "uint256",
          "name": "proposalId",
          "type": "uint256"
        },
        {
          "indexed": false,
          "internalType": "enum GrantMindDAO.ProposalStatus",
          "name": "status",
          "type": "uint8"
        },
        {
          "indexed": false,
          "internalType": "uint256",
          "name": "finalVotesFor",
          "type": "uint256"
        },
        {
          "indexed": false,
          "internalType": "uint256",
          "name": "finalVotesAgainst",
          "type": "uint256"
        }
      ],
      "name": "ProposalFinalized",
      "type": "event"
    },
    {
      "anonymous": false,
      "inputs": [
        {
          "indexed": true,
          "internalType": "address",
          "name": "member",
          "type": "address"
        },
        {
          "indexed": false,
          "internalType": "uint256",
          "name": "points",
          "type": "uint256"
        }
      ],
      "name": "ReputationAwarded",
      "type": "event"
    },
    {
      "anonymous": false,
      "inputs": [
        {
          "indexed": true,
          "internalType": "bytes32",
          "name": "role",
          "type": "bytes32"
        },
        {
          "indexed": true,
          "internalType": "bytes32",
          "name": "previousAdminRole",
          "type": "bytes32"
        },
        {
          "indexed": true,
          "internalType": "bytes32",
          "name": "newAdminRole",
          "type": "bytes32"
        }
      ],
      "name": "RoleAdminChanged",
      "type": "event"
    },
    {
      "anonymous": false,
      "inputs": [
        {
          "indexed": true,
          "internalType": "bytes32",
          "name": "role",
          "type": "bytes32"
        },
        {
          "indexed": true,
          "internalType": "address",
          "name": "account",
          "type": "address"
        },
        {
          "indexed": true,
          "internalType": "address",
          "name": "sender",
          "type": "address"
        }
      ],
      "name": "RoleGranted",
      "type": "event"
    },
    {
      "anonymous": false,
      "inputs": [
        {
          "indexed": true,
          "internalType": "bytes32",
          "name": "role",
          "type": "bytes32"
        },
        {
          "indexed": true,
          "internalType": "address",
          "name": "account",
          "type": "address"
        },
        {
          "indexed": true,
          "internalType": "address",
          "name": "sender",
          "type": "address"
        }
      ],
      "name": "RoleRevoked",
      "type": "event"
    },
    {
      "anonymous": false,
      "inputs": [
        {
          "indexed": true,
          "internalType": "address",
          "name": "from",
          "type": "address"
        },
        {
          "indexed": false,
          "internalType": "uint256",
          "name": "amount",
          "type": "uint256"
        }
      ],
      "name": "TreasuryDeposit",
      "type": "event"
    },
    {
      "anonymous": false,
      "inputs": [
        {
          "indexed": false,
          "internalType": "address",
          "name": "account",
          "type": "address"
        }
      ],
      "name": "Unpaused",
      "type": "event"
    },
    {
      "anonymous": false,
      "inputs": [
        {
          "indexed": true,
          "internalType": "uint256",
          "name": "proposalId",
          "type": "uint256"
        },
        {
          "indexed": true,
          "internalType": "address",
          "name": "voter",
          "type": "address"
        },
        {
          "indexed": false,
          "internalType": "bool",
          "name": "support",
          "type": "bool"
        },
        {
          "indexed": false,
          "internalType": "uint256",
          "name": "votesFor",
          "type": "uint256"
        },
        {
          "indexed": false,
          "internalType": "uint256",
          "name": "votesAgainst",
          "type": "uint256"
        }
      ],
      "name": "VoteCast",
      "type": "event"
    },
    {
      "inputs": [],
      "name": "AI_ORACLE_ROLE",
      "outputs": [
        {
          "internalType": "bytes32",
          "name": "",
          "type": "bytes32"
        }
      ],
      "stateMutability": "view",
      "type": "function"
    },
    {
      "inputs": [],
      "name": "DEFAULT_ADMIN_ROLE",
      "outputs": [
        {
          "internalType": "bytes32",
          "name": "",
          "type": "bytes32"
        }
      ],
      "stateMutability": "view",
      "type": "function"
    },
    {
      "inputs": [],
      "name": "EVALUATOR_ROLE",
      "outputs": [
        {
          "internalType": "bytes32",
          "name": "",
          "type": "bytes32"
        }
      ],
      "stateMutability": "view",
      "type": "function"
    },
    {
      "inputs": [],
      "name": "MEMBER_ROLE",
      "outputs": [
        {
          "internalType": "bytes32",
          "name": "",
          "type": "bytes32"
        }
      ],
      "stateMutability": "view",
      "type": "function"
    },
    {
      "inputs": [
        {
          "internalType": "address",
          "name": "_oracle",
          "type": "address"
        }
      ],
      "name": "addAIOracle",
      "outputs": [],
      "stateMutability": "nonpayable",
      "type": "function"
    },
    {
      "inputs": [
        {
          "internalType": "address",
          "name": "_evaluator",
          "type": "address"
        }
      ],
      "name": "addEvaluator",
      "outputs": [],
      "stateMutability": "nonpayable",
      "type": "function"
    },
    {
      "inputs": [
        {
          "internalType": "address",
          "name": "_member",
          "type": "address"
        }
      ],
      "name": "addMember",
      "outputs": [],
      "stateMutability": "nonpayable",
      "type": "function"
    },
    {
      "inputs": [],
      "name": "approvalThreshold",
      "outputs": [
        {
          "internalType": "uint256",
          "name": "",
          "type": "uint256"
        }
      ],
      "stateMutability": "view",
      "type": "function"
    },
    {
      "inputs": [
        {
          "internalType": "string",
          "name": "_title",
          "type": "string"
        },
        {
          "internalType": "string",
          "name": "_description",
          "type": "string"
        },
        {
          "internalType": "string",
          "name": "_ipfsHash",
          "type": "string"
        },
        {
          "internalType": "uint256",
          "name": "_requestedAmount",
          "type": "uint256"
        }
      ],
      "name": "createProposal",
      "outputs": [
        {
          "internalType": "uint256",
          "name": "",
          "type": "uint256"
        }
      ],
      "stateMutability": "nonpayable",
      "type": "function"
    },
    {
      "inputs": [],
      "name": "depositToTreasury",
      "outputs": [],
      "stateMutability": "payable",
      "type": "function"
    },
    {
      "inputs": [
        {
          "internalType": "uint256",
          "name": "_proposalId",
          "type": "uint256"
        }
      ],
      "name": "finalizeProposal",
      "outputs": [],
      "stateMutability": "nonpayable",
      "type": "function"
    },
    {
      "inputs": [],
      "name": "getMemberCount",
      "outputs": [
        {
          "internalType": "uint256",
          "name": "",
          "type": "uint256"
        }
      ],
      "stateMutability": "view",
      "type": "function"
    },
    {
      "inputs": [
        {
          "internalType": "uint256",
          "name": "_proposalId",
          "type": "uint256"
        }
      ],
      "name": "getProposal",
      "outputs": [
        {
          "internalType": "uint256",
          "name": "id",
          "type": "uint256"
        },
        {
          "internalType": "address",
          "name": "proposer",
          "type": "address"
        },
        {
          "internalType": "string",
          "name": "title",
          "type": "string"
        },
        {
          "internalType": "string",
          "name": "description",
          "type": "string"
        },
        {
          "internalType": "string",
          "name": "ipfsHash",
          "type": "string"
        },
        {
          "internalType": "uint256",
          "name": "requestedAmount",
          "type": "uint256"
        },
        {
          "internalType": "uint256",
          "name": "aiScore",
          "type": "uint256"
        },
        {
          "internalType": "uint256",
          "name": "votesFor",
          "type": "uint256"
        },
        {
          "internalType": "uint256",
          "name": "votesAgainst",
          "type": "uint256"
        },
        {
          "internalType": "uint256",
          "name": "createdAt",
          "type": "uint256"
        },
        {
          "internalType": "uint256",
          "name": "votingEnds",
          "type": "uint256"
        },
        {
          "internalType": "enum GrantMindDAO.ProposalStatus",
          "name": "status",
          "type": "uint8"
        },
        {
          "internalType": "bool",
          "name": "fundsReleased",
          "type": "bool"
        }
      ],
      "stateMutability": "view",
      "type": "function"
    },
    {
      "inputs": [
        {
          "internalType": "bytes32",
          "name": "role",
          "type": "bytes32"
        }
      ],
      "name": "getRoleAdmin",
      "outputs": [
        {
          "internalType": "bytes32",
          "name": "",
          "type": "bytes32"
        }
      ],
      "stateMutability": "view",
      "type": "function"
    },
    {
      "inputs": [
        {
          "internalType": "bytes32",
          "name": "role",
          "type": "bytes32"
        },
        {
          "internalType": "uint256",
          "name": "index",
          "type": "uint256"
        }
      ],
      "name": "getRoleMember",
      "outputs": [
        {
          "internalType": "address",
          "name": "",
          "type": "address"
        }
      ],
      "stateMutability": "view",
      "type": "function"
    },
    {
      "inputs": [
        {
          "internalType": "bytes32",
          "name": "role",
          "type": "bytes32"
        }
      ],
      "name": "getRoleMemberCount",
      "outputs": [
        {
          "internalType": "uint256",
          "name": "",
          "type": "uint256"
        }
      ],
      "stateMutability": "view",
      "type": "function"
    },
    {
      "inputs": [
        {
          "internalType": "bytes32",
          "name": "role",
          "type": "bytes32"
        },
        {
          "internalType": "address",
          "name": "account",
          "type": "address"
        }
      ],
      "name": "grantRole",
      "outputs": [],
      "stateMutability": "nonpayable",
      "type": "function"
    },
    {
      "inputs": [
        {
          "internalType": "bytes32",
          "name": "role",
          "type": "bytes32"
        },
        {
          "internalType": "address",
          "name": "account",
          "type": "address"
        }
      ],
      "name": "hasRole",
      "outputs": [
        {
          "internalType": "bool",
          "name": "",
          "type": "bool"
        }
      ],
      "stateMutability": "view",
      "type": "function"
    },
    {
      "inputs": [
        {
          "internalType": "uint256",
          "name": "_proposalId",
          "type": "uint256"
        },
        {
          "internalType": "address",
          "name": "_voter",
          "type": "address"
        }
      ],
      "name": "hasVoted",
      "outputs": [
        {
          "internalType": "bool",
          "name": "",
          "type": "bool"
        }
      ],
      "stateMutability": "view",
      "type": "function"
    },
    {
      "inputs": [
        {
          "internalType": "address",
          "name": "",
          "type": "address"
        }
      ],
      "name": "memberReputation",
      "outputs": [
        {
          "internalType": "uint256",
          "name": "",
          "type": "uint256"
        }
      ],
      "stateMutability": "view",
      "type": "function"
    },
    {
      "inputs": [
        {
          "internalType": "uint256",
          "name": "",
          "type": "uint256"
        }
      ],
      "name": "members",
      "outputs": [
        {
          "internalType": "address",
          "name": "",
          "type": "address"
        }
      ],
      "stateMutability": "view",
      "type": "function"
    },
    {
      "inputs": [],
      "name": "minAIScore",
      "outputs": [
        {
          "internalType": "uint256",
          "name": "",
          "type": "uint256"
        }
      ],
      "stateMutability": "view",
      "type": "function"
    },
    {
      "inputs": [],
      "name": "pause",
      "outputs": [],
      "stateMutability": "nonpayable",
      "type": "function"
    },
    {
      "inputs": [],
      "name": "paused",
      "outputs": [
        {
          "internalType": "bool",
          "name": "",
          "type": "bool"
        }
      ],
      "stateMutability": "view",
      "type": "function"
    },
    {
      "inputs": [],
      "name": "proposalCount",
      "outputs": [
        {
          "internalType": "uint256",
          "name": "",
          "type": "uint256"
        }
      ],
      "stateMutability": "view",
      "type": "function"
    },
    {
      "inputs": [
        {
          "internalType": "uint256",
          "name": "",
          "type": "uint256"
        }
      ],
      "name": "proposals",
      "outputs": [
        {
          "internalType": "uint256",
          "name": "id",
          "type": "uint256"
        },
        {
          "internalType": "address",
          "name": "proposer",
          "type": "address"
        },
        {
          "internalType": "string",
          "name": "title",
          "type": "string"
        },
        {
          "internalType": "string",
          "name": "description",
          "type": "string"
        },
        {
          "internalType": "string",
          "name": "ipfsHash",
          "type": "string"
        },
        {
          "internalType": "uint256",
          "name": "requestedAmount",
          "type": "uint256"
        },
        {
          "internalType": "uint256",
          "name": "aiScore",
          "type": "uint256"
        },
        {
          "internalType": "uint256",
          "name": "votesFor",
          "type": "uint256"
        },
        {
          "internalType": "uint256",
          "name": "votesAgainst",
          "type": "uint256"
        },
        {
          "internalType": "uint256",
          "name": "createdAt",
          "type": "uint256"
        },
        {
          "internalType": "uint256",
          "name": "votingEnds",
          "type": "uint256"
        },
        {
          "internalType": "enum GrantMindDAO.ProposalStatus",
          "name": "status",
          "type": "uint8"
        },
        {
          "internalType": "bool",
          "name": "fundsReleased",
          "type": "bool"
        }
      ],
      "stateMutability": "view",
      "type": "function"
    },
    {
      "inputs": [],
      "name": "quorumPercentage",
      "outputs": [
        {
          "internalType": "uint256",
          "name": "",
          "type": "uint256"
        }
      ],
      "stateMutability": "view",
      "type": "function"
    },
    {
      "inputs": [
        {
          "internalType": "uint256",
          "name": "_proposalId",
          "type": "uint256"
        }
      ],
      "name": "releaseFunds",
      "outputs": [],
      "stateMutability": "nonpayable",
      "type": "function"
    },
    {
      "inputs": [
        {
          "internalType": "bytes32",
          "name": "role",
          "type": "bytes32"
        },
        {
          "internalType": "address",
          "name": "account",
          "type": "address"
        }
      ],
      "name": "renounceRole",
      "outputs": [],
      "stateMutability": "nonpayable",
      "type": "function"
    },
    {
      "inputs": [
        {
          "internalType": "bytes32",
          "name": "role",
          "type": "bytes32"
        },
        {
          "internalType": "address",
          "name": "account",
          "type": "address"
        }
      ],
      "name": "revokeRole",
      "outputs": [],
      "stateMutability": "nonpayable",
      "type": "function"
    },
    {
      "inputs": [
        {
          "internalType": "uint256",
          "name": "_proposalId",
          "type": "uint256"
        },
        {
          "internalType": "uint256",
          "name": "_aiScore",
          "type": "uint256"
        }
      ],
      "name": "submitAIScore",
      "outputs": [],
      "stateMutability": "nonpayable",
      "type": "function"
    },
    {
      "inputs": [
        {
          "internalType": "bytes4",
          "name": "interfaceId",
          "type": "bytes4"
        }
      ],
      "name": "supportsInterface",
      "outputs": [
        {
          "internalType": "bool",
          "name": "",
          "type": "bool"
        }
      ],
      "stateMutability": "view",
      "type": "function"
    },
    {
      "inputs": [],
      "name": "treasuryBalance",
      "outputs": [
        {
          "internalType": "uint256",
          "name": "",
          "type": "uint256"
        }
      ],
      "stateMutability": "view",
      "type": "function"
    },
    {
      "inputs": [],
      "name": "unpause",
      "outputs": [],
      "stateMutability": "nonpayable",
      "type": "function"
    },
    {
      "inputs": [
        {
          "internalType": "uint256",
          "name": "_votingPeriod",
          "type": "uint256"
        },
        {
          "internalType": "uint256",
          "name": "_quorumPercentage",
          "type": "uint256"
        },
        {
          "internalType": "uint256",
          "name": "_approvalThreshold",
          "type": "uint256"
        },
        {
          "internalType": "uint256",
          "name": "_minAIScore",
          "type": "uint256"
        }
      ],
      "name": "updateVotingParams",
      "outputs": [],
      "stateMutability": "nonpayable",
      "type": "function"
    },
    {
      "inputs": [
        {
          "internalType": "uint256",
          "name": "_proposalId",
          "type": "uint256"
        },
        {
          "internalType": "bool",
          "name": "_support",
          "type": "bool"
        }
      ],
      "name": "voteOnProposal",
      "outputs": [],
      "stateMutability": "nonpayable",
      "type": "function"
    },
    {
      "inputs": [],
      "name": "votingPeriod",
      "outputs": [
        {
          "internalType": "uint256",
          "name": "",
          "type": "uint256"
        }
      ],
      "stateMutability": "view",
      "type": "function"
    },
    {
      "stateMutability": "payable",
      "type": "receive"
    }
  ],
  "bytecode": "0x60406080815234620001ba576200010b60018060025560ff19908160035416600355603c60065562093a806007556014600855603c600955600091828052602090838252858420338552825260ff86852054161562000185575b8380528282526200006d33878620620001bf565b507f829b824e2329e205435d941c9f13baf578548505283d29261236d8e6596d4636808552848352868520338652835260ff87862054161562000150575b8452828252620000be33878620620001bf565b507f4848aa3d2c0568bab3ca9720f91818ee0957e95426fa0627cc4809e2e5ed8be090818552848352868520338652835260ff8786205416156200011a575b5083525282339120620001bf565b505161273f90816200024d8239f35b818552848352868520338652835283878620918254161790553333826000805160206200298c8339815191528780a438620000fd565b808552848352868520338652835286852084838254161790553333826000805160206200298c8339815191528880a4620000ab565b838052838252858420338552825285842083828254161790553333856000805160206200298c8339815191528180a462000059565b600080fd5b919060018301600090828252806020526040822054156000146200024657845494680100000000000000008610156200023257600186018082558610156200021e57836040949596828552602085200155549382526020522055600190565b634e487b7160e01b83526032600452602483fd5b634e487b7160e01b83526041600452602483fd5b5092505056fe60806040526004361015610056575b361561001957600080fd5b6100253460055461231d565b6005556040513481527fe3407208b14fa025330ca187030f118a1c0cdb604aba93ba45c862e6095aee2760203392a2005b60003560e01c8063013cf08b14611ae357806301ffc9a714611a7357806302a251a314611a55578063152acc9b14611a375780631614665c146118025780631f93f3b2146117cf578063248a9ca3146117a05780632f2ff15d1461176357806330d0ea3114611728578063313dab201461170a57806336568abe146116785780633f4ba83a146115e4578063409d7a04146115aa578063438596321461155a5780634c15676b1461105b5780634d68282f14610e435780634fa76ec914610e255780635652077c14610bd05780635c975abb14610bad5780635daf08ca14610b84578063718b205814610b215780637d0eef6114610b035780638456cb5914610aa957806388c8deb114610a475780639010d07c14610a0057806391d14854146109b3578063997072f71461095f578063a10f469e14610936578063a217fddf1461091a578063c601f7af146108df578063c7f758a81461081f578063ca15c873146107f3578063ca6d56dc146106cb578063d547741f1461068c578063da35c6641461066e578063eb26e5f0146105825763fd0daa7e0361000e573461057d57604036600319011261057d573360009081527fc1c604b5add75b59252bca1e4e4ec4ab21f3921b1ddcf7a43abe69724bce555d602090815260409091205460249182359160043591907f482648e7878e9fa54c0a2f67ffd22d00ebc37cf7a03e060e428d2ab0cd6735cc9060ff16156103b05750811515806103a4575b61027d90612656565b81600052600a81526040600020600b8101805460ff8116600681101561038f57610353576064861161031957857f51d2496d17ed5e23a805a1927633f24157e7a4a5ef4b46b4dcd7a463907e5bb195969750600684015560065487101560001461030a5750600160ff19825416179055600a6102fb6007544261231d565b9101555b6040519384523393a3005b60ff19166003179055506102ff565b60405162461bcd60e51b81526004810185905260138189015272053636f7265206d75737420626520302d31303606c1b6044820152606490fd5b60405162461bcd60e51b815260048101859052601581890152744e6f7420696e2070656e64696e672073746174757360581b6044820152606490fd5b87634e487b7160e01b60005260216004526000fd5b50600454821115610274565b8492506103bc3361233b565b906040516103c981611bbc565b604281528381019160603684378151156105685760308353815160019081101561055357607860218401536041905b8082116104e55750506104a357604861049f93610474936104839360405195869376020b1b1b2b9b9a1b7b73a3937b61d1030b1b1b7bab73a1604d1b8a86015261044b815180928c603789019101611ca0565b8401917001034b99036b4b9b9b4b733903937b6329607d1b603784015251809386840190611ca0565b01036028810184520182611bd8565b60405193849362461bcd60e51b85526004850152830190611cc3565b0390fd5b606485856040519162461bcd60e51b83528160048401528201527f537472696e67733a20686578206c656e67746820696e73756666696369656e746044820152fd5b9091600f8116601081101561053e576f181899199a1a9b1b9c1cb0b131b232b360811b901a610514848661232a565b5360041c9180156105295760001901906103f8565b87634e487b7160e01b60005260116004526000fd5b88634e487b7160e01b60005260326004526000fd5b86634e487b7160e01b60005260326004526000fd5b85634e487b7160e01b60005260326004526000fd5b600080fd5b3461057d5760208060031936011261057d5761061d9060016105a2611d9b565b916105ab612055565b7f4848aa3d2c0568bab3ca9720f91818ee0957e95426fa0627cc4809e2e5ed8be080600052600082526105e48360406000200154612179565b8060005260008252604060002093838060a01b03169384600052825260ff604060002054161561061f575b60005252604060002061244a565b005b8060005260008252604060002084600052825260406000208360ff198254161790553384827f2f8788117e7eff1d82e926ec794901d17c78024a50270940304540a733656f0d600080a461060f565b3461057d57600036600319011261057d576020600454604051908152f35b3461057d57604036600319011261057d5761061d6004356106ab611d85565b908060005260006020526106c6600160406000200154612179565b612283565b3461057d5760208060031936011261057d576106e5611d9b565b906106ee612055565b60016000805160206126ea8339815191529182600052600081526107188260406000200154612179565b8260005260008152604060002092828060a01b038095169384600052825260ff60406000205416156107a4575b6000525261075781604060002061244a565b50600c54600160401b81101561078e578060016107779201600c55611e14565b909283549160031b92831b921b1916179055600080f35b634e487b7160e01b600052604160045260246000fd5b8060005260008252604060002084600052825260406000208360ff198254161790553384827f2f8788117e7eff1d82e926ec794901d17c78024a50270940304540a733656f0d600080a4610745565b3461057d57602036600319011261057d5760043560005260016020526020604060002054604051908152f35b3461057d57602036600319011261057d57600435801515806108d3575b61084590612656565b600052600a60205260406000208054600160a01b6001900360018301541660058301549160068401549060078501546008860154600987015490600a88015492600b8901549560028a0161089890611bfa565b986108a560038c01611bfa565b9a6004016108b290611bfa565b6040519b8c9b8c9b8b60081c60ff169b60ff169a6108cf9d611cf5565b0390f35b5060045481111561083c565b3461057d57600036600319011261057d5760206040517f482648e7878e9fa54c0a2f67ffd22d00ebc37cf7a03e060e428d2ab0cd6735cc8152f35b3461057d57600036600319011261057d57602060405160008152f35b3461057d57600036600319011261057d5760206040516000805160206126ea8339815191528152f35b3461057d57600036600319011261057d576000805160206126ea833981519152600052600160209081527f1102810968db67ff556ed28b1d46553d94096e4c17b737c9de80193e082e0ad754604051908152f35b3461057d57604036600319011261057d576109cc611d85565b600435600052600060205260406000209060018060a01b0316600052602052602060ff604060002054166040519015158152f35b3461057d57604036600319011261057d5760043560005260016020526020610a2e6024356040600020611e61565b905460405160039290921b1c6001600160a01b03168152f35b3461057d5760208060031936011261057d5761061d906001610a67611d9b565b91610a70612055565b7f482648e7878e9fa54c0a2f67ffd22d00ebc37cf7a03e060e428d2ab0cd6735cc80600052600082526105e48360406000200154612179565b3461057d57600036600319011261057d57610ac2612055565b610aca612612565b600160ff1960035416176003557f62e78cea01bee320cd4e420270b5ea74000d11b0c9f74754ebdbfc544b05a2586020604051338152a1005b3461057d57600036600319011261057d576020600954604051908152f35b600036600319011261057d573415610b3f576100253460055461231d565b60405162461bcd60e51b815260206004820152601860248201527f4d757374206465706f73697420736f6d6520616d6f756e7400000000000000006044820152606490fd5b3461057d57602036600319011261057d57600435600c5481101561057d57610a2e602091611e14565b3461057d57600036600319011261057d57602060ff600354166040519015158152f35b3461057d5760208060031936011261057d5760043590610bee612695565b81151580610e19575b610c0090612656565b81600052600a81526040600020600b81019081549160ff83166006811015610e0357600103610dc757600a8201544210610d8b57600782019260088454930192610c4b84548261231d565b906000805160206126ea833981519152600052600187526040600020549060648302831592848204606414841715610d7557600854610c899161230a565b11159260009215610d15575b5050926060959492827fd28242921a278f46c279fa9a75bad7d95339fe7a5ba2a2c079861eebbd69fa24989560ff9491610d0d575b5015610d005750600282198254161781555b54169254905491610cf06040518095611ce8565b8301526040820152a26001600255005b8219166003178155610cdc565b90508a610cca565b9297949150959492606487029680880460641490151715610d75577fd28242921a278f46c279fa9a75bad7d95339fe7a5ba2a2c079861eebbd69fa2497606097610d6460ff956009549061230a565b111592959850928194969750610c95565b634e487b7160e01b600052601160045260246000fd5b60405162461bcd60e51b8152600481018590526014602482015273566f74696e67207374696c6c206f6e676f696e6760601b6044820152606490fd5b60405162461bcd60e51b81526004810185905260146024820152734e6f7420696e206163746976652073746174757360601b6044820152606490fd5b634e487b7160e01b600052602160045260246000fd5b50600454821115610bf7565b3461057d57600036600319011261057d576020600854604051908152f35b3461057d5760208060031936011261057d57600435610e60612695565b8015158061104f575b610e7290612656565b80600052600a8252604060002090600b820180549260ff84166006811015610e035760020361101b5760ff8460081c16610fdd57600554916101046005830195610ec08754809610156125bf565b61ffff1916179055600554918203918211610d75576001916005550160018060a01b039081815416600052600b85526040600020805490600a8201809211610d7557556000808080858554168854905af13d15610fd8573d610f2181611db1565b90610f2f6040519283611bd8565b81526000873d92013e5b15610fa157917f6e3c6096795c8298a218b2cfb8bde42726ff7c9a3d27b4d3ba41ab7f74feb5fb7f99a3d10b89b07674fcd46bd1678cb120c3c0e2bdd33ab6c1ed9907208907a32194928694541695869354604051908152a3604051600a8152a26001600255005b60405162461bcd60e51b815260048101869052600f60248201526e151c985b9cd9995c8819985a5b1959608a1b6044820152606490fd5b610f39565b60405162461bcd60e51b8152600481018690526016602482015275119d5b991cc8185b1c9958591e481c995b19585cd95960521b6044820152606490fd5b60405162461bcd60e51b815260048101869052600c60248201526b139bdd08185c1c1c9bdd995960a21b6044820152606490fd5b50600454811115610e69565b3461057d57608036600319011261057d5760043567ffffffffffffffff811161057d5761108c903690600401611dcd565b60243567ffffffffffffffff811161057d576110ac903690600401611dcd565b9060443567ffffffffffffffff811161057d576110cd903690600401611dcd565b906110d6611e79565b6110de612612565b60643515611520576110f660055460643511156125bf565b8051156114ea57611108600454612603565b908160045581600052600a602052604060002091825560018201336bffffffffffffffffffffffff60a01b825416179055805167ffffffffffffffff811161078e576111576002840154611b82565b601f81116114a3575b50806020601f82116001146114365760009161142b575b508160011b916000199060031b1c19161760028301555b835167ffffffffffffffff811161078e576111ac6003840154611b82565b601f81116113e4575b50602094601f82116001146113785794819293949560009261136d575b50508160011b916000199060031b1c19161760038301555b8251916004810167ffffffffffffffff841161078e5761120a8154611b82565b94601f8611611325575b602095508590601f86116001146112bc57948091600b95966000926112b1575b50508160011b916000199060031b1c19161790555b60643560058201554260098201550160ff19815416905560045490817f98120a6aaa04295520ab4e01c6c1235dd316e822cc9ff31db7b3f197366d18bd61129b60405193604085526040850190611cc3565b92606435868201528033940390a3604051908152f35b015190508780611234565b90601f1986169183600052876000209260005b81811061130e5750916001939188600b989994106112f5575b505050811b019055611249565b015160001960f88460031b161c191690558780806112e8565b9293896001819287860151815501950193016112cf565b816000526020600020601f860160051c81019660208710611363575b601f0160051c01955b8681106113575750611214565b6000815560010161134a565b9096508690611341565b0151905085806111d2565b601f198216956003850160005260206000209160005b8881106113cc575083600195969798106113b3575b505050811b0160038301556111ea565b015160001960f88460031b161c191690558580806113a3565b9192602060018192868501518155019401920161138e565b600384016000526020600020601f830160051c810160208410611424575b601f830160051c820181106114185750506111b5565b60008155600101611402565b5080611402565b905082015186611177565b91506002840160005260206000206000925b601f198316841061148b576001935082601f19811610611472575b5050811b01600283015561118e565b84015160001960f88460031b161c191690558680611463565b84810151825560209384019360019092019101611448565b600284016000526020600020601f830160051c8101602084106114e3575b601f830160051c820181106114d7575050611160565b600081556001016114c1565b50806114c1565b60405162461bcd60e51b815260206004820152600e60248201526d151a5d1b19481c995c5d5a5c995960921b6044820152606490fd5b60405162461bcd60e51b81526020600482015260126024820152710416d6f756e74206d757374206265203e20360741b6044820152606490fd5b3461057d57604036600319011261057d57611573611d85565b600435600052600a602052600c6040600020019060018060a01b0316600052602052602060ff604060002054166040519015158152f35b3461057d57602036600319011261057d576001600160a01b036115cb611d9b565b16600052600b6020526020604060002054604051908152f35b3461057d57600036600319011261057d576115fd612055565b60035460ff81161561163c5760ff19166003557f5db9ee0a495bf2e6ff9c91a7834c1ba4fdd244a5e8aa4e537bd38aeae4b073aa6020604051338152a1005b60405162461bcd60e51b815260206004820152601460248201527314185d5cd8589b194e881b9bdd081c185d5cd95960621b6044820152606490fd5b3461057d57604036600319011261057d57611691611d85565b336001600160a01b038216036116ad5761061d90600435612283565b60405162461bcd60e51b815260206004820152602f60248201527f416363657373436f6e74726f6c3a2063616e206f6e6c792072656e6f756e636560448201526e103937b632b9903337b91039b2b63360891b6064820152608490fd5b3461057d57600036600319011261057d576020600554604051908152f35b3461057d57600036600319011261057d5760206040517f4848aa3d2c0568bab3ca9720f91818ee0957e95426fa0627cc4809e2e5ed8be08152f35b3461057d57604036600319011261057d5761061d6004356001611784611d85565b9180600052602090600082526105e48360406000200154612179565b3461057d57602036600319011261057d5760043560005260006020526020600160406000200154604051908152f35b3461057d57608036600319011261057d576117e8612055565b600435600755602435600855604435600955606435600655005b3461057d57604036600319011261057d5760248035801515906004359082810361057d5761182e611e79565b611836612612565b81151580611a2b575b61184890612656565b81600052602093600a855260406000209160ff600b840154166006811015611a16576001036119de57600a8301544210156119ab57600c83013360005280875260ff60406000205416611977573360005286526040600020600160ff1982541617905560001461196257600782016118c08154612603565b90555b33600052600b855260406000208054916001830180931161194e57505560086007820154910154906040519384528484015260408301527f77a255f45c79d26605c257d8dfc37f9a619f53963ddbed1e95aa0aab1c801cee60603393a37f99a3d10b89b07674fcd46bd1678cb120c3c0e2bdd33ab6c1ed9907208907a32160405191600183523392a2005b634e487b7160e01b60009081526011600452fd5b600882016119708154612603565b90556118c3565b60405162461bcd60e51b815260048101889052600d818501526c105b1c9958591e481d9bdd1959609a1b6044820152606490fd5b60405162461bcd60e51b815260048101879052600c818401526b159bdd1a5b99c8195b99195960a21b6044820152606490fd5b60405162461bcd60e51b81526004810187905260118184015270566f74696e67206e6f742061637469766560781b6044820152606490fd5b82634e487b7160e01b60005260216004526000fd5b5060045482111561183f565b3461057d57600036600319011261057d576020600654604051908152f35b3461057d57600036600319011261057d576020600754604051908152f35b3461057d57602036600319011261057d5760043563ffffffff60e01b811680910361057d57602090635a05180f60e01b8114908115611ab8575b506040519015158152f35b637965db0b60e01b811491508115611ad2575b5082611aad565b6301ffc9a760e01b14905082611acb565b3461057d57602036600319011261057d576004356000908152600a60205260409020805460018201549091906001600160a01b0316611b2460028301611bfa565b91611b3160038201611bfa565b93611b3e60048301611bfa565b91600581015460068201546007830154600884015491600985015493600a86015495600b0154976040519b8c9b8c9b8b60081c60ff169b60ff169a6108cf9d611cf5565b90600182811c92168015611bb2575b6020831014611b9c57565b634e487b7160e01b600052602260045260246000fd5b91607f1691611b91565b6080810190811067ffffffffffffffff82111761078e57604052565b90601f8019910116810190811067ffffffffffffffff82111761078e57604052565b9060405191826000825492611c0e84611b82565b908184526001948581169081600014611c7d5750600114611c3a575b5050611c3892500383611bd8565b565b9093915060005260209081600020936000915b818310611c65575050611c3893508201013880611c2a565b85548884018501529485019487945091830191611c4d565b915050611c3894506020925060ff191682840152151560051b8201013880611c2a565b60005b838110611cb35750506000910152565b8181015183820152602001611ca3565b90602091611cdc81518092818552858086019101611ca0565b601f01601f1916010190565b906006821015610e035752565b9b97938c969e9d9a96611d4391611d356101809e9a96611d5196611d7e9e9a96855260018060a01b031660208501526101a0806040860152840190611cc3565b916060818403910152611cc3565b8c810360808e015290611cc3565b9b60a08b015260c08a015260e0890152610100880152610120870152610140860152610160850190611ce8565b1515910152565b602435906001600160a01b038216820361057d57565b600435906001600160a01b038216820361057d57565b67ffffffffffffffff811161078e57601f01601f191660200190565b81601f8201121561057d57803590611de482611db1565b92611df26040519485611bd8565b8284526020838301011161057d57816000926020809301838601378301015290565b600c54811015611e4b57600c6000527fdf6966c971051c3d54ec59162606531493a51404a002842f56009d7e5cf4a8c70190600090565b634e487b7160e01b600052603260045260246000fd5b8054821015611e4b5760005260206000200190600090565b3360009081527f30710e496c9a8631e387d1ff5062c226d4ce9c9e008bff1f22ae157290ccbd62602090815260408083205490926000805160206126ea8339815191529160ff1615611ecb5750505050565b611ed43361233b565b91845190611ee182611bbc565b6042825284820192606036853782511561204157603084538251906001918210156120415790607860218501536041915b818311611fd357505050611f9157604861049f938693611f7593611f66985198899376020b1b1b2b9b9a1b7b73a3937b61d1030b1b1b7bab73a1604d1b8a86015261044b815180928c603789019101611ca0565b01036028810187520185611bd8565b5192839262461bcd60e51b845260048401526024830190611cc3565b60648486519062461bcd60e51b825280600483015260248201527f537472696e67733a20686578206c656e67746820696e73756666696369656e746044820152fd5b909192600f8116601081101561202d576f181899199a1a9b1b9c1cb0b131b232b360811b901a612003858761232a565b5360041c92801561201957600019019190611f12565b634e487b7160e01b82526011600452602482fd5b634e487b7160e01b83526032600452602483fd5b634e487b7160e01b81526032600452602490fd5b3360009081527fad3228b676f7d3cd4284a5443f17f1962b36e491b30a40b2405849e597ba5fb5602090815260408083205490929060ff161561209757505050565b6120a03361233b565b90808451906120ae82611bbc565b6042825284820192606036853782511561204157603084538251906001918210156120415790607860218501536041915b81831161213357505050611f9157604861049f938693611f7593611f66985198899376020b1b1b2b9b9a1b7b73a3937b61d1030b1b1b7bab73a1604d1b8a86015261044b815180928c603789019101611ca0565b909192600f8116601081101561202d576f181899199a1a9b1b9c1cb0b131b232b360811b901a612163858761232a565b5360041c928015612019576000190191906120df565b600090808252602090828252604092838120338252835260ff8482205416156121a25750505050565b6121ab3361233b565b918451906121b882611bbc565b6042825284820192606036853782511561204157603084538251906001918210156120415790607860218501536041915b81831161223d57505050611f9157604861049f938693611f7593611f66985198899376020b1b1b2b9b9a1b7b73a3937b61d1030b1b1b7bab73a1604d1b8a86015261044b815180928c603789019101611ca0565b909192600f8116601081101561202d576f181899199a1a9b1b9c1cb0b131b232b360811b901a61226d858761232a565b5360041c928015612019576000190191906121e9565b9060406122c092600090808252816020528282209360018060a01b03169384835260205260ff83832054166122c3575b81526001602052206124cf565b50565b8082528160205282822084835260205282822060ff1981541690553384827ff6391f5c32d9c69d2a47ea670b442974b53935d1edc7fd64eb21e047a839171b8580a46122b3565b81810292918115918404141715610d7557565b91908201809211610d7557565b908151811015611e4b570160200190565b604051906060820182811067ffffffffffffffff82111761078e57604052602a8252602082016040368237825115611e4b57603090538151600190811015611e4b57607860218401536029905b8082116123dc5750506123985790565b606460405162461bcd60e51b815260206004820152602060248201527f537472696e67733a20686578206c656e67746820696e73756666696369656e746044820152fd5b9091600f81166010811015612435576f181899199a1a9b1b9c1cb0b131b232b360811b901a61240b848661232a565b5360041c918015612420576000190190612388565b60246000634e487b7160e01b81526011600452fd5b60246000634e487b7160e01b81526032600452fd5b919060018301600090828252806020526040822054156000146124c957845494600160401b8610156124b557836124a561248e886001604098999a01855584611e61565b819391549060031b91821b91600019901b19161790565b9055549382526020522055600190565b634e487b7160e01b83526041600452602483fd5b50925050565b906001820190600092818452826020526040842054908115156000146125b857600019918083018181116125a4578254908482019182116125905780820361255b575b505050805480156125475782019161252a8383611e61565b909182549160031b1b191690555582526020526040812055600190565b634e487b7160e01b86526031600452602486fd5b61257b61256b61248e9386611e61565b90549060031b1c92839286611e61565b90558652846020526040862055388080612512565b634e487b7160e01b88526011600452602488fd5b634e487b7160e01b87526011600452602487fd5b5050505090565b156125c657565b60405162461bcd60e51b8152602060048201526015602482015274496e73756666696369656e7420747265617375727960581b6044820152606490fd5b6000198114610d755760010190565b60ff6003541661261e57565b60405162461bcd60e51b815260206004820152601060248201526f14185d5cd8589b194e881c185d5cd95960821b6044820152606490fd5b1561265d57565b60405162461bcd60e51b815260206004820152601060248201526f125b9d985b1a59081c1c9bdc1bdcd85b60821b6044820152606490fd5b60028054146126a45760028055565b60405162461bcd60e51b815260206004820152601f60248201527f5265656e7472616e637947756172643a207265656e7472616e742063616c6c006044820152606490fdfe829b824e2329e205435d941c9f13baf578548505283d29261236d8e6596d4636a2646970667358221220d2c3379996bcfc68d4f5ac3c91e5318747d9b0bb2d76e91976aa642f4171476a64736f6c634300081300332f8788117e7eff1d82e926ec794901d17c78024a50270940304540a733656f0d",
  "linkReferences": {},
  "deployedLinkReferences": {}
}